:1000000000800020BD010000713A0000353A000078
:10001000353A0000353A0000353A0000353A000024
:10002000353A0000353A0000353A0000713A0000D8
:10003000713A0000353A0000713A0000253A00009C
:10004000713A0000713A0000713A0000713A000004
:10005000713A0000713A0000713A0000713A0000F4
:10006000713A0000713A0000713A0000713A0000E4
:10007000713A0000713A0000713A0000713A0000D4
:10008000713A0000713A0000713A0000713A0000C4
:10009000713A0000713A0000713A0000713A0000B4
:1000A000713A0000713A0000713A0000713A0000A4
:1000B000713A0000713A0000713A0000713A000094
:1000C000713A0000713A0000713A0000713A000084
:1000D000713A0000713A0000713A0000713A000074
:1000E000713A0000713A0000713A0000713A000064
:1000F000713A00007D550000713A0000E15C00009B
:10010000713A00005D620000713A0000713A00002F
:10011000713A0000713A0000713A0000713A000033
:10012000713A0000713A0000713A0000713A000023
:10013000713A0000713A0000713A0000713A000013
:10014000713A0000713A0000713A0000713A000003
:100150005D680000756800008D680000A5680000FB
:10016000713A0000BD400000713A0000713A000091
:10017000713A0000713A0000713A0000713A0000D3
:10018000713A0000713A0000713A0000713A0000C3
:10019000713A0000713A0000713A0000713A0000B3
:1001A000713A0000713A0000713A0000713A0000A3
:1001B000713A0000713A0000713A0000574B4CF25E
:1001C000205210B51A804DF628121A8000BF00BFC9
:1001D00003F052FC524B4FF010621A60514A9A6081
:1001E000514ADA60A3F53043203B1A6812F480725A
:1001F00004D14E490A604FF4A8521A604C4B1A7849
:10020000110703D51A7842F008021A70494B4A4C7C
:100210004A482A221A704A4A00239918A14203D256
:10022000195899500433F8E7464B474900228B424E
:1002300002D243F8042BFAE74448454900235A58B0
:100240001A500433B3F5DE7FF9D1424B424A802184
:1002500003F8011B9342FBD1404B3C4A1A60404BD0
:100260008A221A70A3F5805324225A70A0221A7091
:100270009A799207FCD59A79D406FCD4394A9379B5
:1002800003F00C03082B374BF9D103221A714622D5
:100290005A719A799006FCD5324A9179314B4906C8
:1002A000FBD5314A4FF08271116009215160202243
:1002B0001A709A7902F00C020C2AFAD12B4B2C4AB4
:1002C0001A602C4B2C4A1A6000225A60072243F80D
:1002D000042C2A4AC3F80C2D62B603F0AFFD134B71
:1002E0001B68DA0705D5264803F0F6FB254B264A9E
:1002F0001A60264B1B785B0609D5224C224A2368DC
:10030000934204D11E4803F0E7FB0023236006F06C
:10031000D9FD03F0B7FB04F0B1FDFEE70E20054068
:1003200030800440823F04000100002B14D00340C1
:1003300002D0074000E007407490FF1F907F00004C
:100340006087FF1F7490FF1F787800200082FF1FD6
:100350000000000000E400E05FE400E008ED00E0E1
:1003600000500640004006404480044004800440A1
:10037000C010050014E000E0BFD401000000202000
:100380006F9A55591CE00340A5C3945A00F00740EA
:10039000FFFFFFFFFFFFFFFFFFFFFFFFFFFFFFFF6D
:1003A000FFFFFFFFFFFFFFFFFFFFFFFFFFFFFFFF5D
:1003B000FFFFFFFFFFFFFFFFFFFFFFFFFFFFFFFF4D
:1003C000FFFFFFFFFFFFFFFFFFFFFFFFFFFFFFFF3D
:1003D000FFFFFFFFFFFFFFFFFFFFFFFFFFFFFFFF2D
:1003E000FFFFFFFFFFFFFFFFFFFFFFFFFFFFFFFF1D
:1003F000FFFFFFFFFFFFFFFFFFFFFFFFFFFFFFFF0D
:10040000FFFFFFFFFFFFFFFFFFFFFFFFDEF9FFFF23
:1004100010B5054C237833B9044B13B10448AFF33E
:1004200000800123237010BD7490FF1F00000000A6
:10043000907F000008B5064B1BB106480649AFF394
:1004400000800648036813B1054B03B1984708BD07
:1004500000000000907F00007890FF1F7490FF1F45
:1004600000000000054B1B68194613F8012B202AD9
:10047000FAD0092AF8D0014B19607047A072002009
:10048000F8B504460022174B1A70174E1D46174642
:1004900023782BB33068815C8B4202D10132013466
:1004A000F6E78031994205D013F0800F08BF631C36
:1004B00008D00DE002F1010C60440B4B1860FFF70F
:1004C000D1FFF8BD1C46013394F90020002AF9DA67
:1004D00001342B7801332B70FFF7C4FF3A46D7E77E
:1004E000F8BD00BF8C720020A072002038B5FFF765
:1004F000B9FF134B1A681378A3F13001C9B2092967
:100500001CD80132002041F6981506E0A84204D913
:100510000B4B1C604FF6FF7038BD00EB800003EB07
:100520004000303880B2144612F8013BA3F130018C
:10053000C9B20929EAD9024B1C6038BD002038BD78
:10054000A0720020094B1868094B1A6890420CD021
:10055000084B198803888B4203D3704703888B426A
:1005600003D2837818449042F8D170476472002017
:10057000487200205472002010B4124B1A6893780D
:100580000A2B1BD0033200210C4699420DD0222B9E
:100590000DD0272B0DD069B9A3F16100C0B2192885
:1005A00008D8203B02F8013C04E0214602E019464D
:1005B00000E0194612F8013B0A2BE6D15DF8044B26
:1005C000704700BF48720020A0F13003DBB2092B56
:1005D00010D920F02003413BDBB2192B0CD95F2846
:1005E0000CD02B280CD02E280CD07E2814BF002035
:1005F000012070470120704701207047012070479B
:10060000012070470120704738B5FFF72BFF4A4B98
:100610001B681A782D2A07D10133474A1360FFF768
:10062000F3FF404280B284E0302A04D10133424AD1
:10063000136000207DE0A2F13101C9B2082911D870
:10064000002013F8012B00EB800002EB4000303853
:1006500080B219461A78303AD2B2092AF1D9364B0B
:10066000196066E0A2F14101C9B219294CD8597844
:100670004139C9B219290AD902F10042413A2F4938
:10068000096831F8120001332B4A136051E02C48FD
:10069000FFF7F6FE2B4B1C78052C46D0264B1B682B
:1006A0001A78282A41D1244D01332B6000F0A2F89A
:1006B0002B681A78292A38D101332B60042C23D8CF
:1006C000DFE804F003060B151E001F4B185C30E03A
:1006D00000282EDA404280B22BE0C4B2204600212E
:1006E00003F03CFA204603F06BF880B221E0C4B27C
:1006F0002046002103F032FA204603F021FA18E0E8
:1007000004F0B0FB80B214E00B4B1B681A78282A67
:100710000BD1094C0133236000F06CF823681A7880
:10072000292A02D10133236003E00122074B1A700A
:10073000002000B238BD00BFA072002090720020DF
:100740007C7A00008C7200209090FF1F567200206F
:10075000F8B5FFF759FF0546FFF784FE0F4C104F21
:10076000012623681A782A2A07D101332360FFF76C
:100770004BFF00FB05F085B2F3E72F2A0BD10133C5
:100780002360FFF741FF20B12DB295FBF0F5ADB22C
:10079000E7E73E70E5E728B2F8BD00BFA072002091
:1007A0005672002038B5124B1B681B782D2B05D0D4
:1007B0002B2B05D0FFF7CCFF054602E0002500E01B
:1007C00000250B4C23681A782D2A06D101332360AB
:1007D000FFF7BEFF281A85B2F4E72B2A06D10133B2
:1007E0002360FFF7B5FF284485B2EBE728B238BD98
:1007F000A072002010B5FFF7D5FF0446204B1B78F0
:10080000002B37D11F48FFF73BFE1F4B1B78072BF0
:1008100031D0062B31D8DFE803F0040B11181F2666
:100820000B00FFF7BFFF8442B4BF0020012025E08A
:10083000FFF7B8FF201A18BF01201FE0FFF7B2FF33
:100840008442D4BF0020012018E0FFF7ABFF8442B0
:1008500014BF0020012011E0FFF7A4FF8442CCBFA9
:10086000002001200AE0FFF79DFF8442ACBF00207A
:10087000012003E002E0204600E0002000B210BDAD
:1008800056720020C87A00008C72002070B50022D9
:10089000134B1A70134B1C68264614F8015B28464C
:1008A000FFF792FE0028F7D00E4B1E601DB9012203
:1008B0000B4B1A7012E0741C254601342878FFF7A0
:1008C00083FE0028F8D1074B1D60AE421CBF0023F9
:1008D0002B70337813B90122014B1A70304670BD6A
:1008E00056720020A072002008B503F01FF80248DD
:1008F00001F0A6F808BD00BF6872002008B50146E7
:100900000B4B1B6893B90B4B1B78022B03D10A4886
:1009100001F00CF808BD012B06D1084B1868421CE9
:100920001A6003F05DF808BD04F0CCF808BD00BF04
:1009300050720020947200206872002060720020C3
:1009400070B5051E03DA6D422D20FFF7D7FF124B5D
:100950001A680024114E511E86FB0530EB17C3EBBD
:10096000A00303EB8300A5EB4005303502F8015CE2
:100970001D460134002B01DD0A46ECE7064B1960E9
:10098000002C08DD1D462B6813F8010B2B60FFF7C8
:10099000B5FF013CF7D170BD5872002067666666EE
:1009A00070B5114B1A680024104E511EA6FB00535F
:1009B000DB0803EB8305A0EB4500303002F8010CA7
:1009C000184601340BB10A46EFE7074B1960002CBB
:1009D00008DD1D462B6813F8010B2B60FFF78EFF17
:1009E000013CF7D170BD00BF58720020CDCCCCCCFB
:1009F00010B50446007828B1FFF780FF14F8010F06
:100A00000028F9D110BD00BF08B50A20FFF776FF16
:100A10000D20FFF773FF08BD08B5FFF7E9FFFFF7EB
:100A2000F3FF08BD38B52A4A2A492B4D2B4C1378C1
:100A300013F0FF0FFBD00B7813F0030FF7D02868EB
:100A40002368C31A182BF2D917E00A20012103F0FA
:100A500085F823480A2101F0FDF818B92148FFF76D
:100A6000DBFF38BD0122204B1A6000231F4A1370A0
:100A70001F4A13701F4A136038BD1F4C23685B6800
:100A800020461E4905229847204604F091F81C484C
:100A9000FFF7C2FF0D20012103F060F80D200121B6
:100AA00003F02AF84FF4FA7003F0B2F90D20002198
:100AB00003F022F84FF4FA7003F0AAF90D20012197
:100AC00003F01AF8084B1B68012BBED138BD00BFDC
:100AD00024760020347600204075002070780020B5
:100AE000A8720020B87A00003C72002094720020A6
:100AF000447200205072002058760020707B000065
:100B00009C7A000070B590B068462D492D4A0123AB
:100B100001F052F96846002100F0ACFF2A4E2B4D3F
:100B200008A86946012201F0F1F908A800F0DCFFED
:100B300030B908A800F0CCFF684600F0C9FF3DE0DE
:100B40003046FFF755FF08A800F088FFFFF750FF79
:100B500008A800F085FF10B11D48FFF749FF08A85D
:100B600000F07EFF88B108A800F078FF06F08CFD49
:100B700004460F2805DC2846FFF73AFF0134102C05
:100B8000F9D11448FFF734FF12E008A800F066FF1F
:100B900006F07AFD0446102805DC2846FFF728FFFA
:100BA0000134112CF9D108A800F078FFFFF7F8FE06
:100BB000FFF72AFF08A800F08BFFB1E710B070BD67
:100BC000A8720020787B0000E07A00006C7B0000B7
:100BD000DC7A0000187C000010B50E4C236833F856
:100BE000030B2360FFF7ACFE2020FFF787FE22688F
:100BF00010780A2807D0FFF781FE23685A1C22606C
:100C000058780A28F7D10132024B1A60FFF7FCFE30
:100C100010BD00BF40720020F8B5FFF76FFE344BE7
:100C20001A680232334B1A60334D344F344E2B78EE
:100C3000012B10D0022B15D1304600F099FE04464E
:100C40000A2808BF0D24304600F02EFF00BB2C48B8
:100C500000F03EFF0DE03868431C3B6002F0AAFE46
:100C600038B116E003F084FE0028FBD003F034FE18
:100C70000FE00023204A1370224A1360224B1B68A6
:100C80007BB10022204B1A600122204B1A6008E041
:100C90002046C3B20A2B04D00D2B02D0082B07D05C
:100CA00013E0FFF7B1FE134B1B680A221A70F8BD60
:100CB000104B1B680E4A12689342B8D0013B0D4A94
:100CC00013601348FFF7A8FEB1E70A4B1B68114AEF
:100CD0001268023A934203D10820FFF70FFEA6E7FD
:100CE000C0B203F8010B034A1360FFF707FE9EE74B
:100CF00048720020A0720020447200206072002020
:100D000068720020507200204C720020A4720020F3
:100D1000587B0000907200202DE9F04F95B02820FC
:100D200004F03EF8964B974A1360974A136003F518
:100D30006142AA3295490A6003F561425A329449E8
:100D40000A604EF224100344924A1360FFF7F8FD44
:100D50009148FFF761FE4FF40060FFF7F1FD8F4807
:100D6000FFF75AFE00200390DFF858B20746054609
:100D7000834901F56141AA310191894CCBF80050BA
:100D8000019A824B1A608748FFF746FE7C4800F5BF
:100D9000614A0AF1A90ACDF808A0834B1B6833B158
:100DA000814B1F60774B1B68CBF800308EE13E20F3
:100DB000FFF732FFFFF7E0FB734BD3F8008008F139
:100DC0000206266098F802300A2B00F06D8508F1C3
:100DD00003031A46013311780A29FAD122606D4BB8
:100DE0001B6803F1FF3C03F8011C96420CD06146DE
:100DF00008F1020E134613F8010D01F8010D7345B9
:100E0000F9D1C2EB0E029444C4F800C0FFF76EFBA8
:100E10008246664B1880FFF725FBBAF1000F00F001
:100E20009E804FF6FF739A456CD0D4F8009099F8E5
:100E300000300A2B07D03B460133DBB219F8032000
:100E40000A2AF9D100E03B460433DEB2A9F10303DC
:100E5000236029F803AC09F8016CFFF773FB8045A8
:100E600015D00388534512D182780244B8EB020EA4
:100E700009D0013A8644034612F8011F03F8011B0A
:100E80007345F9D100E086463F4BC3F800E099F87E
:100E900000300A2B81D0002E3FF47FAF3A4BD3F8BD
:100EA0000080D4F800E0A9463546C8EB0E06AE42F5
:100EB00028BF2E4608EB060CB8EB000109D04346CC
:100EC0006246C1EB080813F8011D02F8011D4345F5
:100ED000F9D16EB10EF1FF33811913F8012F00F82B
:100EE000012B8842F9D1AD1B05F0FF05B644084639
:100EF00035B94D46244BC3F800C0C4F800E04CE7B8
:100F0000E046D2E72A48FFF787FD46E74D4600E076
:100F10004D462848FFF76CFDDBF800305BB12268D6
:100F200016780A2E1CBF5E211170234A1360FFF74A
:100F300053FE23681E70FFF767FD2EE71F48FFF77B
:100F40006BFD1BE71A46013311783A29FAD022606B
:100F5000FFF788FA23681B780A2B06D1ADE02660DC
:100F600098F802300A2B3FF418AF03F001FD58B394
:100F700003F0B2FC032827D11148FFF74DFDFDE631
:100F80009090FF1F64720020487200205872002069
:100F900088720020907200202C7B0000E87A00000C
:100FA000A0720020547B0000A47200205472002024
:100FB000947A00003C7B000040720020D47A00004C
:100FC000247B00005C7200209048FFF759FA904B98
:100FD0001E78242E71D8DFE816F08D029D033200B2
:100FE0003C00DA03D0013A0241005200A601E401BC
:100FF00070003501DE00AA026A02660083049603CF
:101000002503AA0270004D034F032B00660026043F
:101010009A03350437043104CF008300D200250041
:10102000B2003A023E4640F2FF784FF02E097BE0D4
:10103000784B1F70FFF7DEFB02F0EAFE3DE023680D
:101040001B780A2B7FF465AF734B1A68734B1A60D9
:10105000A3E6714B1B68CBF8003037E06D4E37705C
:10106000FFF7C8FB3378002B7FF44CAF23681B7865
:101070000A2B3FF447AF00287FF477AF1DE0654EA1
:101080003770FFF7B7FB664B18803378002B7FF47F
:1010900039AF23681B780A2B7FF434AFFFF752FA7D
:1010A000CBF8000012E023681B780A2B7FF431AFE5
:1010B0005A4B1B68CBF8003008E0DBF80030002BFF
:1010C0003FF46BAE9A781344CBF80030DBF8003075
:1010D000524A126893423FF451AE0333236044E70F
:1010E0003E464FF03F08304602F064FC03460028BD
:1010F000E3D0A0F120025E2A07D90A2805D00D28E6
:1011000003D04046FFF7FAFB02E01846FFF7F6FB74
:101110000136B6F5006FE6D1CFE706F03F03202B8E
:1011200002D14846FFF7EAFB3046294602F058FC58
:1011300001364645F1D10A20FFF7E0FBBDE7012269
:10114000384B1A70384B1F60FFF7FCF9374B1860AB
:10115000324B1B68984209D0DFF8D0802F4EFFF742
:101160003BFD3368D8F800209A42F8D13846FFF7A3
:10117000C5FB2C4B1F7001E601222D4B1A60264B3C
:101180001A68264B1A60284B1F600123294A1370E6
:10119000294A1360F2E5FFF765F9236893F800A088
:1011A000AAF14102D2B2192A3FF6B3AE013323604D
:1011B000FFF758F923681B780A2B02D03A2B7FF4EB
:1011C000A8AEDFF87C90DFF854802368C9F80030BF
:1011D0003F20FFF721FDFFF7CFF9D8F800300233A9
:1011E0002360FFF73FF90B4E3770FFF703FB3378AF
:1011F000002BEAD10AF1004AAAF1410A0F4B1B6801
:1012000023F81A000E4B1B68236070E27C7B000001
:101210008C720020567200206472002048720020F8
:1012200054720020947200206072002040720020EE
:101230004C720020447200205072002090720020F6
:1012400098720020FFF70EF923681E78A6F141027C
:10125000D2B2192A3FF65DAE01332360FFF702F9DF
:1012600023681A783D2A7FF454AE01332360FFF7D8
:10127000F9F8DFF8D89289F80070FFF7BBFA8046DA
:1012800099F80030002B7FF444AEAE48FFF7F8F831
:10129000AD4B1B78002B7FF43CAEFFF7ABFA8146D9
:1012A000AA4B1B78002B7FF434AEA948FFF7E8F86F
:1012B000A54B1B7833B9FFF79DFA8246A34B1B78E9
:1012C00013B126E64FF0010AFFF7CCF821680B783E
:1012D0000A2B00F0F3823A2B3FF414AE19E69D4A34
:1012E000136803F110029C48006890423FF626AE56
:1012F000A3F110029748026006F10042413A974874
:10130000006820F81280462203F8102C03F80F6CB6
:1013100023F80E9C23F80CAC43F8041CDBF80020E7
:1013200043F8082CE3E1894E3770FFF763FA8C4BE2
:1013300018803378002B7FF4E5AD226813780A2BF0
:101340007FF4E0AD83490B6803F10C01824800682B
:1013500088423FF6F3ADA3F10C017E4801604721BE
:1013600003F80C1C43F8042CDBF8002043F8082C8D
:10137000FFF7E8F8CBF80000A8E6FFF773F823685A
:101380001A78413AD2B2192A3FF6BCAD0133236034
:10139000FFF768F823681B783A2B02D00A2B7FF4FA
:1013A000B8AD6C4A11686F4B196020680B4648E075
:1013B0001A78462A13D0472A02D06A4A1360DDE41D
:1013C0000A2E0AD1674A13605A68CBF800209B683E
:1013D00023600C315F4B196089E10C3331E0052E3D
:1013E0002ED110F801EC5A78724529D11A465D4980
:1013F0000B600EF1004141395848066836F811E09B
:101400009888704480B226F8110099880EB2002E98
:1014100004DDB3F9026003B29E4207DA11F4004F13
:101420000AD0B2F9023000B2834205DCD3682360EF
:101430009368CBF800305AE110324648026056E11A
:101440001033029A9342B3D3464A13605AE5236895
:101450001E78A6F14102D2B2192A3FF653AD06F129
:101460000046413E3D4AD2F8009001332360FEF72A
:10147000F9FF23681A783D2A7FF44BAD01332360CE
:10148000FEF7F0FFDFF8C48088F80070FFF7B2F9CC
:1014900098F80030002B7FF43CAD23681B780A2BB2
:1014A00002D03A2B7FF435AD29F816001FE1274E04
:1014B0003770FFF79FF93378002B7FF42AADFEF7E2
:1014C000D1FF23681A782C2A7FF423AD01332360DF
:1014D000FEF7C8FF3770FFF78DF93378002B7FF4E4
:1014E00018AD23681A780A2A3FF432AD3A2A00F080
:1014F000F4810EE5FEF7FAFF194B188023681B787C
:101500000A2B7FF406ADFFF71DF8174B1860174B39
:101510001B6883423FF432ACDFF84C80134EFFF778
:101520005BFB3368D8F800209A42F8D126E42368A0
:101530001B783A2B1CD1FFF767FA2368013323602D
:10154000D5E000BF507B00008C7200205672002056
:101550001C7B0000587200208872002090720020CE
:10156000547200209C7200204072002048720020BB
:101570000A2B3FF4A2ADDFF88483A946FEF772FF81
:1015800021680E78222E01D0272E25D14D1C2560F2
:101590004B789E4217D00A2B00F097812A4602E032
:1015A0000A2B00F0928112F8013F9E42F8D1487850
:1015B00086420AD0FFF7A2F923685A1C22605878A5
:1015C0008642F7D102E02A4600E02A460132226034
:1015D0000DE0272B3FF49AAC88F80070FFF70AF96A
:1015E00098F80030002B7FF493ACFFF7A9F923683B
:1015F0001A782C2A02D101332360BFE74D463B2ADB
:1016000008D15A780A2A02D03A2A7FF482AC0133F0
:1016100023606CE00A2A02D03A2A7FF47AACFFF702
:10162000F3F964E0B04B1868B04B1B68C01AFFF7C1
:1016300087F9AF48FFF7F0F94FF40060FFF780F942
:10164000AC48FFF7E9F9384602F0B4F9012606E0A4
:10165000304602F0AFF90136B6F5006F01D0002830
:10166000F6D1C6F500600130FFF76AF9A248FFF72E
:10167000D3F93CE0B84601E04FF001089F4E3770C7
:10168000FFF7B8F881463378002B7FF442ACFEF7C1
:10169000E9FE23681A782C2A7FF43BAC01332360DF
:1016A000FEF7E0FE9648FEF7EBFE964B1B78042B08
:1016B00006D0012B8CBF4FF0000A4FF0010A08E062
:1016C0008E4E3770FFF796F882463378002B7FF402
:1016D00020AC5FFA89F63046012102F03FFAB8F1FA
:1016E000000F0AD030465FFA8AF102F005FA23684B
:1016F0001A783A2A00F0F1802AE430460FFA8AF18B
:1017000002F06CFAF3E7FFF7FDF9FFF737BB0122B0
:101710007D4B1A607D4B1A68744B1A60774E377098
:10172000FFF7B4F83378002B7FF4F3AB80467848AA
:10173000414600F0D3FB20B97648FFF76DF9FFF77B
:101740001DBB04A872494246012300F035FB724BD1
:101750009DF814201A71069A9A609DF81C201A733D
:1017600014AA52F833ED56689068C3F80DE0C3F838
:101770001160C3F81500127B5A760B9ADA610222C7
:10178000664B1A700122664B1A60FFF7F7BA5B4E80
:101790003770FFF77BF83378002B7FF4BAAB8046C5
:1017A0005B48414600F09AFB18B15948414600F0A9
:1017B000A1FB0CA856494246132300F0FDFA564BF4
:1017C0009DF834201A710E9A9A609DF83C201A7385
:1017D00014AA52F813ED56689068C3F80DE0C3F8E8
:1017E0001160C3F81500127B5A76139ADA6102224F
:1017F0004C4B1A70FEF7A6FE4B4B18603B4B1B6818
:10180000834209D0DFF82081384EFFF7E5F93368CD
:10181000D8F800209A42F8D1424B1F703E4800F0A1
:1018200057F9FFF7ABBA354E3770FEF7E3FF337861
:10183000002B7FF46EAB03F0DFFA58E7282003F0AB
:10184000AFFA54E7012303932C4E3770FEF7D2FF13
:1018500080463378002B7FF45CABFEF703FE2368F1
:101860001A782C2A7FF455AB01332360FEF7FAFD7A
:101870003770FEF7BFFF81463378002B7FF449AB0A
:10188000B8F1000FDAD00028D8D028201FFA88F14C
:101890004A4603F0FDF9039800283FF428AF484674
:1018A00002F0B6FA039722E70F4B1B6803F1FF3CE7
:1018B00098F8022003F8012CFFF7A6BA0F4B1B780B
:1018C000002B3FF40CADFFF71DBB23681B78222BC8
:1018D0007FF47FAE4D46FFF71CBB0133FFF732BBF1
:1018E00015B0BDE8F08F00BF907200204872002054
:1018F0002C7B0000E87A0000007B0000567200207C
:10190000447B00008C7200204C7200206472002026
:10191000A87200205C7B00006872002044720020E6
:1019200050720020947200204072002010B582B0E6
:1019300002AB03F8011D0268546819460122A04752
:1019400002B010BD10B50446C3691BB90123037171
:10195000002010BD00201871E06992B201F090FAE9
:10196000E3691B7913B101232371002010BD00BF6F
:1019700000B583B0C06960B10DF10701012200F02C
:10198000B9FF01280CBF9DF807004FF6FF7000B2A9
:1019900001E04FF0FF3003B05DF804FB30B583B0D9
:1019A0000446C06978B10DF10701012200F0A2FFE1
:1019B00001280AD19DF80750E069C168013901F09A
:1019C0007FF8284603E0002001E04FF0FF3003B02D
:1019D00030BD00BF08B5C06908B101F0A9F808BD65
:1019E0002DE9F04104460E469046002303714FF462
:1019F0007A7282600373114B0360242005F08AFA27
:101A0000E061B8B13546074606F1200E3E4628682B
:101A10006968AA68EB680FC6103537467545F5D179
:101A20002868306004F10D0041460C2205F05CFE90
:101A3000002363762046BDE8F08100BF287C0000CB
:101A4000002202714FF47A718160027302490160D1
:101A5000C2614273704700BF287C00000D307047A0
:101A6000C3692BB19879012894BF002001207047E9
:101A70000020704708B5C06928B101F021F8003096
:101A800018BF012008BD002008BD00BFC3690BB10D
:101A9000D86870474FF0FF30704700BFC3690BB183
:101AA000986970470020704738B50446C36963B130
:101AB000FFF7F4FF05462046FFF7E8FF281A47F630
:101AC000FF73984228BF184638BD002038BD00BFBC
:101AD00010B50446C06930B101F056F8E06905F070
:101AE00021FA0023E36110BDC36923B19879003066
:101AF00018BF012070470020704700BF10B58AB0A2
:101B000004460A4600238DF80830094901918DF8F2
:101B10000A3001A82146012301F0E8F8041C18BF8F
:101B2000012414B101A801F02FF820460AB010BD1D
:101B3000487C000008B52AB101F086F9003018BFD2
:101B4000012008BD012008BDF0B40C68035D2F2BF7
:101B50001CD101341AE0002563B11EE001350134C7
:101B600007F8013F0C2D05D016F8013F2F2B01D0AF
:101B7000002BF3D100235355035D2F2B08BF0134F5
:101B80000C60005D003018BF01200BE00619035DFA
:101B90002F2B08BF0025EDD0DDE701341370174669
:101BA0000125E1E7F0BC70472DE9F04F99B082467E
:101BB0000F469146984600238DF81C30244A069221
:101BC0008DF81E308DF840300F928DF84230019321
:101BD0000C4606AE4FF0010B03E00FAC2346344633
:101BE0001E46504601A902AAFFF7AEFF054680F047
:101BF0000102204602A9D2B24346C84730B9BC42CE
:101C00001CD0204600F0C0FF00201EE07DB1304611
:101C1000214602AA5B4601F069F80546BC4211D094
:101C2000204600F0B1FF002DD8D100200DE0BC42CD
:101C300006D0204600F0A8FF012006E0002004E0C6
:101C4000012002E00028C8D1002019B0BDE8F08FC3
:101C5000487C000038B504460A46012100F054FBD8
:101C6000B0B104F1100528462146012201F0B6FB6F
:101C700028B928462146002201F0B0FB50B104F1FA
:101C80003800294600F00CFE003018BF012038BD96
:101C9000002038BD002038BD2DE9F04F99B08146B5
:101CA0009346019391F83C308DF81C30414A0692DE
:101CB00091F83D308DF81D3091F83E308DF81E3092
:101CC0000B6C08934B6C09938B6C0A9391F84C3016
:101CD0008DF82C300B6D0C934B6D0D938B6D0E931B
:101CE00000238DF840300F928DF842305C460FAEE5
:101CF00006AD4FF02F089A462CE023782F2B01D108
:101D0000013427E03F1BFFB20C2F28BF0C2702A88D
:101D100021463A4605F0E8FC18AB3B4403F858ACC2
:101D2000304600F031FF3046294602AA012300F078
:101D3000DDFF40B9002389F804301E4AC9F80020AD
:101D400089F8063032E03C44284600F01DFF2B465F
:101D500035461E462046414605F01CFC0746002835
:101D6000CBD1CBEB0404019B1C602B7989F80430A8
:101D7000104BC9F800306B7989F80530AB7989F8D8
:101D80000630AB68C9F80830EB68C9F80C302B692D
:101D9000C9F810302B7D89F81430AB69C9F81830B8
:101DA000EB69C9F81C302B6AC9F82030484619B0D5
:101DB000BDE8F08F487C00002DE9F041A6B0044654
:101DC000884615461F4602A801ABFFF765FF01983C
:101DD0002E182B5C1BBB9DF80C308DF854303D4BFE
:101DE00014939DF80D308DF855309DF80E308DF818
:101DF0005630049B1693059B1793069B18939DF8EA
:101E00001C308DF86430089B1A93099B1B930A9B26
:101E10001C93204614A9304AFFF7E2FD55E000204C
:101E20008DF830002B4B0B938DF832009DF80E008F
:101E300018B92046FFF704FE47E00238C0B2012877
:101E40000BD80BA808F1380132463B4600F04EFF94
:101E500088B92046FFF7F4FD37E00BA802A9324607
:101E60003B4600F043FF18B92046FFF7E9FD2CE0A0
:101E700002A800F089FE17F0060F03D00BA81199F5
:101E800000F01EFE9DF830308DF87830114B1D9318
:101E90009DF831308DF879309DF832308DF87A30F8
:101EA0000D9B1F930E9B20930F9B21939DF8403019
:101EB0008DF88830119B2393129B2493139B2593B9
:101EC00020461DA93246FFF78BFD204626B0BDE80F
:101ED000F08100BF487C0000787B000008B500F16D
:101EE000380308461946024A0023FFF75DFE08BD85
:101EF000FD1A000008B500F1380308461946024AE9
:101F00000023FFF751FE08BD351B0000F0B59FB060
:101F100006460D46174649E09DF810401CB930466C
:101F2000FFF78EFD4BE0E52C40D02E2C3ED09DF8E7
:101F30001B1011F0080F39D100238DF83430214ADD
:101F40000C928DF8363004A8694600F03DFC0CA8D0
:101F5000E9696A463B4600F0C9FE18B39DF8343083
:101F60008DF85830174B15939DF835308DF8593052
:101F70009DF836308DF85A300E9B17930F9B1893AF
:101F8000109B19939DF844308DF86830129B1B9379
:101F9000139B1C93149B1D93304615A96A46FFF7AB
:101FA0001FFD0CE03046FFF74BFD08E0E86904A98F
:101FB00000F03EFD0028AFDC3046FFF741FD304623
:101FC0001FB0F0BD487C0000084B00225A719A7186
:101FD0009A721A730221196183F8302083F83C2029
:101FE0000349996383F83E20704700BFA872002020
:101FF000487C0000054B4FF00042DA6258631A46F5
:10200000D36A002BFCDA014B9B6B704700C0024087
:10201000064B4FF00042DA62FF225A631A46D36A37
:10202000002BFCDA014B986BC0B2704700C0024035
:1020300070B40A4639B30178144B1C6844F48064C8
:102040001C604FF00044DC625963013A06D08518E9
:1020500026464478DA6A002A06DBFBE705460B4A87
:10206000D36A002B0CDBFBE79A6B196841F48061A3
:102070001960DE625C6300F8012BA842E9D1EEE74B
:10208000024B9B6B2B7070BC704700BF00C00240BE
:1020900008B50079012101F02FFD114B1B78F3B138
:1020A00000220F4B1A700F4B1B78C3B113F0010FB6
:1020B00003D00D4B1A680D4B1A600A4B1B7813F0B6
:1020C000020F03D0084B5A68094B1A60054B1B7866
:1020D00013F0040F03D0044B9A68064B1A6008BD36
:1020E0000C730020387500202C75002000E100E002
:1020F00004E100E008E100E010B5244B1B78002B60
:102100003ED10122214B1A70214B1A68214B1B78BA
:10211000002B28D072B61F4B1B7813F0010F07D08D
:102120001D4B1C681D49096821401D4C2160196028
:10213000184B1B7813F0020F07D01A4B1C68174975
:1021400049682140164C61601960124B1B7813F0EE
:10215000040F07D0144B1C68104989682140104CAB
:10216000A160196062B6114BDB68934208D00F4B37
:102170000F491960DA6042F080421A610D4A1A6014
:102180000079002101F0B8FC10BD00BF0C730020E5
:10219000087300203875002080E100E020750020E1
:1021A0002C75002084E100E088E100E000C00240DE
:1021B00001401F0000001F8038B5044683799BB1A1
:1021C00003895A1C028140F20122934207D8154626
:1021D000FFF71EFF23895A1C2281AB42F8D9204603
:1021E000FFF756FF0023A37138BD00BF062903D9AE
:1021F0001623437100207047052922D8DFE801F03B
:1022000003080D12171C114A114B1A600120704768
:10221000104A0F4B1A60012070470F4A0C4B1A608E
:10222000012070470D4A0A4B1A60012070470C4A82
:10223000074B1A60012070470A4A054B1A600120BB
:102240007047094A024B1A6001207047000001B82C
:10225000087300200320003804300038054000389F
:1022600006500038076000380870003870B582B03A
:102270000E460B4B1B680093009C094DA4B2FFF760
:10228000C7FEFF2807D02B680193019B9BB21B1B45
:10229000B342F4DB01E0012000E0002002B070BD99
:1022A00040750020F8B505460F461646FFF784FF37
:1022B0002846FFF721FF28464FF49671FFF7D6FF17
:1022C00047F04000FFF796FE182426FA04F0C0B24B
:1022D000FFF790FE083C14F1080FF6D127B1082F44
:1022E0000CBF8720FF2000E09520FFF783FE00242D
:1022F000FFF78EFEE87210F0800F03D00134B4F5C2
:10230000807FF5D1F8BD00BF2DE9F04F85B00446C0
:1023100088460023037383728371437102717F4B7C
:102320001B680193019EB6B21046012101F016FC14
:102330002079012101F0E0FB01F0EAF8784A794BBD
:102340001A60794B1B78002B28D072B6764B1B781D
:1023500013F0010F07D0754B1968754A12680A40CF
:1023600074490A601A60704B1B7813F0020F07D093
:10237000714B19686E4A52680A406E494A601A6089
:10238000694B1B7813F0040F07D06C4B1968684A2F
:1023900092680A4067498A601A6062B6684BDA68D8
:1023A0005F4B9A4200F0AC80654B664A1A605C4A0B
:1023B000DA6002F180421A61634A1A60A0E038468E
:1023C000FFF718FE6B1E13F0FF05F8D1564B1B7874
:1023D000C3B113F0010F03D0564B1A685B4B1A6060
:1023E000514B1B7813F0020F03D0524B5A68584BD5
:1023F0001A604D4B1B7813F0040F03D04D4B9A68B5
:10240000544B1A602046FFF777FE0027DFF80C9147
:102410000BE0D9F800300293029B9B1B9BB2B3F5F3
:10242000FA6F02D90123637166E0204639463A46C5
:10243000FFF738FFE0720128EBD1204608214FF466
:10244000D572FFF72FFF10F0040F02D00123237382
:102450000EE00427FFF7DCFDE0727B1E13F0FF07A0
:10246000F8D1AA2802D00223637145E00223237326
:10247000237B022B14BF4FF0000A4FF0804A4FF02D
:1024800037090027DFF894B00BE0DBF80030039346
:10249000039B9B1B9BB2B3F5FA6F02D908236371B0
:1024A0002AE0204649463A46FFF7FCFE204629210D
:1024B0005246FFF7F7FEE0720028E6D1237B022B9D
:1024C00011D120463A210022FFF7ECFE10B106237D
:1024D000637111E0FFF79CFD00F0C000C02812D12D
:1024E000032323730FE02046FFF7D2FD2046414629
:1024F000FFF77CFE05460DE02046FFF7C9FD09E029
:102500000A25FF275BE7FFF783FDFFF781FDFFF754
:102510007FFDE8E7284605B0BDE8F08F4075002054
:1025200007600038087300203875002080E100E063
:10253000207500202C75002084E100E088E100E097
:1025400000C0024001401F0000001F8000E100E0C9
:1025500004E100E008E100E070B582B00446114BF0
:102560001B680093009D0F4EADB20AE033680193E3
:10257000019B9BB25B1BB3F5967F02DD0F2363715A
:1025800008E0FFF745FDE072FF28EFD0FE2806D0F7
:102590000D2363712046FFF77BFD002000E0012042
:1025A00002B070BD40750020F8B504460E461546D1
:1025B0001F46002B43D01344B3F5007F3ADC8379E8
:1025C0002BB103688B4202D10389934215D926604F
:1025D000237B032B18BF7602204611213246FFF7DA
:1025E00061FE10B10323637124E02046FFF7B4FFBE
:1025F00000B3002323810123A3712389AB4207D2B7
:10260000FFF706FD2089013080B220818542F7D88E
:1026100006983946FFF70CFD23891F44BFB2278176
:10262000A37A13B1B7F5007F0BD32046FFF7C4FDA3
:102630000120F8BD2046FFF72BFD0020F8BD01204A
:10264000F8BD0120F8BD00BF00B583B000920022A4
:102650004FF40073FFF7A8FF03B05DF804FB00BF61
:1026600070B5064615460846FFF7C4FC0024285DF1
:10267000FFF7C0FC0134B4F5007FF8D1FF20FFF76D
:10268000B9FCFF20FFF7B6FCFFF7C2FCF07200F0C8
:102690001F00052806D0112373713046FFF7F8FCA0
:1026A000002070BD012070BD38B5044615460B46AC
:1026B00011B9122343712BE0027B032A18BF4B028E
:1026C00018211A46FFF7EEFD10B1042363711FE0D5
:1026D0002046FE212A46FFF7C3FFC8B120464FF42B
:1026E0001671FFF7C3FD10B91523637110E0204682
:1026F0000D210022FFF7D6FD10B9FFF789FC10B1BC
:102700001423637104E02046FFF7C2FC012038BDAA
:102710002046FFF7BDFC002038BD00BF014A024B38
:102720001A607047032000380873002010B5044673
:10273000006A012104F1080200F0C6FD034650B111
:10274000E3693BB9A368E361637963F07F03637175
:10275000012300E00123184610BD00BF70B50646F6
:10276000FFF7E4FF0346E0B1336AB268023A197C2E
:1027700002FA01F55A6915441C794CB1013D28193A
:1027800000F0D8FC034660B1013C14F0FF04F6D120
:10279000336A1B7C4FF400729A40B3691344B361EF
:1027A0000123184670BD00BF10B50446006900F053
:1027B0009DFC20B1207D034B03EB401010BD002099
:1027C00010BD00BF1C73002070B400231A462E26D3
:1027D000C45C202C09D0DCB2082C02D1541C8E54CD
:1027E000E2B2541CC55C8D54E2B201330B2BEFD125
:1027F00000238B5470BC70472DE9F00F84B00D4658
:1028000000232022EA5401330B2BFBD1471E4FF04B
:10281000000C4FF00708214E4FF0080A4FF00A094C
:102820002EE02E2C05D1B8F10A0F32D0D446C8467E
:1028300026E096E80F000DF1100B0BE90F000DF1EB
:10284000FF3201E0A34219D012F8013F002BF9D169
:10285000E04513D3A4F12103DBB25D2B0ED80CF1BC
:102860000103DBB2AC44A4F16102D2B2192A9CBFCD
:10287000203CE4B28CF800409C4601E0002009E0D6
:1028800017F8014F002CCCD12878203818BF012030
:1028900000E0002004B0BDE8F00F7047507C00005D
:1028A00038B504460D4683790BBB91F82020102AD9
:1028B00007D1022383710023C3614B8C5B018361C9
:1028C0000CE0202A14D103238371496AC161284690
:1028D00004F1180200F084FC034648B1256201238C
:1028E00063710022A260E2602261227500E0002391
:1028F000184638BD2DE9F04F85B00446884603924E
:102900008379002B69D0437913F0010F68D0826975
:10291000C368D11A0398884201D98BB20393039BF1
:10292000002B57D01E46DFF8FCA0DFF8FC90DFF844
:10293000FCB0E368C3F30807A279022A04D1226A33
:10294000516A01EB53211BE0206A0579013D05EA3C
:102950005325EDB25FB955B913B9E369A36006E039
:10296000224652F8081F00F005FC00283BD0226ADE
:10297000A368023B117C03FA01F152691144294416
:10298000C7F500739E42C6BF1D46ADB2354663799A
:1029900013F0400F02D1B5F5007F39D1D9F80030DE
:1029A00099422AD134E0A8440DE05744781987426F
:1029B00009D03B46424613F8011B02F8011B834233
:1029C000F9D1C71BB844E3682B44E360761BB6B269
:1029D000002EAED1039B98B20DE04FF6FF700AE0D7
:1029E0004FF6FF7007E04FF6FF7004E04FF6FF7000
:1029F00001E04FF6FF7000B211E0CDF80080DBF887
:102A000000003A462B46FFF7CFFD0028CBD1EDE77B
:102A10000846002100F06AFB0028C6D1E9E705B0AE
:102A2000BDE8F08F1C7300206487FF1F187300201F
:102A300070B505460C468379012B1CD9C36813F089
:102A40001F0F1AD1202609E0237883B1E52B05D08A
:102A50002E2B03D0E37A13F0080F10D0284621461E
:102A60003246FFF747FFC0B243B2202BECD040F311
:102A7000C011C8B204E0FF2002E0FF2000E02020E7
:102A800040B270BD30B583B004468379012B0FD9B5
:102A9000C5680DF107010122FFF72CFF012809D1BC
:102AA000E3681F33E36005F4F070044B184402E060
:102AB000002000E0002003B030BD00BF1C730020E8
:102AC000F8B504460F4683797BB382698A422BD3DB
:102AD000022B02D1E160012327E021B900238360AA
:102AE000C360012321E0C368026A157C09355A1EC0
:102AF000EA40013921FA05F5AA4200D813B9E36981
:102B0000A3600AE0AD1A08E0206AA168324600F02E
:102B100031FB013D034610B907E004F10806002D22
:102B2000F2D1E760012300E000231846F8BD00BFA2
:102B300038B50446807918B394F90530002B1BDAB8
:102B400020460121FFF730FE0546C0B1A379012BD5
:102B50009CBFA369C361A38B4383E38B8382094B2F
:102B60001B682BB1183005F1160198472B8B6B822F
:102B7000637903F07F03637100F08CFA38BD0020A5
:102B800038BD00BF1073002010B50446FFF7D0FF1A
:102B9000034610B10023A3710123184610BD00BFE6
:102BA000F0B583B004460D468379012B4ED14279AE
:102BB00002F0020202F0FF01002A49D08269AA4213
:102BC00048D3002A47D0C6682946FFF779FF034655
:102BD000002840D04DB9206AE16900F0D9FB0346D6
:102BE000002838D00023E3611DE0206AA16801AA13
:102BF00000F0C0FAA8B1206A019990F820704FF651
:102C0000F872164B102F08BF134699420BD200F0F2
:102C1000BFFB30B1206AA1686FF0704200F00CFB7E
:102C200008B9002317E0A561637963F07F0363713E
:102C30002046FFF77DFF034668B12046B54234BF0A
:102C400029463146FFF73CFF034604E0002302E03B
:102C50000B4600E00023184603B0F0BDF8FFFF0F5D
:102C600038B5044615461F4B03EB4113DA7A12F0D0
:102C7000110F02D015F0420F2CD121751A4A12689B
:102C80002261998A0904E1615A8B1143E161D87A82
:102C900010F0180004D1DB69A3610123A3710AE0DD
:102CA000102819D1206A04F1180200F099FA03469D
:102CB000A8B10423A37105F00F0363710023A3607F
:102CC000E36015F0400F09D020461946FFF768FF72
:102CD000034604E0002302E0002300E0012318463D
:102CE00038BD00BF1C7300206487FF1F2DE9F04F23
:102CF00085B005460C469A468679002E7FD110464F
:102D000001A9FFF779FD00287BD0236A2B620027F9
:102D1000A760E760DFF8FC904FF0010825E0C1F301
:102D2000431B2046FFF7AEFE014600286AD0037819
:102D30000BB1E52B09D12FB985F814B0D9F80030C3
:102D40002B6147460B7883B913E001A80B2204F0EE
:102D50008DFB50B90AF03003302B53D0284659462A
:102D60005246FFF77DFF06464CE0E168A3699942B1
:102D7000D5D30AF01203122B44D137B128460121D2
:102D8000FFF712FD044660B93CE0A379022B39D06D
:102D90002046FFF7E3FC0646002833D000232B75BE
:102DA0001A4C20460021202204F094FB01AB03CBF7
:102DB000206061601A889B782281A372144B1B6883
:102DC0002BB104F1100004F10E01984707E0212314
:102DD0002374282363740023A3730823E373238AD3
:102DE00063822383E389E38200F054F9064648B105
:102DF0002846297D5246FFF733FF064602E00026AB
:102E000000E00646304605B0BDE8F08F1C73002098
:102E1000107300206487FF1F10B504460021FFF7E0
:102E2000BFFE034668B120460121FFF7BDFC38B163
:102E3000E52202700023A37100F02CF9034600E0A4
:102E40000023184610BD00BF10B58AB004460A46DC
:102E500000238DF80830094901918DF80A3001A846
:102E600021460223FFF742FF034618B101A8FFF7EE
:102E7000D3FF034618460AB010BD00BF487C0000CF
:102E80002DE9F04F85B00446884601928379012BE5
:102E900040F0BE80437913F0020F00F0B98013F0C8
:102EA000040F08D08169C3688B4204D0FFF708FE85
:102EB000002800F0AD80019A002A00F08C801646B0
:102EC000DFF8B0A1DFF8B0B1206AE76890F80490AD
:102ED00009F1FF3909EA5729C7F3080719F0FF0973
:102EE00029D1002F40F0AA80A16851B9E36933B914
:102EF0002046FFF71BFC002840F08E8088E0A3608E
:102F00008AE003AA00F036F9002800F0A880039BAD
:102F1000226A92F820004FF6F871524A102808BF32
:102F20000A46934205D32046FFF700FC002873D1E0
:102F30006EE0A36070E0C7F50075ADB2AE4238BF79
:102F40003546A368023B027C93404269134499448E
:102F5000B5F5007F12D1DBF800304B4504BF4FF0D0
:102F6000FF33CBF80030404B186849464246FFF724
:102F70009BFB00284CD008F5007824E07FB9E2687C
:102F8000A3699A420BD300F085F8002840D0CBF813
:102F90000090364A137843F00103137005E0484669
:102FA000012100F0A3F8002832D057447819874255
:102FB00009D03B46424612F8011B03F8011B83422D
:102FC000F9D1C71BB844761BB6B2E3681D44E5606F
:102FD000002E7FF479AFE368A269934205D9A3611B
:102FE000637963F07F03637108E0214B1B682BB1A9
:102FF000019B1BB1637963F07F036371637913F005
:10300000080F03D02046FFF793FD08B1019826E092
:1030100001232371002022E0B6F5007F34BF35463E
:103020004FF40075236AA268023A197C02FA01F98A
:103030005B699944B5F5007FA1D18CE7C7F50075B0
:10304000ADB2AE4238BF3546A368023B027C03FAFC
:1030500002F943699944B5F5007FA0D17BE705B03B
:10306000BDE8F08FF8FFFF0F187300201C750020DB
:10307000107300201C7300206487FF1F00B583B00D
:1030800002AB03F8011D19460122FFF7F9FE03B058
:103090005DF804FB08B5104B1B78D3B10F4B1868D3
:1030A0000F4B19680F4AFFF7FFFA034690B10E4B1A
:1030B000196849B1094B18680A4AFFF7F5FA03463F
:1030C00040B10022084B1A600022034B1A70012302
:1030D00000E00123184608BD1C750020187300206D
:1030E0006487FF1F1C7300201473002038B504464A
:1030F0000D460C4B1B6883420DD0FFF7CBFF0346F8
:1031000070B1094B18682146084AFFF79DFA03463B
:1031100030B1044B1C60064B1A7815431D70012317
:10312000184638BD6487FF1F187300201C730020E9
:103130001C75002010B50446FFF7ACFF034680B1B4
:1031400009494B1E01F2FF11002203F8012F8B42A7
:10315000FBD1064B1C60064B1A7842F001021A7034
:103160000123184610BD00BF1C7300206487FF1F99
:103170001C75002070B504460D461646C368013321
:103180008B4225D3C36990F82020102A0CBF080A6F
:10319000C8091844104B1B68984204D00021FFF75F
:1031A000A5FF0346A8B194F82030102B06D1EDB24C
:1031B0000A4B33F81530336001230AE005F07F0530
:1031C000064B53F8253023F070433360012300E0B1
:1031D0000023184670BD00BF6487FF1F1C730020CA
:1031E0002DE9F04383B0044602AE46F8041D914633
:1031F00000254FF400780F4F204601993246FFF723
:10320000B9FF034688B1237C08FA03F31D4494F800
:1032100020104FF6F873102914BF39461946019B48
:103220008B42E9D3C9F800500123184603B0BDE82A
:10323000F08300BFF8FFFF0FF8B504460D461746B0
:10324000012931D9C368013399422FD8C36990F855
:103250002020102A0CBF0E0ACE091E44164B1B68F4
:103260009E4205D030460021FFF740FF034600B3E1
:1032700094F82030102B04D1EDB2104B23F81570C8
:1032800004E005F07F050D4B43F825700C4B1A78D0
:1032900042F001021A70237E012B09D9A3681E4453
:1032A000084B1E60012304E0002302E0002300E03D
:1032B00001231846F8BD00BF6487FF1F1C73002060
:1032C0001C750020147300202DE9F04F85B00646D0
:1032D0008A46009217681FB101370023019305E069
:1032E0000768012914BF002301230193F36803F148
:1032F0000108DBB13C4600254FF00209CB46A04552
:103300003CBF4C465F463046214603AAFFF732FFDA
:1033100060B1039B0BB1671C03E0631CDB1B5345CF
:1033200006D001350134F368AB42E8D800232AE027
:10333000304621466FF07042FFF77EFF034648B9E2
:1033400021E0651E304629462246FFF775FF0346F9
:1033500018B918E0BC42F4D803E0BD4201D92C46AC
:10336000EFE7009B196829B130463A46FFF764FF42
:10337000034640B1009B1F60019B1BB101373760C2
:10338000012300E00123184605B0BDE8F08F00BF1F
:10339000F0B583B005460C460223036000260E4FAD
:1033A0002846214601AAFFF7E5FE80B128462146BE
:1033B0003246FFF741FF50B1019C95F820104FF6BF
:1033C000F873102918BF3B469C42E9D301E0002066
:1033D00000E0012003B0F0BDF8FFFF0FF8B505468F
:1033E000494B19601446DAB1042A7FD800200146FF
:1033F000FFF77CFE0346002800F08380434B03EB7D
:10340000041494F8AE3104F5D47413F07F036FD133
:10341000D4F81210632974D9D4F80E400CB970E0B6
:10342000002420460021FFF761FE0346002868D0F3
:10343000364BB3F80B30B3F5007F5BD1334B1B7CBD
:10344000002B5ED0314AD289002A55D02F4A517BB9
:10345000002953D02B76297100232B74012003E01F
:103460005A1C2A74072B4BD82B7C1E4600FA03F2F9
:103470009142F5D1254BD98A01B9596AA960234BEC
:10348000DA892244EA61B3F8110087B268841B7CB0
:1034900003FB01236B627A0102F2FF1203EB62234A
:1034A0006B611A4AB2F813200AB9184A126AE31A71
:1034B000134423FA06F6EE6040F6F4739E4204D8F5
:1034C0000C2385F8203001231BE04FF6F4739E4255
:1034D00004D8102385F82030012312E00B4BDB6A5F
:1034E0006B62202385F8203001230AE0002308E0E6
:1034F000002306E0002304E0002302E00B4600E086
:1035000000231846F8BD00BF187300201C7300206C
:10351000184B1A6842F480521A60174B174A1A6007
:10352000174ADA6002F180421A61164A1A60164B95
:103530001B7813F0010F07BF4FF41072134B4FF4B9
:103540000072134B1A60104B1B7813F0020F4FF4EC
:1035500000720CBF0F4B104B1A600B4B1B7813F013
:10356000040F07BF4FF410720C4B4FF400720C4B5A
:103570001A6070473C80044000C0024001401F00B8
:103580000110003800001F805476002018B004405D
:1035900008C004401CB004400CC0044014B00440F7
:1035A00004C0044030B4394A3949136813F0800F1D
:1035B000FBD10B6813F0800FF7D172B6354B1B7837
:1035C000002B5FD0344B1C6804331D68043318682B
:1035D0000433196804331A6804331B682C442044EC
:1035E00001440A441A44C2F34E0242F400422B4BF7
:1035F0001A602C331C6804331D68043318680433C4
:10360000196804331A6804331B682C4420440144AD
:103610000A441A44C2F34E0242F40042204B1A609C
:1036200003F108131C6804331D680433186804335D
:10363000196804331A6804331B682C44204401447D
:103640000A441A44C2F34E0242F40042154B1A6077
:103650002C331C6804331D6804331868043319685C
:1036600004331A6804331B682C44204401440A4480
:103670001A44C2F34E0242F400420B4B1A6000227D
:10368000044B1A7062B630BC704700BF24B00340D0
:1036900024B00B403A75002038B003402CB00340F2
:1036A00030B003402CB00B4030B00B4060223A4B9E
:1036B0001A70E12201331A70384B1B78082B10D195
:1036C000212203F1804303F56C331A60132334493C
:1036D0000B6001F5FF2101F2FC710A60314A1360B1
:1036E0001FE00A2B0DD139222F4B1A6013232C49CE
:1036F0000B6001F5FF2101F2FC710A60294A136099
:103700000FE00C2B0CBF35225D22274B1A601223D1
:1037100023490B6001F5FF2101F2FC710A60214A87
:103720001360224B1B7833B10123214A136002F549
:103730000022136005E000231D4A136002F50022F9
:1037400013601C4B1B78012B06D880231A4A136088
:1037500002F5002213601AE0042B06D88423164ACF
:10376000136002F50022136011E0082B06D88523B0
:10377000114A136002F50022136008E0102B94BF79
:10378000862387230C4A136002F50022136001226E
:103790000A4B1A70704700BF004007406887FF1F40
:1037A0000CB003400CB00B4008B003403D75002046
:1037B00020B003406987FF1F24B003403A75002002
:1037C0002DE9F843282873D83C4B1E5CFF2E72D09D
:1037D0003B4B1B780BB1FFF7E5FE16F0800F29D1AC
:1037E00072B6384C384D4FF0010726602F7062B624
:1037F00072B6236813F0800F04D12B7813F0FF0FFB
:103800000FD1F2E7314B186800222F4B1A7062B6C5
:103810002F4B1B781841BDE8F8832B7813F0FF0F6E
:10382000E3D062B601F062FB72B6236813F0800F3A
:10383000F3D0E7E772B606F040095FFA89F9254F41
:10384000254C06F03F06254D4FF00108B9F1000F59
:1038500004D03B6823F010033B6003E03B6843F077
:1038600010033B60266085F8008062B672B623685C
:1038700013F0800F04D12B7813F0FF0F0FD1E5E781
:10388000174B18680022154B1A7062B6104B1B7844
:103890001841BDE8F8832B7813F0FF0FD6D062B63D
:1038A00001F024FB72B6236813F0800FF3D0E7E732
:1038B0000020BDE8F8830020BDE8F883607C0000AC
:1038C0003A75002000B003403C75002010B0034062
:1038D000397500200CB00B4000B00B403B75002048
:1038E00010B00B40094B1A6842F480521A60084B22
:1038F0001B781BB18022074B1A7002E0C022054BD7
:103900001A7080F30C00044B188070472C80044020
:103910003D75002021C00C4000C00C40024A1378C5
:1039200013F0010FFBD070470100024010B584B0C6
:103930001B4B6C46186859689A68DB680FC4194BB2
:103940001B7813F0020F23D0174B1B7813F0700372
:103950001CBF154A13708022144B1A700022033BBF
:103960001A70332207331A700322013B1A7072B6A1
:103970006B4643F001030C4C2046984762B623780F
:1039800013F0700304D0237008E0013B02D105E07E
:10399000074B04490A7812F0010FF6D004B010BDAD
:1039A0008C7C000001000240000002400700024041
:1039B000410D030010B50446B0F5006F0BD2074B64
:1039C0001B7813F0010F01D1FFF7B0FF04F1A054F1
:1039D0002078C0B210BD002010BD00BF0100024021
:1039E00038B504460D46B0F5006F16D20B4B1B7868
:1039F00013F0010F01D1FFF799FF04F1A0542378D0
:103A0000DBB2AB4209D0064B1B7813F070031CBF2E
:103A1000034A13702570FFF781FF38BD0100024093
:103A200000000240024B1A6801321A60704700BF62
:103A30004075002008B50D4C236813F4802F01D089
:103A400000F03CFB236813F4806F01D001F096FD79
:103A5000236813F4006F01D002F042F9236813F4D5
:103A6000805FE9D002F0FAFBE6E700BF3480044053
:103A700008B5FFF7DFFF00BF1022014B1A80704727
:103A800000200540704700BF024A136818441060C8
:103A9000184670476C87FF1FEFF31383ABB9EFF342
:103AA0001083ABB9EFF3058323B10F2B05D9094A76
:103AB000985C03E04FF4807000E00020EFF3118386
:103AC0003BB1834238BF184670474FF0FF30704714
:103AD00000207047F0E300E0044B00221A60044924
:103AE0000A60044A106010221A60704714D0034024
:103AF00004D0034000D0034021281ED80F4B53F8B8
:103B0000303093F8802212F0FF0F08D019B1012253
:103B100083F880207047012283F800217047074B0B
:103B200003EBC000436821B11A6842F003021A6037
:103B300070471A6822F002021A6070479C7C0000ED
:103B4000212806D8044B53F8303093F80002C0B255
:103B500070470020704700BF9C7C000021283AD8A5
:103B60001D4B03EBC0035B68012919D0042925D044
:103B7000194A52F83020002082F8800219B94FF417
:103B800080721A607047022903D140F203121A6052
:103B9000704703290CBF4FF4817200221A607047EE
:103BA0000D4A52F83020012182F880124FF4A2729F
:103BB0001A601A6822F020021A607047064A52F80A
:103BC0003020012182F880124FF4A2721A601A6824
:103BD00042F020021A6070479C7C000010B5044639
:103BE00028280FD15D4B1B780B2B03D8C3F10C0396
:103BF000994003E00C2B84BF0C3B19410846FFF7AA
:103C000071FE10BD554B1B78012202FA03F000290A
:103C100008DC20460021FFF76FFF20460121FFF757
:103C20009DFF10BD0A46884208D820460121FFF7B3
:103C300063FF20460121FFF791FF10BDE01EC0B2D7
:103C4000012806D84648006800FB011222FA03F357
:103C500010E0202C01D0192C06D14248006800FB4E
:103C6000022222FA03F305E03F48006800FB01123C
:103C700022FA03F3E01E1D2864D8DFE800F0474E67
:103C8000402B63631D246363636363636363633215
:103C9000390F16635C63636363636355334A136070
:103CA00040F24442324B1A6010BD324A136040F277
:103CB0004442314B1A6010BD304A136040F2444216
:103CC0002F4B1A6010BD2F4A136040F244422E4B16
:103CD0001A6010BD2D4A136040F244422C4B1A600A
:103CE00010BD2C4A136040F244422B4B1A6010BDA9
:103CF0002A4A136040F24442294B1A6010BD294AF7
:103D0000136040F24442284B1A6010BD274A1360EA
:103D10004FF45172264B1A6010BD264A13604FF4BF
:103D20005172254B1A6010BD244A13604FF4517232
:103D3000234B1A6010BD234A13604FF45172224B7B
:103D40001A6010BD20467F29D4BF00210121FFF752
:103D5000D3FE20460121FFF701FF10BD7087FF1F32
:103D60000890034008800B40088003401080034007
:103D700004B004401880034008B004402080034091
:103D80000CB004402880034010B004403080034051
:103D900010C004403880034014C0044040800340F9
:103DA00018C00440488003401CC0044010900340E9
:103DB00030900440189003403490044010800B4031
:103DC00048A0044018800B404CA0044072B60C4B35
:103DD0001B680C4A12680C49096862B611F0806FC2
:103DE00002D0322B88BF0132C3F5EA33BF33074913
:103DF000A1FB03039B094FF47A7000FB023070476C
:103E000018E000E04075002004ED00E08988888813
:103E100038B50546FFF7DAFF044625B938BD013D40
:103E20000AD004F57A74FFF7D1FF001BB0F57A7F52
:103E3000F5D201F05BF8F6E738BD00BF10B5264BB0
:103E40004FF400021A604FF080721A604FF0007257
:103E50001A604FF080621A604FF000621A60002012
:103E60001E4B18604EF6FF710433196028231C4A5C
:103E7000136008321360083213600832136008328E
:103E8000136008321360083213600832136009228D
:103E9000144C226004F58054043420600434216002
:103EA0000434236008342360143C226004F5FE24AB
:103EB000043420600C4801600C490B6008310B6031
:103EC0000B4B1A60FFF7F2FB4FF4C870FFF7A0FF2F
:103ED00000F074FC10BD00BF08E100E00480034066
:103EE0000C8003400080034008800B400C800B4096
:103EF00000800B4030B40E4B1B7843F002020D4C97
:103F000004EBC20460600C48007800280CBF8824D1
:103F1000C82444EA0141074D45F8321080F0010001
:103F2000054A107083F00103014A137030BC7047DA
:103F3000AC7500200080FF1F2576002010B4431EC2
:103F4000032B11D872B60A4A52F8230050B14268C6
:103F5000074941F82320074A32F813400188611AC3
:103F600022F8131062B600E000205DF8044B7047A1
:103F70009C75002060780020013803280DD872B6A7
:103F8000074B53F820302BB1002001305B68002B29
:103F9000FBD100E0002062B670470020704700BFF0
:103FA000F075002038B572B601231B491B4C5A1816
:103FB00012F8012C12F0080F24D09A0054F8325055
:103FC0006DB9164B03EBC20108304860144943F841
:103FD0003210144B1A78013A1A7062B638BD42F0AA
:103FE000010254F832506DB90C4B03EBC20108309A
:103FF00048600D4943F832100A4B1A78013A1A709A
:1040000062B638BD0133052BD1D162B60022054B13
:104010001A7000F037FC38BDD87D00000080FF1F0B
:10402000880040001A760020C800400010B4431EEB
:10403000032B37D8400140F010001C4A104472B6E0
:104040001B4AD25C032A09D8DFE802F019021B05DB
:104050000830022216E00830042213E0154A52F814
:1040600023201AB9134A42F8231003E0124A52F8E7
:1040700023205160104A42F8231062B612E0032256
:1040800000E005220A4CE25401F10803436000F00D
:104090000803002B0CBF8823C8230A8843EA024385
:1040A000036062B65DF8044B704700BF0080FF1FDD
:1040B00058750020F0750020007600202DE9F84F9B
:1040C000A34CDFF8E092DFF8E0A2DFF8E0B2257859
:1040D000EDB215F0040F1DD09E4B1B7813F0FF0FAF
:1040E00016D09D4B1B7803F0FF022BB1531EDBB2A1
:1040F000994A137003B900BE984B1B7803F0FF0276
:1041000033B1531EDBB2954A13700BB900F018FDA2
:104110000423237015F0080F00F0E48299F80030B2
:10412000DBB21D0940F021828D4D9E0805EBC603D0
:104130005A6855F83630C3F38303013B0C2B00F269
:104140001082DFE813F0CB01CB010E020E020E024B
:104150000E020E020E02E8010E020E020E020D0009
:10416000804913680B6052684A607F4A45F83620E0
:1041700000227E490A607A490A618A6101217C4AEB
:1041800011709BB240F28162934218D8B3F5D06FA0
:104190002ED2B3F5817F00F01E8106D8802B00F06F
:1041A000C980822B00F0CC8066E140F2023293425B
:1041B00000F02681B3F5A06F00F062815CE142F26D
:1041C0002102934200F0868107D8B3F5086F00F012
:1041D000AB80B3F5106F11D04EE142F22122934231
:1041E00000F0418142F22132934200F0498143E1E3
:1041F000604B5D68002D40F0188130E1594B9A7892
:10420000544B1A70564D05F180062B6A13F0800F3F
:1042100003D0686A083800F035FB0835B542F4D1A0
:10422000DFF88C8100263746534AB05828B14568DC
:1042300000F028FB0DB12846F9E700234E497350E2
:104240004E4AB3504E4BF05828B1456800F01AFB67
:104250000DB12846F9E7002349497350494AB35044
:1042600028F8023F484BFB5C023B032B0AD8DFE8EF
:1042700003F0020602060022434BDA5502E0012257
:10428000414BDA5501370436102ECDD100223F4B79
:104290001A7001253E4EDFF81C81314F05EB0803F3
:1042A00013F8013C06F8043B13F0080F2DD000F082
:1042B000C9FA48B1A90007EB451200F108035360A1
:1042C000344A47F8312007E0AB00002247F833209A
:1042D0002E4B1A7801321A7000F0B4FA58B1AB00C4
:1042E00043F0010307EBC30100F108024A601E4AD4
:1042F00047F8332009E0AB0043F00103002247F800
:104300003320224B1A7801321A70AA0042F00201BF
:10431000002347F8313042F0030247F832300135CC
:104320001D4B9E42BAD11EE20A4B1B781B4D2B70CF
:104330000127AAE0194D00232B706B700227A4E01F
:10434000084B9B88042B37D90F22154B1A70C1E0FC
:104350008020074024760020AD75002026760020BE
:104360000080FF1F10760020C80040004475002028
:1043700025760020DC7D00009C750020487500201B
:10438000F075002000760020587500201A76002075
:10439000C420074088004000D42007401C7600203D
:1043A000C0200740902007409420074098200740F5
:1043B0005E780020D87D0000A04A00211170517065
:1043C0009F4A12F8233013F0020F5CD09B4D01235B
:1043D0002B70022759E09B4B9B8803F07F03042B33
:1043E00002DC984A52881AB10F22954B1A7071E07C
:1043F000934A12F8231021F0020102F82310B2E1CF
:10440000904B9B8803F07F03042B02DC8D4A52887B
:104410001AB10F228A4B1A705CE0894A12F82310F5
:1044200041F0020102F823109DE1864B5E889F88CF
:10443000854BA3F10C02114633F80C0CB04209D1A4
:1044400033F80A0CB84205D1360A032E0CBF2F7878
:1044500017891AE00D690C330C32002DEBD10F22B5
:10446000774B1A7036E0794B1A68794B1A60754BA6
:104470009A78784B1A7076E10F22714B1A7029E006
:1044800000273D4601E002276C4D6E4BDB889F42C2
:1044900028BF1F46402F34BF3E464026284631469F
:1044A000FFF728FD3544BF1B03D13F2E00F260818A
:1044B00010E0402F34BF3E46402628463146FFF7E5
:1044C00019FD3544BF1B01D13F2E03D9624B1D603E
:1044D000624B1F8001238AF8003042E0594B198853
:1044E00042F22103994212D15D4BD81D12F8011BF3
:1044F00003F8011F8342F9D15A4B1B68862B02D166
:104500000F22594B1A7000200146FFF7F3FC574B5E
:1045100045F8363025E0504B1E68BEB14F4FB7F816
:104520000080B8F1400F34BF45464025304629464B
:10453000FFF7E0FCC5EB08039BB23B800BB9402DB5
:1045400001D1354400E00025434B1D603D4B1B88E5
:10455000B3F5A06F05D13B4B00225A709B788BF8C6
:10456000003001238AF80030B9E0414E9F0806EB85
:10457000C708D8F80420A2F10800013DEDB213F0FD
:10458000080F47D000F07EF93A4B53F825304BB373
:104590005A68384941F8252003F10802C8F8042078
:1045A000354A525D032A12D8DFE802F002060A0EED
:1045B0000321314A51550AE002212F4A515506E0A4
:1045C00005212D4A515502E004212B4A515518F07E
:1045D000080F0CBF8822C8221B8842EA034346F812
:1045E00037307CE0244B5B5D032B0BD8DFE803F016
:1045F000777702060022204B5A5570E001221E4BAD
:104600005A556CE018F0080F0CBF022203221A4B17
:104610005A5564E056F837301B0C22F8083C002B42
:1046200055D0002322F8063C42F8043C134B53F8C3
:1046300025302BBB114B43F8250025E01C760020CC
:10464000C020074010760020E87D00004075002063
:104650007078002034760020447500201876002001
:104660006778002068780020AD750020C800400001
:104670000080FF1FF0750020587500209C750020F9
:104680003F4B53F8253058603D4B43F825003D4BD8
:1046900033F8151032F8082C0A4423F8152000F0DE
:1046A000D1F860B100F10803C8F8043018F0080F21
:1046B000354B364A08BF134646F837300FE0002323
:1046C00046F83730324B1A7801321A7007E018F08A
:1046D000080F2D4B2D4A08BF134646F837300823E4
:1046E0002370F4E415F0010F22D02A4902230B7045
:1046F0000022294B1A70294B24481860284C5C6012
:1047000098602848D8601A619A610D20264B18706D
:10471000FF23264803700838037018300270244ABB
:1047200013709F22234B1A7001230B70BDE8F88F82
:1047300015F0800F05D00D221B4B1A708022403BD4
:104740001A7015F0020F06D0184B1A78D2B21A70F0
:104750000222083B1A7015F0100F0ED01022164BD3
:104760001A70BDE8F88F00200146FFF7C3FBB1E6E1
:1047700028460021FFF7BEFBACE6BDE8F88F00BF7E
:104780004875002060780020C80040008800400084
:104790001A76002094200740AC7500200080FF1F8F
:1047A0005C750020B0750020C020074088200740BD
:1047B0008C200740842007408020074008B501F086
:1047C000C1FD00231B491A465A50C81842600833DD
:1047D000882BF9D1184B1A6842F480221A60154BC5
:1047E000C3F30721154A1170C3F307411432117046
:1047F0001B0E04321370FF23343A13700832137007
:10480000783A137001238432137000216C321170D6
:104810007C3A137070220A4B1A704FF40072A3F2A4
:1048200041331A60102203F1C04303F5C8231A7004
:1048300008BD00BF0080FF1F348004409C2007405B
:1048400049E400E072B60D4B1A68B2FA82F30B2B02
:1048500002D962B6002070474FF00041D94022EAE9
:10486000010206490A6062B6054903EBC303DB0097
:10487000C8180022CA504260704700BF7487FF1FEB
:104880000084FF1F08B50F4BC31A0F4AA2FB031386
:104890001B090B2B14D80D4A12783AB10C4A127826
:1048A00012F0FF0F02D0FFF77DFB08BD72B6094A78
:1048B0004FF0004121FA03F311681943116062B609
:1048C00008BD00BF0084FF1F398EE3381A76002030
:1048D000247600207487FF1F10B5134B1B6853B953
:1048E000124B1B7813F0FF0F18D00320FFF726FBA5
:1048F0000D4B1860A8B10C4B186843885A1C034430
:104900001C7A03889A4206D3FFF7BCFF0022064BAD
:104910001A60204610BD4280204610BD4FF0FF3087
:1049200010BD4FF0FF3010BD3076002024760020FF
:1049300008B50D4B1B6883B90C4B1B7813F0FF0FA8
:1049400008D00320FFF7FAFA074B186028B94FF098
:10495000FF3008BD4FF0FF3008BD034B1B685A887D
:104960001344187A08BD00BF30760020247600205A
:10497000044B9888044B1B681BB11A885B88D31AB8
:1049800018447047607800203076002010B50B4B3B
:104990001B7813F0FF0F0FD0094B186820B1FFF7F9
:1049A00071FF0022064B1A6003242046FFF7C6FA67
:1049B00010B1FFF767FFF8E710BD00BF24760020B5
:1049C000307600202DE9F84F04460122384B1A704A
:1049D0008B46002965D00E46DFF8E080DFF8E090D6
:1049E0009A46344FD8F8003083BB99F8003013F062
:1049F000FF0F06D100222E4B1A704FF0FF30BDE89A
:104A0000F88F4DF2E9050420FFF7B6FA07280AD817
:104A100001238AF80030FFF715FFC8F80000A8B995
:104A200000238AF80030013D01D03B7833B10122E8
:104A3000204B1A704FF0FF30BDE8F88F00F056FAA7
:104A400099F8003013F0FF0FDDD1D3E700233B705E
:104A5000D8F800104A88C2F14005AE4238BF35464A
:104A600002F108030B442A444A80761B3DB12544D9
:104A700014F8012B03F8012BAC42F9D100E02546D4
:104A80004B883F2B07D940230B800420FFF7CEFA39
:104A90000023C8F800300522074B1A700EB12C46CF
:104AA000A0E70022024B1A705846BDE8F88F00BFFD
:104AB000277600202C7600202676002028760020FD
:104AC0002476002000B583B002AB03F8010D184630
:104AD0000121FFF777FF03B05DF804FB10B5144B1D
:104AE0001B7813F0FF0F21D00122124B1A70124BCA
:104AF000196851B10024114B1C704B880B800420A5
:104B0000FFF794FA0C4B1C600DE0FFF79BFE01468B
:104B100030B10022094B1A700420FFF787FA02E037
:104B20000122064B1A700022024B1A7010BD00BF02
:104B30002476002027760020287600202676002084
:104B400008B50E4B1B7813F0FF0F16D10C4B1968EC
:104B500041B14B880B800420FFF768FA0022084B14
:104B60001A6008BDFFF76EFE014618B10420FFF77A
:104B70005DFA08BD0122034B1A7008BD277600209C
:104B80002876002026760020F8B506460F46144603
:104B900052B1002533681B68304617F8011B98474F
:104BA0000544013CF6D100E000252846F8BD00BFD1
:104BB00000B583B0054B1B88ADF8043003685B6813
:104BC00001A90222984703B05DF804FBAC7D000008
:104BD00010B5044601F02CFE204610BD10B5234B45
:104BE0001B6883B1224A1268012182F88010013BC0
:104BF00013F1050F02D01D4A136010BD6FF00202C1
:104C00001A4B1A6010BD1A4B1B6801221A70194BFF
:104C10001B681BB3184B1C682046002102F004F9E6
:104C2000A8B92046154902F013F980B92046144965
:104C300001F052FF4FF07C5101F044FE02F012F9F6
:104C40000246232803D90F480F4901F0A7FD094B5D
:104C50001A6806490A6000221A6010BD094801F06E
:104C6000E7FDFF22094B1A7010BD00BF48760020F7
:104C700040760020447600204C7600208988884CBD
:104C80000000704238760020DD4B00007887FF1F5F
:104C900070B5044621286AD842B102FB01F6344BB4
:104CA000A3FB0626B6097600013601E06FF0020686
:104CB000084601F0B9FE01462E4801F0C1FF054645
:104CC0002D4B03EBC403596872B62C4B1B789C42E6
:104CD00016D12B4B196802F093F838B1294B1A689A
:104CE00002F00102013A16441E603FE0244B1D60B1
:104CF000254B1E60234B1A6802F001021A6035E052
:104D0000212B03D8214B1B6801221A701B4B1C70EE
:104D1000194B53F8343003F580701C4A106001229F
:104D200083F8002183F880224FF4A2730B60154BA7
:104D30001E60134B1D602846002102F075F8A8B9CB
:104D40002846134902F084F880B92846114901F039
:104D5000C3FE4FF07C5101F0B5FD02F083F802462E
:104D6000232803D90C480D4901F018FD62B670BD27
:104D7000D34D62100024F4489C7C00007887FF1F0C
:104D80004C760020487600204476002040760020B3
:104D90008988884C0000704238760020DD4B000086
:104DA00008B521280FD872B6074B1B78834209D16A
:104DB000064801F03DFD064B1B6801221A70FF22D8
:104DC000014B1A7062B608BD7887FF1F3876002045
:104DD0004076002008B50548002303608023037156
:104DE0000349044A02F05EF808BD00BF387600208F
:104DF000D14B00006087FF1F08B1014A1060704767
:104E00005076002010B4124B1968D9B1114C81FBB7
:104E10000423CA18CB17C3EB22420F4800FB12121F
:104E200084FB01042144C3EB21430C4800FB03F342
:104E300044F2A71000FB0230002804DA00F1004021
:104E4000013800E00648024B18605DF8044B7047DB
:104E5000507600205F0B4E831DF30100ECF4FFFF42
:104E600042CE0C1F10B5044630B1FFF7CBFFB0FBAC
:104E7000F4F303FB140010BD002010BD08B5FBF7D0
:104E8000D1FDFBF749FF00F031F8FAE708B5FFF76D
:104E90006FFD08BD08B5FFF71FFD08BD08B5FFF79A
:104EA00047FD08BD08B5FFF719FE08BD08B5FFF7B7
:104EB0006DFD08BD08B50846FFF704FE08BD00BF3C
:104EC00008B508461146FFF77DFD08BD704700BFD5
:104ED000044B00221A714FF47A7199601A73024AD6
:104EE0001A60704758760020B87D000008B50F4B57
:104EF0001B78CBB901220D4B1A70FFF739FD08B1B1
:104F0000FFF7E4FF00F0B0FA08B101F0F1FA00F0A9
:104F10005DFE08B101F08EFB01F02AF908B101F045
:104F20002BFC0022014B1A7008BD00BF68760020E0
:104F300030B40023B0FBF2F402FB14041D46092C2C
:104F400094BF30343734E4B2CC54B0FBF2F008B143
:104F50000133EFE70D4400226A70934207DD885C5D
:104F6000CC5C8C54C8540132013B9A42F7DB0846B2
:104F700030BC7047254B1A6842F480621A600023E7
:104F8000234A1370234A1370234A1370234A137061
:104F9000234A1370234B1B7813B1152B05D008E05F
:104FA00040F21332204B1A6003E040F213321F4BE1
:104FB0001A601F4B1B78012B02D0052B05D008E08F
:104FC0004FF451721B4B1A6003E04FF451721A4BAD
:104FD0001A60C0F34432194B1A70C0F347125A706A
:104FE00000F01F00987204229A700221D9745A7539
:104FF00088221A743C22DA704022114B1A704FF446
:105000000052A3F229331A60704700BF3480044075
:10501000F87600207176002000770020F9760020D5
:1050200070760020B476002040A0044018C00440F0
:105030007987FF1F44A004401CC0044000A0064024
:105040002DE400E0164B9B7803F0EC0300F0030224
:10505000134310F0040F18BF43F01003104A93706D
:1050600000F00F03042B04D11346927942F0400262
:105070009A710B4B5A7902F0EF0210F0100F18BF23
:1050800042F01002064B5A719B7903F0EF0310F0C7
:10509000200F18BF43F01003014A9371704700BFFF
:1050A00000A0064010B5144B1B6813F4806F21D08C
:1050B000124B1B7813F0FF0F06D0104CFFF716FFB2
:1050C000237813F0FF0FF9D14FF400520C4B1A6004
:1050D00000230C4AD37040F203120B490A600431DA
:1050E0000A600A4A13700A4A13700A4B1B680BB114
:1050F00001221A7010BD00BF348004407076002079
:1051000084E100E000A0064040A00440F8760020C2
:10511000717600206C76002010B50446094A137899
:1051200013F0FF0FFBD120460121FEF717FD2046AB
:105130000021FEF7E1FC044B53F83420034B1A60C6
:1051400010BD00BF707600209C7C0000FC76002023
:1051500010B40C4609B140F08000184B1B789842FF
:1051600028D0174A126812F4806F21D003F07F0311
:10517000012B02D0052B04D006E00022114B1A604F
:1051800002E00022104B1A60002C0CBF4422602267
:1051900000F07F03012B02D0052B05D008E042F47C
:1051A0004072084B1A6003E042F44072064B1A60EA
:1051B000024B18705DF8044B704700BF7987FF1FE2
:1051C0003480044044A004401CC00440114B1B78B0
:1051D00098421ED0104A126812F4806F17D013B193
:1051E000152B04D006E000220C4B1A6002E00022CE
:1051F0000B4B1A6010B1152805D008E040F21332AD
:10520000064B1A6003E040F21332054B1A60014B63
:1052100018707047B47600203480044040A00440E9
:1052200018C0044010B50D4B1B6813F4806F12D0EA
:1052300021280CD80A4C0B4B53F830302360012145
:10524000FEF78CFC236800221A70012010BD00209C
:10525000034B186010BD002010BD00BF3480044017
:105260006C7600209C7C0000114B1B6813F4806F4F
:105270001BD0122804D140F202320E4B1A600DE00E
:10528000142804D140F202320B4B1A6006E00B4B9B
:105290005A7B02F0FE025A7300207047074B5A7B7C
:1052A00042F001025A73012070470020704700BF8E
:1052B000348004400CA0044014C0044000A0064008
:1052C0002DE9F04107461F4B1B6813F4806F37D060
:1052D0001D4B1B680BB101221A701C4B1C7801344A
:1052E000402C28BF00241A4D1A4EDFF86C8017E0BE
:1052F000FEF7D2FB40280FDC337913F0800F0FD07C
:105300002B780133402B28BF002318F80320D2B29A
:10531000F271DBB22B7003E0FF2801DDFFF7E6FD41
:105320002B78DBB29C42E3D0FFB20B4B1F5501221E
:105330000A4B1A70E4B2054B1C70BC22054BDA70A4
:10534000BDE8F08134800440FC7600200077002026
:10535000F976002000A006407476002070760020C8
:105360002DE9F84F0746284B1B6813F4806F49D08E
:10537000264B1B680BB101221A7007EB010B5F452E
:105380003DD2DFF89890224EDFF88C80DFF890A0B5
:1053900099F800400134402C28BF00243578EDB244
:1053A000A54220D1BC2388F80330FEF775FB4028C6
:1053B00011DC98F8043013F0800F10D033780133EB
:1053C000402B28BF00231AF80320D2B288F8072008
:1053D000DBB2337003E0FF2801DDFFF787FD337890
:1053E000DBB29D42E1D017F8013B0AF804300122FC
:1053F000084B1A70E4B289F800405F45C8D1BC225E
:10540000054BDA70BDE8F88F34800440FC7600204C
:10541000F97600207076002000A00640007700207A
:105420007476002010B5064B1B7813F0FF0F06D0E2
:10543000034CFFF75BFD237813F0FF0FF9D110BD8C
:1054400070760020064B1B78DBB2064A1278D2B287
:1054500093422CBF3F3202F1FF32D01A704700BF97
:1054600000770020F9760020054B1878C0B2054B74
:105470001B78DBB2984238BF4030C01A704700BF7B
:10548000F87600207176002010B4184B1A78D2B24A
:10549000174B1B78DBB29A4218D001333F2B18D838
:1054A0001449C85CC0B2DCB211490C7012490968D9
:1054B000C9B19A4203D300E00023D31A01E040327D
:1054C000D31A1A2B0FDC00230B700CE04FF0FF30C7
:1054D00009E0084B1878C0B20021054B1970064B43
:1054E00019680029E8D15DF8044B7047F876002070
:1054F00071760020B87600206C760020094B1A786F
:10550000D2B2094B1B78DBB29A4207D00133402B51
:1055100028BF0023054AD05CC0B270474FF0FF306F
:10552000704700BFF876002071760020B876002022
:105530000D4B1B6813F4806F14D00C4BDA7802F01B
:10554000CB02DA7040225A74DA7842F03402DA7010
:10555000074B1A78D2B2074B1A70074B1B680BB176
:1055600000221A70704700BF3480044000A006403B
:1055700071760020F87600206C76002070B43D4BE8
:105580001B7913F0300F33D072B63A4B9B7D03F08A
:10559000FF022BB9374BDA7940225A7462B627E002
:1055A00062B6354B1978C9B2344B1C78E4B2314D30
:1055B000334EEB79D8B24B1C402B28BF0023A342BB
:1055C0001CBFF0541946531E13F0FF02F1D1CAB2AA
:1055D000294B1A702B4B1B6853B1A1422EBFC4EB51
:1055E0000101C4F1400409192729C4BF01221A701E
:1055F000204BDA78D2B212F0800F27D01B7913F04B
:10560000800F23D0204B1C78E4B2204B1B78DBB2F8
:105610009C4210D017491E4D01E0A3420BD001332C
:10562000402B28BF00230879E85CC0B2C871087D10
:10563000C0B20728F1D9DBB214490B700D4B1B79AE
:1056400013F0800F02D07C210A4BD97012F0400F6A
:105650000ED0084B1B7913F0400F09D000220D4BE0
:105660001A700D4B1B6803B11A703C22014BDA70A3
:1056700070BC704700A00640F876002071760020CC
:10568000B87600206C76002000770020F9760020A4
:105690007476002070760020FC760020254B1A6876
:1056A00042F400621A600023234A1370234A1370E5
:1056B000234A1370234A1370234A1370234B1B7819
:1056C000092B02D01A2B05D008E040F21332204BF0
:1056D0001A6003E040F213321E4B1A601E4B1B7817
:1056E0000A2B02D01F2B05D008E04FF451721B4B40
:1056F0001A6003E04FF45172194B1A60C0F3443240
:10570000184B1A70C0F347125A7000F01F009872BD
:1057100004229A700221D9745A7588221A743C2284
:10572000DA704022104B1A704FF40042A3F22B3370
:105730001A60704734800440747700200977002095
:105740007C77002075770020087700207A87FF1F7C
:105750000CB0044004D004407B87FF1F10B004400D
:1057600000D0044000B006402FE400E0164B9B78C8
:1057700003F0EC0300F00302134310F0040F18BF12
:1057800043F01003104A937000F00F03042B04D170
:105790001346927942F040029A710B4B5A7902F00B
:1057A000EF0210F0100F18BF42F01002064B5A71B2
:1057B0009B7903F0EF0310F0200F18BF43F01003A4
:1057C000014A9371704700BF00B0064010B5224BEC
:1057D0001B6813F4006F3ED0204B1B7813F0FF0FB3
:1057E00006D01E4CFFF782FB237813F0FF0FF9D190
:1057F0004FF400421A4B1A6000221A4BDA701A4B0F
:105800001B78092B02D01A2B05D008E040F20312B6
:10581000164B1A6003E040F20312154B1A60154B49
:105820001B7803F07F030A2B02D01F2B05D008E062
:1058300040F20312104B1A6003E040F203120F4BC8
:105840001A6000230E4A13700E4A13700E4B1B6829
:105850000BB101221A7010BD34800440087700207B
:1058600084E100E000B006407A87FF1F0CB00440DE
:1058700004D004407B87FF1F10B0044000D00440D8
:1058800074770020097700200477002010B50446C3
:10589000094A137813F0FF0FFBD120460121FEF7D0
:1058A0005DF920460021FEF727F9044B53F8342018
:1058B000034B1A6010BD00BF087700209C7C0000DD
:1058C0007877002010B40C4609B140F08000184BE6
:1058D0001B78984228D0174A126812F4006F21D022
:1058E00003F07F030A2B02D01F2B04D006E0002216
:1058F000114B1A6002E00022104B1A60002C0CBF02
:105900004422602200F07F030A2B02D01F2B05D017
:1059100008E042F44072084B1A6003E042F440721F
:10592000064B1A60024B18705DF8044B704700BFBD
:105930007B87FF1F3480044010B0044000D0044037
:10594000124B1B78984220D0114A126812F4006F53
:1059500019D0092B02D01A2B04D006E000220D4BDF
:105960001A6002E000220C4B1A60092802D01A28A3
:1059700005D008E040F21332064B1A6003E040F213
:105980001332054B1A60014B187070477A87FF1F5E
:10599000348004400CB0044004D0044010B50D4BDA
:1059A0001B6813F4006F12D021280CD80A4C0B4B43
:1059B00053F8303023600121FEF7D0F8236800222D
:1059C0001A70012010BD0020034B186010BD00208C
:1059D00010BD00BF34800440047700209C7C000090
:1059E0000D4B1B6813F4006F13D017280AD140F237
:1059F00002320A4B1A600A4B5A7B42F001025A7378
:105A000001207047064B5A7B02F0FE025A730020B9
:105A100070470020704700BF3480044008B0044045
:105A200000B006402DE9F04107461F4B1B6813F4F8
:105A3000006F37D01D4B1B680BB101221A701C4B35
:105A40001C780134282C28BF00241A4D1A4EDFF888
:105A50006C8017E0FEF720F840280FDC337913F054
:105A6000800F0FD02B780133282B28BF002318F884
:105A70000320D2B2F271DBB22B7003E0FF2801DD0C
:105A8000FFF734FA2B78DBB29C42E3D0FFB20B4B2A
:105A90001F5501220A4B1A70E4B2054B1C70BC2240
:105AA000054BDA70BDE8F08134800440787700203F
:105AB0007C7700207577002000B006400C7700202E
:105AC000087700202DE9F84F0746284B1B6813F490
:105AD000006F49D0264B1B680BB101221A7007EBEF
