:1000000000800020BD010000F52E0000B92E000088
:10001000B92E0000B92E0000B92E0000B92E000044
:10002000B92E0000B92E0000B92E0000F52E0000F8
:10003000F52E0000B92E0000F52E0000A92E0000BC
:10004000F52E0000F52E0000F52E0000F52E000024
:10005000F52E0000F52E0000F52E0000F52E000014
:10006000F52E0000F52E0000F52E0000F52E000004
:10007000F52E0000F52E0000F52E0000F52E0000F4
:10008000F52E0000F52E0000F52E0000F52E0000E4
:10009000F52E0000F52E0000F52E0000F52E0000D4
:1000A000F52E0000F52E0000F52E0000F52E0000C4
:1000B000F52E0000F52E0000F52E0000F52E0000B4
:1000C000F52E0000F52E0000F52E0000F52E0000A4
:1000D000F52E0000F52E0000F52E0000F52E000094
:1000E000F52E0000F52E0000F52E0000F52E000084
:1000F000F52E0000A9350000F52E00000D3D000092
:10010000F52E000089420000F52E0000F52E0000BB
:10011000F52E0000F52E0000F52E0000F52E000053
:10012000F52E0000F52E0000F52E0000F52E000043
:10013000F52E0000F52E0000F52E0000F52E000033
:10014000F52E0000F52E0000F52E0000F52E000023
:1001500089480000A1480000B9480000D1480000CB
:10016000F52E00005D200000F52E0000F52E0000A9
:10017000F52E0000F52E0000F52E0000F52E0000F3
:10018000F52E0000F52E0000F52E0000F52E0000E3
:10019000F52E0000F52E0000F52E0000F52E0000D3
:1001A000F52E0000F52E0000F52E0000F52E0000C3
:1001B000F52E0000F52E0000F52E0000574B4CF2F6
:1001C000205210B51A804DF628121A8000BF00BFC9
:1001D00002F094FE524B4FF010621A60514A9A603E
:1001E000514ADA60A3F53043203B1A6812F480725A
:1001F00004D14E490A604FF4A8521A604C4B1A7849
:10020000110703D51A7842F008021A70494B4A4C7C
:100210004A482A221A704A4A00239918A14203D256
:10022000195899500433F8E7464B474900228B424E
:1002300002D243F8042BFAE74448454900235A58B0
:100240001A500433B3F5DE7FF9D1424B424A802184
:1002500003F8011B9342FBD1404B3C4A1A60404BD0
:100260008A221A70A3F5805324225A70A0221A7091
:100270009A799207FCD59A79D406FCD4394A9379B5
:1002800003F00C03082B374BF9D103221A714622D5
:100290005A719A799006FCD5324A9179314B4906C8
:1002A000FBD5314A4FF08271116009215160202243
:1002B0001A709A7902F00C020C2AFAD12B4B2C4AB4
:1002C0001A602C4B2C4A1A6000225A60072243F80D
:1002D000042C2A4AC3F80C2D62B601F07FFD134BA3
:1002E0001B68DA0705D5264801F0C6FB254B264AD0
:1002F0001A60264B1B785B0609D5224C224A2368DC
:10030000934204D11E4801F0B7FB0023236004F0A0
:10031000EFFD02F0F9FD02F06DFDFEE70E20054055
:1003200030800440823F04000100002B14D00340C1
:1003300002D0074000E007406C90FF1FE85C00001F
:100340006087FF1F6C90FF1FB47900200082FF1FA1
:100350000000000000E400E05FE400E008ED00E0E1
:1003600000500640004006404480044004800440A1
:10037000C010050014E000E0BFD401000000202000
:100380009FD156591CE00340A5C3945A00F0074082
:10039000FFFFFFFFFFFFFFFFFFFFFFFFFFFFFFFF6D
:1003A000FFFFFFFFFFFFFFFFFFFFFFFFFFFFFFFF5D
:1003B000FFFFFFFFFFFFFFFFFFFFFFFFFFFFFFFF4D
:1003C000FFFFFFFFFFFFFFFFFFFFFFFFFFFFFFFF3D
:1003D000FFFFFFFFFFFFFFFFFFFFFFFFFFFFFFFF2D
:1003E000FFFFFFFFFFFFFFFFFFFFFFFFFFFFFFFF1D
:1003F000FFFFFFFFFFFFFFFFFFFFFFFFFFFFFFFF0D
:10040000FFFFFFFFFFFFFFFFFFFFFFFFDEF9FFFF23
:1004100010B5054C237833B9044B13B10448AFF33E
:1004200000800123237010BD6C90FF1F00000000AE
:10043000E85C000008B5064B1BB106480649AFF35F
:1004400000800648036813B1054B03B1984708BD07
:1004500000000000E85C00007090FF1F6C90FF1F20
:1004600000000000054B1B68194613F8012B202AD9
:10047000FAD0092AF8D0014B196070475476002051
:10048000F8B504460022174B1A70174E1D46174642
:1004900023782BB33068815C8B4202D10132013466
:1004A000F6E78031994205D013F0800F08BF631C36
:1004B00008D00DE002F1010C60440B4B1860FFF70F
:1004C000D1FFF8BD1C46013394F90020002AF9DA67
:1004D00001342B7801332B70FFF7C4FF3A46D7E77E
:1004E000F8BD00BF667600205476002038B5FFF7CF
:1004F000B9FF134B1A681378A3F13001C9B2092967
:100500001CD80132002041F6981506E0A84204D913
:100510000B4B1C604FF6FF7038BD00EB800003EB07
:100520004000303880B2144612F8013BA3F130018C
:10053000C9B20929EAD9024B1C6038BD002038BD78
:1005400054760020094B1868094B1A6890420CD069
:10055000084B198803888B4203D3704703888B426A
:1005600003D2837818449042F8D170479490FF1FCB
:10057000587600209090FF1F10B4124B1A689378A1
:100580000A2B1BD0033200210C4699420DD0222B9E
:100590000DD0272B0DD069B9A3F16100C0B2192885
:1005A00008D8203B02F8013C04E0214602E019464D
:1005B00000E0194612F8013B0A2BE6D15DF8044B26
:1005C000704700BF5876002008B50146084B1B68ED
:1005D00063B9084B1B78012B06D1074B1868421CE6
:1005E0001A6001F027FA08BD02F03CFA08BD00BF0E
:1005F0009C90FF1F677600205076002008B50A20E7
:10060000FFF7E2FF0D20FFF7DFFF08BD38B5FFF76A
:1006100029FF4A4B1B681A782D2A07D10133474A14
:100620001360FFF7F3FF404280B284E0302A04D128
:100630000133424A136000207DE0A2F13101C9B2CA
:10064000082911D8002013F8012B00EB800002EBE1
:100650004000303880B219461A78303AD2B2092AAE
:10066000F1D9364B196066E0A2F14101C9B21929EE
:100670004CD859784139C9B219290AD902F1004236
:10068000413A2F49096831F8120001332B4A1360AF
:1006900051E02C48FFF7F4FE2B4B1C78052C46D07C
:1006A000264B1B681A78282A41D1244D01332B6030
:1006B00000F0A2F82B681A78292A38D101332B6070
:1006C000042C23D8DFE804F003060B151E001F4B93
:1006D000185C30E000282EDA404280B22BE0C4B231
:1006E0002046002101F00AFA204601F093F880B27A
:1006F00021E0C4B22046002101F000FA204601F0BA
:10070000EFF918E002F06AFB80B214E00B4B1B68B3
:100710001A78282A0BD1094C0133236000F06CF8B9
:1007200023681A78292A02D10133236003E00122C9
:10073000074B1A70002000B238BD00BF547600206D
:10074000687600206C59000066760020A090FF1F9C
:1007500064760020F8B5FFF759FF0546FFF782FEE3
:100760000F4C104F012623681A782A2A07D101332B
:100770002360FFF74BFF00FB05F085B2F3E72F2A5C
:100780000BD101332360FFF741FF20B12DB295FB60
:10079000F0F5ADB2E7E73E70E5E728B2F8BD00BF7F
:1007A000547600206476002038B5124B1B681B7805
:1007B0002D2B05D02B2B05D0FFF7CCFF054602E0F3
:1007C000002500E000250B4C23681A782D2A06D15D
:1007D00001332360FFF7BEFF281A85B2F4E72B2A06
:1007E00006D101332360FFF7B5FF284485B2EBE75C
:1007F00028B238BD5476002010B5FFF7D5FF044667
:10080000204B1B78002B37D11F48FFF739FE1F4BB9
:100810001B78072B31D0062B31D8DFE803F0040B0F
:1008200011181F260B00FFF7BFFF8442B4BF002042
:10083000012025E0FFF7B8FF201A18BF01201FE0B4
:10084000FFF7B2FF8442D4BF0020012018E0FFF779
:10085000ABFF844214BF0020012011E0FFF7A4FF8A
:100860008442CCBF002001200AE0FFF79DFF8442B4
:10087000ACBF0020012003E002E0204600E00020A1
:1008800000B210BD647600206C580000667600202F
:1008900070B5051E03DA6D422D20FFF795FE124B51
:1008A0001A680024114E511E86FB0530EB17C3EB6E
:1008B000A00303EB8300A5EB4005303502F8015C93
:1008C0001D460134002B01DD0A46ECE7064B19609A
:1008D000002C08DD1D462B6813F8010B2B60FFF779
:1008E00073FE013CF7D170BD6076002067666666D6
:1008F00010B50446007828B1FFF766FE14F8010F22
:100900000028F9D110BD00BF08B5FFF7F1FFFFF7D0
:1009100075FE08BD70B5FFF757FE294B1A68023205
:10092000284B1A60284D294E1C462B78012B02D0EB
:10093000022B0ED006E03068431C336001F064F8EF
:1009400038B115E001F0E4FF0028FBD001F094FF7E
:100950000EE000231C4A13701D4A13601D4B1B68D8
:1009600073B100221B4B1A6001221B4B1A6007E077
:10097000C3B20A2B04D00D2B02D0082B07D011E0F4
:10098000FFF73CFE0F4B1B680A221A7070BD2368EC
:100990000B4A12689342C8D0013B23600F48FFF70F
:1009A000B3FFC2E723680E4A1268023A93420FBFB0
:1009B0000820C0B203F8010B2360FFF705FEB4E77F
:1009C000587600205476002065760020507600206E
:1009D0009C90FF1F8890FF1F6C76002094580000A9
:1009E0006876002010B50E4C236833F8030B2360A3
:1009F000FFF74EFF2020FFF7E7FD226810780A2856
:100A000007D0FFF7E1FD23685A1C226058780A28B6
:100A1000F7D10132024B1A60FFF7F0FD10BD00BFA5
:100A20009890FF1F2DE9F04F85B0282002F074F94F
:100A3000984B994A1360994A136003F56542B032A6
:100A400097490A6003F56542603296490A604EF2A2
:100A50002A500344944A1360FFF71AFF9348FFF7A4
:100A600053FF4FF40060FFF713FF9148FFF74CFF6F
:100A700000200390DFF864B207460546854901F57A
:100A80006541B03101918B4CCBF80050019A844BF9
:100A90001A608948FFF738FF7E4800F5654A0AF179
:100AA000AF0ACDF808A0854B1B6833B1834B1F609C
:100AB000794B1B68CBF80030BCE13E20FFF72AFFE2
:100AC000FFF75AFD754BD3F8008008F10206266047
:100AD00098F802300A2B00F0128508F103031A4639
:100AE000013311780A29FAD122606F4B1B6803F198
:100AF000FF3C03F8011C96420CD0614608F1020E3F
:100B0000134613F8010D01F8010D7345F9D1C2EB3D
:100B10000E029444C4F800C0FFF7E8FC8246684B1C
:100B20001880FFF79FFCBAF1000F00F0A2804FF68B
:100B3000FF739A4570D0D4F8009099F800300A2BD2
:100B400007D03B460133DBB219F803200A2AF9D15A
:100B500000E03B460433DEB2A9F10303236029F829
:100B600003AC09F8016CFFF7EDFC804515D0038854
:100B7000534512D182780244B8EB020E09D0013AF3
:100B80008644034612F8011F03F8011B7345F9D18F
:100B900000E08646414BC3F800E099F800300A2B8C
:100BA00081D0002E3FF47FAF3C4BD3F80080D4F8C7
:100BB00000E0A9463546C8EB0E06AE4228BF2E46D9
:100BC00008EB060CB8EB000109D043466246C1EBC6
:100BD000080813F8011D02F8011D4345F9D16EB153
:100BE0000EF1FF33811913F8012F00F8012B884211
:100BF000F9D1AD1B05F0FF05B644084635B94D46A1
:100C0000264BC3F800C0C4F800E04CE7E046D2E74A
:100C10002C48FFF779FE46E72B48FFF775FE42E7C1
:100C20004D4600E04D462948FFF762FEDBF80030F4
:100C30005BB1226816780A2E1CBF5E211170244A0F
:100C40001360FFF7CFFE23681E70FFF7D7FC2AE77B
:100C50002048FFF759FE17E71A46013311783A2961
:100C6000FAD02260FFF7FEFB23681B780A2B06D11F
:100C7000D7E0266098F802300A2B3FF414AF01F059
:100C800047FE68B301F0F8FD032829D11248FFF7A9
:100C90003BFEF9E6A090FF1F9490FF1F58760020BE
:100CA0006076002074760020687600208C59000061
:100CB000A459000054760020985800006C7600205B
:100CC0009090FF1FC0580000845900008058000019
:100CD0009890FF1F785800009C5900005C76002017
:100CE000A448FFF7CDFBA44B1E78242E00F2998078
:100CF00001A151F826F000BF5D120000731400003E
:100D0000A70D0000BB0D0000110C0000E310000057
:100D1000B7110000C50D0000E70D00008F100000A6
:100D20000B110000230E0000AD0F0000FF0E0000AD
:100D300099120000171200000F0E00003715000076
:100D4000110C00008D13000099120000230E00000A
:100D5000DD130000E1130000990D00000F0E0000EC
:100D60007F1400006D1400009D140000A114000009
:100D700095140000E10E0000490E0000E70E00008F
:100D80008D0D0000A70E0000B71100003E4640F296
:100D9000FF784FF02E097BE0784B1F70FFF72CFD9A
:100DA00001F006F83DE023681B780A2B7FF43BAF87
:100DB000734B1A68734B1A6075E6714B1B68CBF85E
:100DC000003037E06D4E3770FFF716FD3378002B9B
:100DD0007FF422AF23681B780A2B3FF41DAF002855
:100DE0007FF44DAF1DE0654E3770FFF705FD664B94
:100DF00018803378002B7FF40FAF23681B780A2B01
:100E00007FF40AAFFFF79EFBCBF8000012E02368E7
:100E10001B780A2B7FF407AF5A4B1B68CBF80030C6
:100E200008E0DBF80030002B3FF43DAE9A78134425
:100E3000CBF80030DBF80030524A126893423FF49E
:100E400023AE033323601AE73E464FF03F08304697
:100E500000F0DAFD03460028E3D0A0F120025E2A6C
:100E600007D90A2805D00D2803D04046FFF7ACFB70
:100E700002E01846FFF7A8FB0136B6F5006FE6D191
:100E8000CFE706F03F03202B02D14846FFF79CFB3B
:100E90003046294600F0CEFD01364645F1D10A2004
:100EA000FFF792FBBDE70122384B1A70384B1F60E9
:100EB000FFF748FB374B1860324B1B68984209D04C
:100EC000DFF8D0802F4EFFF78DFD3368D8F8002073
:100ED0009A42F8D13846FFF777FB2C4B1F70D3E5C9
:100EE00001222D4B1A60264B1A68264B1A60284B9C
:100EF0001F600123294A1370294A1360C4E5FFF7D4
:100F0000B1FA236893F800A0AAF14102D2B2192ADB
:100F10003FF689AE01332360FFF7A4FA23681B78FC
:100F20000A2B02D03A2B7FF47EAEDFF87C90DFF8FC
:100F300054802368C9F800303F20FFF7EBFCFFF72F
:100F40001BFBD8F8003002332360FFF78BFA0B4EFF
:100F50003770FFF751FC3378002BEAD10AF1004AD1
:100F6000AAF1410A0F4B1B6823F81A000E4B1B68AD
:100F7000236070E2D058000066760020647600207E
:100F80009490FF1F587600209090FF1F67760020F6
:100F9000507600209890FF1F8890FF1F65760020F4
:100FA0009C90FF1F6876002070760020FFF75AFAA9
:100FB00023681E78A6F14102D2B2192A3FF633AE59
:100FC00001332360FFF74EFA23681A783D2A7FF435
:100FD0002AAE01332360FFF745FADFF8DC8288F898
:100FE0000070FFF709FC814698F80030002B7FF471
:100FF0001AAEAE48FFF744FAAD4B1B78002B7FF4D6
:1010000012AEFFF7F9FB824698F80030002B7FF410
:101010000AAEA848FFF734FAA54B1B7833B9FFF79F
:10102000EBFB8046A44B1B7813B1FCE54FF00108A5
:10103000FFF718FA21680B780A2B00F06A823A2B26
:101040003FF4EAADEFE59D4A136803F110029C48B6
:10105000006890423FF6FCADA3F110029748026091
:1010600006F10042413A9748006820F81290462263
:1010700003F8102C03F80F6C23F80EAC23F80C8C3B
:1010800043F8041CDBF8002043F8082CE3E18A4E07
:101090003770FFF7B1FB8C4B18803378002B7FF44F
:1010A000BBAD226813780A2B7FF4B6AD83490B6879
:1010B00003F10C018248006888423FF6C9ADA3F1F4
:1010C0000C017E480160472103F80C1C43F8042CF6
:1010D000DBF8002043F8082CFFF734FACBF80000C7
:1010E000A8E6FFF7BFF923681A78413AD2B2192A65
:1010F0003FF692AD01332360FFF7B4F923681B7804
:101100003A2B02D00A2B7FF48EAD6C4A11686F4BDC
:10111000196020680B4648E01A78462A13D0472AFF
:1011200002D06A4A1360AFE40A2E0AD1674A1360FC
:101130005A68CBF800209B6823600C315F4B196024
:1011400089E10C3331E0052E2ED110F801EC5A78EC
:10115000724529D11A465D490B600EF100414139B3
:101160005848066836F811E09888704480B226F82E
:10117000110099880EB2002E04DDB3F9026003B2AB
:101180009E4207DA11F4004F0AD0B2F9023000B2E1
:10119000834205DCD36823609368CBF800305AE1C2
:1011A00010324648026056E11033029A9342B3D39C
:1011B000464A136030E523681E78A6F14102D2B298
:1011C000192A3FF629AD06F10046413E3D4AD2F8C4
:1011D000009001332360FFF745F923681A783D2A10
:1011E0007FF421AD01332360FFF73CF9DFF8C880BD
:1011F00088F80070FFF700FB98F80030002B7FF4B0
:1012000012AD23681B780A2B02D03A2B7FF40BAD6A
:1012100029F816001FE1284E3770FFF7EDFA3378F2
:10122000002B7FF400ADFFF71DF923681A782C2AF4
:101230007FF4F9AC01332360FFF714F93770FFF73F
:10124000DBFA3378002B7FF4EEAC23681A780A2A95
:101250003FF408AD3A2A00F06B81E4E4FFF746F969
:10126000194B188023681B780A2B7FF4DCACFFF73E
:1012700069F9174B1860174B1B6883423FF404ACA5
:10128000DFF84C80134EFFF7ADFB3368D8F8002031
:101290009A42F8D1FFF7F8BB23681B783A2B1BD191
:1012A000FFF7ACF9236801332360D4E060580000F5
:1012B0006676002064580000647600206076002086
:1012C00074760020687600209090FF1F8C90FF1F9E
:1012D0009890FF1F587600200A2B3FF4A2ADDFF84C
:1012E0007082A946FFF7BEF821680E78222E01D041
:1012F000272E25D14D1C25604B789E4217D00A2BF6
:1013000000F00E812A4602E00A2B00F0098112F853
:10131000013F9E42F8D1487886420AD0FFF754F93F
:1013200023685A1C226058788642F7D102E02A4688
:1013300000E02A46013222600DE0272B3FF470AC1A
:1013400088F80070FFF758FA98F80030002B7FF407
:1013500069ACFFF79DFA23681A782C2A02D1013371
:101360002360BFE74D463B2A08D15A780A2A02D0AB
:101370003A2A7FF458AC013323606CE00A2A02D089
:101380003A2A7FF450ACFFF739F964E06B4B1868E8
:101390006B4B1B68C01AFFF77BFA6A48FFF7B4FA79
:1013A0004FF40060FFF774FA6748FFF7ADFA38466C
:1013B00000F02AFB012606E0304600F025FB01364E
:1013C000B6F5006F01D00028F6D1C6F500600130F7
:1013D000FFF75EFA5D48FFF797FA3CE0B84601E098
:1013E0004FF001085A4E3770FFF706FA81463378FE
:1013F000002B7FF418ACFFF735F823681A782C2AF5
:101400007FF411AC01332360FFF72CF85148FFF74C
:1014100037F8514B1B78042B06D0012B8CBF4FF0B3
:10142000000A4FF0010A08E0494E3770FFF7E4F96F
:1014300082463378002B7FF4F6AB5FFA89F63046AC
:10144000012100F05BFBB8F1000F09D030465FFAD4
:101450008AF100F021FB23681A783A2A68D001E467
:1014600030460FFA8AF100F089FBF4E701223B4B8A
:101470001A603B4B1A68324B1A60FFF7C9BB344EF7
:101480003770FFF7B9F93378002B7FF4CCAB01F05C
:101490006FFCE0E7282001F03FFCDCE70123039329
:1014A0002B4E3770FFF7A8F980463378002B7FF476
:1014B000BAABFEF7D7FF23681A782C2A7FF4B3ABB8
:1014C00001332360FEF7CEFF3770FFF795F98146B1
:1014D0003378002B7FF4A7ABB8F1000FDAD00028E7
:1014E000D8D028201FFA88F14A4601F08DFB0398D6
:1014F0000028B0D0484600F05BFC0397ABE70F4BE9
:101500001B6803F1FF3C98F8022003F8012CFFF759
:1015100001BB0F4B1B78002B3FF495ADFFF77CBB55
:1015200023681B78222B7FF408AF4D46FFF77BBB67
:101530000133FFF791BB05B0BDE8F08F687600205E
:10154000587600208C590000A4590000445800002F
:101550006476002088580000667600208890FF1F7F
:101560009490FF1F38B51B4A1B491C4D1C4C137827
:1015700013F0FF0FFBD00B7813F0030FF7D02868A0
:101580002368C31A182BF2D9164C23685B682046CF
:10159000154905229847204601F0C6FA1348FFF77F
:1015A000B3F90D20012100F0A9FA0D20012100F06E
:1015B00073FA4FF4FA7000F0FBFB0D20002100F0ED
:1015C0006BFA4FF4FA7000F0F3FB0D20012100F0EC
:1015D00063FA38BD6477002074770020807600209D
:1015E000AC790020947700209C580000A45800009B
:1015F00008B500F0C5F908BD30B4394A3949136857
:1016000013F0800FFBD10B6813F0800FF7D172B687
:10161000354B1B78002B5FD0344B1C6804331D689E
:10162000043318680433196804331A6804331B68D8
:101630002C44204401440A441A44C2F34E0242F4AA
:1016400000422B4B1A602C331C6804331D68043392
:1016500018680433196804331A6804331B682C446F
:10166000204401440A441A44C2F34E0242F40042A8
:10167000204B1A6003F108131C6804331D680433FF
:1016800018680433196804331A6804331B682C443F
:10169000204401440A441A44C2F34E0242F4004278
:1016A000154B1A602C331C6804331D68043318680A
:1016B0000433196804331A6804331B682C4420442B
:1016C00001440A441A44C2F34E0242F400420B4B56
:1016D0001A600022044B1A7062B630BC704700BF1B
:1016E00024B0034024B00B407976002038B003408A
:1016F0002CB0034030B003402CB00B4030B00B4056
:1017000060223A4B1A70E12201331A70384B1B7871
:10171000082B10D1212203F1804303F56C331A60AA
:10172000132334490B6001F5FF2101F2FC710A60BB
:10173000314A13601FE00A2B0DD139222F4B1A605A
:1017400013232C490B6001F5FF2101F2FC710A60A3
:10175000294A13600FE00C2B0CBF35225D22274B6A
:101760001A60122323490B6001F5FF2101F2FC717D
:101770000A60214A1360224B1B7833B10123214AAE
:10178000136002F50022136005E000231D4A136078
:1017900002F5002213601C4B1B78012B06D8802316
:1017A0001A4A136002F5002213601AE0042B06D8CF
:1017B0008423164A136002F50022136011E0082BFF
:1017C00006D88523114A136002F50022136008E051
:1017D000102B94BF862387230C4A136002F5002246
:1017E000136001220A4B1A70704700BF0040074087
:1017F0006487FF1F0CB003400CB00B4008B00340DF
:101800007C76002020B003406587FF1F24B0034092
:10181000797600202DE9F843282873D83C4B1E5CCC
:10182000FF2E72D03B4B1B780BB1FFF7E5FE16F095
:10183000800F29D172B6384C384D4FF00107266021
:101840002F7062B672B6236813F0800F04D12B7824
:1018500013F0FF0F0FD1F2E7314B186800222F4B26
:101860001A7062B62F4B1B781841BDE8F8832B78AD
:1018700013F0FF0FE3D062B601F0F4FA72B62368FA
:1018800013F0800FF3D0E7E772B606F040095FFA75
:1018900089F9254F254C06F03F06254D4FF00108EC
:1018A000B9F1000F04D03B6823F010033B6003E064
:1018B0003B6843F010033B60266085F8008062B609
:1018C00072B6236813F0800F04D12B7813F0FF0F4A
:1018D0000FD1E5E7174B18680022154B1A7062B656
:1018E000104B1B781841BDE8F8832B7813F0FF0FDD
:1018F000D6D062B601F0B6FA72B6236813F0800F44
:10190000F3D0E7E70020BDE8F8830020BDE8F883C6
:10191000BC5900007976002000B003407B7600209F
:1019200010B00340787600200CB00B4000B00B40A4
:101930007A76002010B00B40094B1A6842F48052AE
:101940001A60084B1B781BB18022074B1A7002E00B
:10195000C022054B1A7080F30C00044B18807047AE
:101960002C8004407C76002021C00C4000C00C403C
:10197000024A137813F0010FFBD0704701000240B8
:1019800010B584B01B4B6C46186859689A68DB68C0
:101990000FC4194B1B7813F0020F23D0174B1B7881
:1019A00013F070031CBF154A13708022144B1A7079
:1019B0000022033B1A70332207331A700322013BC3
:1019C0001A7072B66B4643F001030C4C20469847E0
:1019D00062B6237813F0700304D0237008E0013B53
:1019E00002D105E0074B04490A7812F0010FF6D046
:1019F00004B010BDE85900000100024000000240A0
:101A000007000240410D030010B50446B0F5006F19
:101A10000BD2074B1B7813F0010F01D1FFF7B0FF7A
:101A200004F1A0542078C0B210BD002010BD00BF4A
:101A30000100024038B504460D46B0F5006F16D2DD
:101A40000B4B1B7813F0010F01D1FFF799FF04F145
:101A5000A0542378DBB2AB4209D0064B1B7813F0BD
:101A600070031CBF034A13702570FFF781FF38BD58
:101A70000100024000000240044B00221A600449A9
:101A80000A60044A106010221A60704714D00340A4
:101A900004D0034000D0034021281ED80F4B53F838
:101AA000303093F8802212F0FF0F08D019B10122D4
:101AB00083F880207047012283F800217047074B8C
:101AC00003EBC000436821B11A6842F003021A60B8
:101AD00070471A6822F002021A607047F859000035
:101AE000212806D8044B53F8303093F80002C0B2D6
:101AF00070470020704700BFF859000021283AD8ED
:101B00001D4B03EBC0035B68012919D0042925D0C4
:101B1000194A52F83020002082F8800219B94FF497
:101B200080721A607047022903D140F203121A60D2
:101B3000704703290CBF4FF4817200221A6070476E
:101B40000D4A52F83020012182F880124FF4A2721F
:101B50001A601A6822F020021A607047064A52F88A
:101B60003020012182F880124FF4A2721A601A68A4
:101B700042F020021A607047F859000010B5044680
:101B800028280FD15D4B1B780B2B03D8C3F10C0316
:101B9000994003E00C2B84BF0C3B19410846FFF72A
:101BA000CBFE10BD554B1B78012202FA03F0002931
:101BB00008DC20460021FFF76FFF20460121FFF7D8
:101BC0009DFF10BD0A46884208D820460121FFF734
:101BD00063FF20460121FFF791FF10BDE01EC0B258
:101BE000012806D84648006800FB011222FA03F3D8
:101BF00010E0202C01D0192C06D14248006800FBCF
:101C0000022222FA03F305E03F48006800FB0112BC
:101C100022FA03F3E01E1D2864D8DFE800F0474EE7
:101C2000402B63631D246363636363636363633295
:101C3000390F16635C63636363636355334A1360F0
:101C400040F24442324B1A6010BD324A136040F2F7
:101C50004442314B1A6010BD304A136040F2444296
:101C60002F4B1A6010BD2F4A136040F244422E4B96
:101C70001A6010BD2D4A136040F244422C4B1A608A
:101C800010BD2C4A136040F244422B4B1A6010BD29
:101C90002A4A136040F24442294B1A6010BD294A77
:101CA000136040F24442284B1A6010BD274A13606B
:101CB0004FF45172264B1A6010BD264A13604FF440
:101CC0005172254B1A6010BD244A13604FF45172B3
:101CD000234B1A6010BD234A13604FF45172224BFC
:101CE0001A6010BD20467F29D4BF00210121FFF7D3
:101CF000D3FE20460121FFF701FF10BD6687FF1FBD
:101D00000890034008800B40088003401080034087
:101D100004B004401880034008B004402080034011
:101D20000CB004402880034010B0044030800340D1
:101D300010C004403880034014C004404080034079
:101D400018C00440488003401CC004401090034069
:101D500030900440189003403490044010800B40B1
:101D600048A0044018800B404CA0044072B60C4BB5
:101D70001B680C4A12680C49096862B611F0806F42
:101D800002D0322B88BF0132C3F5EA33BF33074993
:101D9000A1FB03039B094FF47A7000FB02307047EC
:101DA00018E000E08076002004ED00E08988888853
:101DB00038B50546FFF7DAFF044625B938BD013DC1
:101DC0000AD004F57A74FFF7D1FF001BB0F57A7FD3
:101DD000F5D201F047F8F6E738BD00BF10B5264B45
:101DE0004FF400021A604FF080721A604FF00072D8
:101DF0001A604FF080621A604FF000621A60002093
:101E00001E4B18604EF6FF710433196028231C4ADC
:101E1000136008321360083213600832136008320E
:101E2000136008321360083213600832136009220D
:101E3000144C226004F58054043420600434216082
:101E40000434236008342360143C226004F5FE242B
:101E5000043420600C4801600C490B6008310B60B1
:101E60000B4B1A60FFF74CFC4FF4C870FFF7A0FF54
:101E700000F074FC10BD00BF08E100E004800340E6
:101E80000C8003400080034008800B400C800B4016
:101E900000800B4030B40E4B1B7843F002020D4C17
:101EA00004EBC20460600C48007800280CBF882452
:101EB000C82444EA0141074D45F8321080F0010082
:101EC000054A107083F00103014A137030BC70475B
:101ED000EC7600200080FF1F6577002010B4431EC1
:101EE000032B11D872B60A4A52F8230050B1426847
:101EF000074941F82320074A32F813400188611A44
:101F000022F8131062B600E000205DF8044B704721
:101F1000DC7600209C790020013803280DD872B6A9
:101F2000074B53F820302BB1002001305B68002BA9
:101F3000FBD100E0002062B670470020704700BF70
:101F40003077002038B572B601231B491B4C5A1854
:101F500012F8012C12F0080F24D09A0054F83250D5
:101F60006DB9164B03EBC20108304860144943F8C1
:101F70003210144B1A78013A1A7062B638BD42F02A
:101F8000010254F832506DB90C4B03EBC20108301A
:101F900048600D4943F832100A4B1A78013A1A701A
:101FA00062B638BD0133052BD1D162B60022054B94
:101FB0001A7000F037FC38BD385B00000080FF1F4E
:101FC000880040005A770020C800400010B4431E2B
:101FD000032B37D8400140F010001C4A104472B661
:101FE0001B4AD25C032A09D8DFE802F019021B055C
:101FF0000830022216E00830042213E0154A52F895
:1020000023201AB9134A42F8231003E0124A52F867
:1020100023205160104A42F8231062B612E00322D6
:1020200000E005220A4CE25401F10803436000F08D
:102030000803002B0CBF8823C8230A8843EA024305
:10204000036062B65DF8044B704700BF0080FF1F5D
:102050009876002030770020407700202DE9F84F57
:10206000A34CDFF8E092DFF8E0A2DFF8E0B22578D9
:10207000EDB215F0040F1DD09E4B1B7813F0FF0F2F
:1020800016D09D4B1B7803F0FF022BB1531EDBB221
:10209000994A137003B900BE984B1B7803F0FF02F6
:1020A00033B1531EDBB2954A13700BB900F018FD23
:1020B0000423237015F0080F00F0E48299F8003033
:1020C000DBB21D0940F021828D4D9E0805EBC60351
:1020D0005A6855F83630C3F38303013B0C2B00F2EA
:1020E0001082DFE813F0CB01CB010E020E020E02CC
:1020F0000E020E020E02E8010E020E020E020D008A
:10210000804913680B6052684A607F4A45F8362060
:1021100000227E490A607A490A618A6101217C4A6B
:1021200011709BB240F28162934218D8B3F5D06F20
:102130002ED2B3F5817F00F01E8106D8802B00F0EF
:10214000C980822B00F0CC8066E140F202329342DB
:1021500000F02681B3F5A06F00F062815CE142F2ED
:102160002102934200F0868107D8B3F5086F00F092
:10217000AB80B3F5106F11D04EE142F221229342B1
:1021800000F0418142F22132934200F0498143E163
:10219000604B5D68002D40F0188130E1594B9A7812
:1021A000544B1A70564D05F180062B6A13F0800FC0
:1021B00003D0686A083800F035FB0835B542F4D121
:1021C000DFF88C8100263746534AB05828B145685D
:1021D00000F028FB0DB12846F9E700234E49735063
:1021E0004E4AB3504E4BF05828B1456800F01AFBE8
:1021F0000DB12846F9E7002349497350494AB350C5
:1022000028F8023F484BFB5C023B032B0AD8DFE86F
:1022100003F0020602060022434BDA5502E00122D7
:10222000414BDA5501370436102ECDD100223F4BF9
:102230001A7001253E4EDFF81C81314F05EB080373
:1022400013F8013C06F8043B13F0080F2DD000F002
:10225000C9FA48B1A90007EB451200F10803536021
:10226000344A47F8312007E0AB00002247F833201A
:102270002E4B1A7801321A7000F0B4FA58B1AB0044
:1022800043F0010307EBC30100F108024A601E4A54
:1022900047F8332009E0AB0043F00103002247F880
:1022A0003320224B1A7801321A70AA0042F0020140
:1022B000002347F8313042F0030247F8323001354D
:1022C0001D4B9E42BAD11EE20A4B1B781B4D2B7050
:1022D0000127AAE0194D00232B706B700227A4E0A0
:1022E000084B9B88042B37D90F22154B1A70C1E07D
:1022F0008020074064770020ED760020667700207C
:102300000080FF1F50770020C80040008476002026
:10231000657700203C5B0000DC760020887600209A
:102320003077002040770020987600205A770020F0
:10233000C420074088004000D42007405C7700207C
:10234000C020074090200740942007409820074075
:102350009A790020385B0000A04A0021117051706A
:102360009F4A12F8233013F0020F5CD09B4D0123DB
:102370002B70022759E09B4B9B8803F07F03042BB3
:1023800002DC984A52881AB10F22954B1A7071E0FC
:10239000934A12F8231021F0020102F82310B2E14F
:1023A000904B9B8803F07F03042B02DC8D4A5288FC
:1023B0001AB10F228A4B1A705CE0894A12F8231076
:1023C00041F0020102F823109DE1864B5E889F8850
:1023D000854BA3F10C02114633F80C0CB04209D125
:1023E00033F80A0CB84205D1360A032E0CBF2F78F9
:1023F00017891AE00D690C330C32002DEBD10F2236
:10240000774B1A7036E0794B1A68794B1A60754B26
:102410009A78784B1A7076E10F22714B1A7029E086
:1024200000273D4601E002276C4D6E4BDB889F4242
:1024300028BF1F46402F34BF3E464026284631461F
:10244000FFF728FD3544BF1B03D13F2E00F260810A
:1024500010E0402F34BF3E46402628463146FFF765
:1024600019FD3544BF1B01D13F2E03D9624B1D60BE
:10247000624B1F8001238AF8003042E0594B1988D3
:1024800042F22103994212D15D4BD81D12F8011B73
:1024900003F8011F8342F9D15A4B1B68862B02D1E6
:1024A0000F22594B1A7000200146FFF7F3FC574BDF
:1024B00045F8363025E0504B1E68BEB14F4FB7F897
:1024C0000080B8F1400F34BF4546402530462946CC
:1024D000FFF7E0FCC5EB08039BB23B800BB9402D36
:1024E00001D1354400E00025434B1D603D4B1B8866
:1024F000B3F5A06F05D13B4B00225A709B788BF847
:10250000003001238AF80030B9E0414E9F0806EB05
:10251000C708D8F80420A2F10800013DEDB213F07D
:10252000080F47D000F07EF93A4B53F825304BB3F3
:102530005A68384941F8252003F10802C8F80420F8
:10254000354A525D032A12D8DFE802F002060A0E6D
:102550000321314A51550AE002212F4A515506E024
:1025600005212D4A515502E004212B4A515518F0FE
:10257000080F0CBF8822C8221B8842EA034346F892
:1025800037307CE0244B5B5D032B0BD8DFE803F096
:10259000777702060022204B5A5570E001221E4B2D
:1025A0005A556CE018F0080F0CBF022203221A4B98
:1025B0005A5564E056F837301B0C22F8083C002BC3
:1025C00055D0002322F8063C42F8043C134B53F844
:1025D00025302BBB114B43F8250025E05C7700200C
:1025E000C020074050770020485B00008076002024
:1025F000AC79002074770020847600205877002082
:10260000A3790020A4790020ED760020C8004000C6
:102610000080FF1F3077002098760020DC760020B5
:102620003F4B53F8253058603D4B43F825003D4B58
:1026300033F8151032F8082C0A4423F8152000F05E
:10264000D1F860B100F10803C8F8043018F0080FA1
:10265000354B364A08BF134646F837300FE00023A3
:1026600046F83730324B1A7801321A7007E018F00A
:10267000080F2D4B2D4A08BF134646F83730082364
:102680002370F4E415F0010F22D02A4902230B70C5
:102690000022294B1A70294B24481860284C5C6092
:1026A00098602848D8601A619A610D20264B1870EE
:1026B000FF23264803700838037018300270244A3C
:1026C00013709F22234B1A7001230B70BDE8F88F03
:1026D00015F0800F05D00D221B4B1A708022403B55
:1026E0001A7015F0020F06D0184B1A78D2B21A7071
:1026F0000222083B1A7015F0100F0ED01022164B54
:102700001A70BDE8F88F00200146FFF7C3FBB1E661
:1027100028460021FFF7BEFBACE6BDE8F88F00BFFE
:10272000887600209C790020C80040008800400086
:102730005A77002094200740EC7600200080FF1F8D
:102740009C760020F0760020C020074088200740BB
:102750008C200740842007408020074008B501F006
:1027600007FE00231B491A465A50C8184260083316
:10277000882BF9D1184B1A6842F480221A60154B45
:10278000C3F30721154A1170C3F3074114321170C6
:102790001B0E04321370FF23343A13700832137087
:1027A000783A137001238432137000216C32117057
:1027B0007C3A137070220A4B1A704FF40072A3F225
:1027C00041331A60102203F1C04303F5C8231A7085
:1027D00008BD00BF0080FF1F348004409C200740DC
:1027E00049E400E072B60D4B1A68B2FA82F30B2B83
:1027F00002D962B6002070474FF00041D94022EA6A
:10280000010206490A6062B6054903EBC303DB0017
:10281000C8180022CA504260704700BF6887FF1F77
:102820000084FF1F08B50F4BC31A0F4AA2FB031306
:102830001B090B2B14D80D4A12783AB10C4A1278A6
:1028400012F0FF0F02D0FFF77DFB08BD72B6094AF8
:102850004FF0004121FA03F311681943116062B689
:1028600008BD00BF0084FF1F398EE3385A7700206F
:10287000647700206887FF1F10B5134B1B6853B99E
:10288000124B1B7813F0FF0F18D00320FFF726FB25
:102890000D4B1860A8B10C4B186843885A1C0344B0
:1028A0001C7A03889A4206D3FFF7BCFF0022064B2E
:1028B0001A60204610BD4280204610BD4FF0FF3008
:1028C00010BD4FF0FF3010BD7077002064770020FE
:1028D00008B50D4B1B6883B90C4B1B7813F0FF0F29
:1028E00008D00320FFF7FAFA074B186028B94FF019
:1028F000FF3008BD4FF0FF3008BD034B1B685A88FE
:102900001344187A08BD00BF707700206477002058
:10291000044B9888044B1B681BB11A885B88D31A38
:10292000184470479C7900207077002010B50B4B3D
:102930001B7813F0FF0F0FD0094B186820B1FFF779
:1029400071FF0022064B1A6003242046FFF7C6FAE7
:1029500010B1FFF767FFF8E710BD00BF64770020F4
:10296000707700202DE9F84F04460122384B1A7089
:102970008B46002965D00E46DFF8E080DFF8E09056
:102980009A46344FD8F8003083BB99F8003013F0E2
:10299000FF0F06D100222E4B1A704FF0FF30BDE81A
:1029A000F88F4DF2E9050420FFF7B6FA07280AD898
:1029B00001238AF80030FFF715FFC8F80000A8B916
:1029C00000238AF80030013D01D03B7833B1012269
:1029D000204B1A704FF0FF30BDE8F88F00F042FA3C
:1029E00099F8003013F0FF0FDDD1D3E700233B70DF
:1029F000D8F800104A88C2F14005AE4238BF3546CB
:102A000002F108030B442A444A80761B3DB1254459
:102A100014F8012B03F8012BAC42F9D100E0254654
:102A20004B883F2B07D940230B800420FFF7CEFAB9
:102A30000023C8F800300522074B1A700EB12C464F
:102A4000A0E70022024B1A705846BDE8F88F00BF7D
:102A5000677700206C770020667700206877002079
:102A60006477002000B583B002AB03F8010D18466F
:102A70000121FFF777FF03B05DF804FB10B5144B9D
:102A80001B7813F0FF0F21D00122124B1A70124B4A
:102A9000196851B10024114B1C704B880B80042025
:102AA000FFF794FA0C4B1C600DE0FFF79BFE01460C
:102AB00030B10022094B1A700420FFF787FA02E0B8
:102AC0000122064B1A700022024B1A7010BD00BF83
:102AD0006477002067770020687700206677002001
:102AE00008B50E4B1B7813F0FF0F16D10C4B19686D
:102AF00041B14B880B800420FFF768FA0022084B95
:102B00001A6008BDFFF76EFE014618B10420FFF7FA
:102B10005DFA08BD0122034B1A7008BD67770020DB
:102B2000687700206677002000B583B0054B1B88CE
:102B3000ADF8043003685B6801A90222984703B02E
:102B40005DF804FB085B000010B5044601F086FE4A
:102B5000204610BD10B5234B1B6883B1224A126872
:102B6000012182F88010013B13F1050F02D01D4AAC
:102B7000136010BD6FF002021A4B1A6010BD1A4BA1
:102B80001B6801221A70194B1B681BB3184B1C6879
:102B90002046002102F05EF9A8B92046154902F04E
:102BA0006DF980B92046144901F0ACFF4FF07C511B
:102BB00001F09EFE02F06CF90246232803D90F486B
:102BC0000F4901F001FE094B1A6806490A6000220C
:102BD0001A6010BD094801F041FEFF22094B1A702E
:102BE00010BD00BF88770020807700208477002008
:102BF0008C7700208988884C00007042787700200C
:102C0000552B00006C87FF1F70B5044621286AD839
:102C100042B102FB01F6344BA3FB0626B60976004F
:102C2000013601E06FF00206084601F013FF01468D
:102C30002E4802F01BF805462D4B03EBC4035968E0
:102C400072B62C4B1B789C4216D12B4B196802F0A4
:102C5000EDF838B1294B1A6802F00102013A164426
:102C60001E603FE0244B1D60254B1E60234B1A68FD
:102C700002F001021A6035E0212B03D8214B1B68BA
:102C800001221A701B4B1C70194B53F8343003F59A
:102C900080701C4A1060012283F8002183F8802292
:102CA0004FF4A2730B60154B1E60134B1D6028463A
:102CB000002102F0CFF8A8B92846134902F0DEF847
:102CC00080B92846114901F01DFF4FF07C5101F0F9
:102CD0000FFE02F0DDF80246232803D90C480D4907
:102CE00001F072FD62B670BDD34D62100024F4484D
:102CF000F85900006C87FF1F8C7700208877002030
:102D000084770020807700208988884C00007042FA
:102D100078770020552B000008B521280FD872B60F
:102D2000074B1B78834209D1064801F097FD064BFB
:102D30001B6801221A70FF22014B1A7062B608BD8F
:102D40006C87FF1F787700208077002008B5054842
:102D500000230360802303710349044A02F0B8F89A
:102D600008BD00BF78770020492B00006087FF1F57
:102D700008B1014A106070479077002010B4124BE0
:102D80001968D9B1114C81FB0423CA18CB17C3EBC6
:102D900022420F4800FB121284FB01042144C3EBC2
:102DA00021430C4800FB03F344F2A71000FB023060
:102DB000002804DA00F10040013800E00648024B28
:102DC00018605DF8044B7047907700205F0B4E83CE
:102DD0001DF30100ECF4FFFF42CE0C1F10B50446BA
:102DE00030B1FFF7CBFFB0FBF4F303FB140010BDD1
:102DF000002010BD08B5FEF7B5FBFDF713FE00F08F
:102E000031F8FAE708B5FFF783FD08BD08B5FFF70D
:102E100033FD08BD08B5FFF75BFD08BD08B5FFF73A
:102E20002DFE08BD08B5FFF781FD08BD08B50846B1
:102E3000FFF718FE08BD00BF08B508461146FFF7AA
:102E400091FD08BD704700BF044B00221A714FF47A
:102E50007A7199601A73024A1A6070479477002059
:102E6000185B000008B50F4B1B78CBB901220D4B46
:102E70001A70FFF74DFD08B1FFF7E4FF00F00AFB01
:102E800008B101F04BFB00F0B7FE08B101F0E8FB20
:102E900001F084F908B101F085FC0022014B1A70A1
:102EA00008BD00BFA4770020024B1A6801321A60E7
:102EB000704700BF8076002008B50D4C236813F4DE
:102EC000802F01D0FFF7CAF8236813F4806F01D078
:102ED00000F06AFB236813F4006F01D000F016FFC6
:102EE000236813F4805FE9D001F0CEF9E6E700BF74
:102EF0003480044008B5FFF7DFFF00BF1022014B0C
:102F00001A80704700200540704700BF024A1368CE
:102F100018441060184670477087FF1FEFF3138343
:102F2000ABB9EFF31083ABB9EFF3058323B10F2BEC
:102F300005D9094A985C03E04FF4807000E0002056
:102F4000EFF311833BB1834238BF184670474FF00F
:102F5000FF30704700207047F0E300E030B40023FA
:102F6000B0FBF2F402FB14041D46092C94BF30346C
:102F70003734E4B2CC54B0FBF2F008B10133EFE7E0
:102F80000D4400226A70934207DD885CCC5C8C544F
:102F9000C8540132013B9A42F7DB084630BC704707
:102FA000254B1A6842F480621A600023234A13708A
:102FB000234A1370234A1370234A1370234A137051
:102FC000234B1B7813B1152B05D008E040F21332C8
:102FD000204B1A6003E040F213321F4B1A601F4B64
:102FE0001B78012B02D0052B05D008E04FF451725D
:102FF0001B4B1A6003E04FF451721A4B1A60C0F376
:103000004432194B1A70C0F347125A7000F01F0077
:10301000987204229A700221D9745A7588221A74FF
:103020003C22DA704022114B1A704FF40052A3F286
:1030300029331A60704700BF348004403478002080
:10304000AD7700203C78002035780020AC77002058
:10305000F077002040A0044018C004407487FF1F90
:1030600044A004401CC0044000A006402DE400E041
:10307000164B9B7803F0EC0300F00302134310F0AF
:10308000040F18BF43F01003104A937000F00F03B1
:10309000042B04D11346927942F040029A710B4BF3
:1030A0005A7902F0EF0210F0100F18BF42F0100230
:1030B000064B5A719B7903F0EF0310F0200F18BFF5
:1030C00043F01003014A9371704700BF00A006400F
:1030D00010B5144B1B6813F4806F21D0124B1B7872
:1030E00013F0FF0F06D0104CFFF7BCFE237813F04F
:1030F000FF0FF9D14FF400520C4B1A6000230C4A19
:10310000D37040F203120B490A6004310A600A4A84
:1031100013700A4A13700A4B1B680BB101221A7014
:1031200010BD00BF34800440AC77002084E100E093
:1031300000A0064040A0044034780020AD77002075
:10314000A877002010B50446094A137813F0FF0F42
:10315000FBD120460121FEF7D1FC20460021FEF7DD
:103160009BFC044B53F83420034B1A6010BD00BF86
:10317000AC770020F85900003878002010B40C46D5
:1031800009B140F08000184B1B78984228D0174AAC
:10319000126812F4806F21D003F07F03012B02D05C
:1031A000052B04D006E00022114B1A6002E0002239
:1031B000104B1A60002C0CBF4422602200F07F03E9
:1031C000012B02D0052B05D008E042F44072084BD9
:1031D0001A6003E042F44072064B1A60024B18700A
:1031E0005DF8044B704700BF7487FF1F34800440B4
:1031F00044A004401CC00440114B1B7898421ED0D0
:10320000104A126812F4806F17D013B1152B04D036
:1032100006E000220C4B1A6002E000220B4B1A6001
:1032200010B1152805D008E040F21332064B1A60A1
:1032300003E040F21332054B1A60014B18707047DF
:10324000F07700203480044040A0044018C00440BF
:1032500010B50D4B1B6813F4806F12D021280CD8C9
:103260000A4C0B4B53F8303023600121FEF746FC2B
:10327000236800221A70012010BD0020034B186043
:1032800010BD002010BD00BF34800440A87700208E
:10329000F8590000114B1B6813F4806F1BD01228E3
:1032A00004D140F202320E4B1A600DE0142804D112
:1032B00040F202320B4B1A6006E00B4B5A7B02F0D5
:1032C000FE025A7300207047074B5A7B42F00102FE
:1032D0005A73012070470020704700BF34800440BB
:1032E0000CA0044014C0044000A006402DE9F041A9
:1032F00007461F4B1B6813F4806F37D01D4B1B68AC
:103300000BB101221A701C4B1C780134402C28BFD1
:1033100000241A4D1A4EDFF86C8017E0FFF7FEFD0F
:1033200040280FDC337913F0800F0FD02B78013356
:10333000402B28BF002318F80320D2B2F271DBB271
:103340002B7003E0FF2801DDFFF78CFD2B78DBB24B
:103350009C42E3D0FFB20B4B1F5501220A4B1A705F
:10336000E4B2054B1C70BC22054BDA70BDE8F0815D
:1033700034800440387800203C78002035780020E4
:1033800000A00640B0770020AC7700202DE9F84F70
:103390000746284B1B6813F4806F49D0264B1B68E7
:1033A0000BB101221A7007EB010B5F453DD2DFF82C
:1033B0009890224EDFF88C80DFF890A099F80040BA
:1033C0000134402C28BF00243578EDB2A54220D12D
:1033D000BC2388F80330FFF7A1FD402811DC98F8E2
:1033E000043013F0800F10D033780133402B28BF06
:1033F00000231AF80320D2B288F80720DBB233701A
:1034000003E0FF2801DDFFF72DFD3378DBB29D429D
:10341000E1D017F8013B0AF804300122084B1A707A
:10342000E4B289F800405F45C8D1BC22054BDA7090
:10343000BDE8F88F348004403878002035780020CB
:10344000AC77002000A006403C780020B077002038
:1034500010B5064B1B7813F0FF0F06D0034CFFF797
:1034600001FD237813F0FF0FF9D110BDAC770020D8
:10347000064B1B78DBB2064A1278D2B293422CBFBD
:103480003F3202F1FF32D01A704700BF3C78002073
:1034900035780020054B1878C0B2054B1B78DBB29D
:1034A000984238BF4030C01A704700BF34780020BF
:1034B000AD77002010B4184B1A78D2B2174B1B7896
:1034C000DBB29A4218D001333F2B18D81449C85C9C
:1034D000C0B2DCB211490C7012490968C9B19A42F4
:1034E00003D300E00023D31A01E04032D31A1A2B91
:1034F0000FDC00230B700CE04FF0FF3009E0084BAD
:103500001878C0B20021054B1970064B19680029C4
:10351000E8D15DF8044B704734780020AD77002087
:10352000F4770020A8770020094B1A78D2B2094B13
:103530001B78DBB29A4207D00133402B28BF00230F
:10354000054AD05CC0B270474FF0FF30704700BFF3
:1035500034780020AD770020F47700200D4B1B68F5
:1035600013F4806F14D00C4BDA7802F0CB02DA70CF
:1035700040225A74DA7842F03402DA70074B1A7833
:10358000D2B2074B1A70074B1B680BB100221A709E
:10359000704700BF3480044000A00640AD77002093
:1035A00034780020A877002070B43D4B1B7913F0CD
:1035B000300F33D072B63A4B9B7D03F0FF022BB92C
:1035C000374BDA7940225A7462B627E062B6354B3F
:1035D0001978C9B2344B1C78E4B2314D334EEB79D3
:1035E000D8B24B1C402B28BF0023A3421CBFF05471
:1035F0001946531E13F0FF02F1D1CAB2294B1A70BB
:103600002B4B1B6853B1A1422EBFC4EB0101C4F187
:10361000400409192729C4BF01221A70204BDA7807
:10362000D2B212F0800F27D01B7913F0800F23D075
:10363000204B1C78E4B2204B1B78DBB29C4210D0AC
:1036400017491E4D01E0A3420BD00133402B28BF88
:1036500000230879E85CC0B2C871087DC0B20728B1
:10366000F1D9DBB214490B700D4B1B7913F0800FAD
:1036700002D07C210A4BD97012F0400F0ED0084BBB
:103680001B7913F0400F09D000220D4B1A700D4B1F
:103690001B6803B11A703C22014BDA7070BC704792
:1036A00000A0064034780020AD770020F477002099
:1036B000A87700203C78002035780020B0770020E3
:1036C000AC77002038780020254B1A6842F400625D
:1036D0001A600023234A1370234A1370234A13707D
:1036E000234A1370234A1370234B1B78092B02D0F3
:1036F0001A2B05D008E040F21332204B1A6003E089
:1037000040F213321E4B1A601E4B1B780A2B02D05C
:103710001F2B05D008E04FF451721B4B1A6003E0D9
:103720004FF45172194B1A60C0F34432184B1A709F
:10373000C0F347125A7000F01F00987204229A706A
:103740000221D9745A7588221A743C22DA704022F8
:10375000104B1A704FF40042A3F22B331A607047DB
:1037600034800440B078002045780020B8780020EC
:10377000B1780020447800207587FF1F0CB004400A
:1037800004D004407687FF1F10B0044000D00440EE
:1037900000B006402FE400E0164B9B7803F0EC03EA
:1037A00000F00302134310F0040F18BF43F010039E
:1037B000104A937000F00F03042B04D11346927942
:1037C00042F040029A710B4B5A7902F0EF0210F06E
:1037D000100F18BF42F01002064B5A719B7903F08C
:1037E000EF0310F0200F18BF43F01003014A93714C
:1037F000704700BF00B0064010B5224B1B6813F4A1
:10380000006F3ED0204B1B7813F0FF0F06D01E4CEC
:10381000FFF728FB237813F0FF0FF9D14FF4004294
:103820001A4B1A6000221A4BDA701A4B1B78092BBC
:1038300002D01A2B05D008E040F20312164B1A6092
:1038400003E040F20312154B1A60154B1B7803F08E
:103850007F030A2B02D01F2B05D008E040F2031291
:10386000104B1A6003E040F203120F4B1A60002362
:103870000E4A13700E4A13700E4B1B680BB10122D7
:103880001A7010BD348004404478002084E100E0C8
:1038900000B006407587FF1F0CB0044004D0044000
:1038A0007687FF1F10B0044000D00440B07800209D
:1038B000457800204078002010B50446094A137866
:1038C00013F0FF0FFBD120460121FEF717F9204628
:1038D0000021FEF7E1F8044B53F83420034B1A6043
:1038E00010BD00BF44780020F8590000B4780020D3
:1038F00010B40C4609B140F08000184B1B78984278
:1039000028D0174A126812F4006F21D003F07F0309
:103910000A2B02D01F2B04D006E00022114B1A60A4
:1039200002E00022104B1A60002C0CBF44226022DF
:1039300000F07F030A2B02D01F2B05D008E042F4D1
:103940004072084B1A6003E042F44072064B1A6062
:10395000024B18705DF8044B704700BF7687FF1F5D
:103960003480044010B0044000D00440124B1B7857
:10397000984220D0114A126812F4006F19D0092B16
:1039800002D01A2B04D006E000220D4B1A6002E090
:1039900000220C4B1A60092802D01A2805D008E032
:1039A00040F21332064B1A6003E040F21332054B2B
:1039B0001A60014B187070477587FF1F34800440F0
:1039C0000CB0044004D0044010B50D4B1B6813F438
:1039D000006F12D021280CD80A4C0B4B53F8303012
:1039E00023600121FEF78AF8236800221A70012063
:1039F00010BD0020034B186010BD002010BD00BF9B
:103A00003480044040780020F85900000D4B1B68BA
:103A100013F4006F13D017280AD140F202320A4B78
:103A20001A600A4B5A7B42F001025A730120704718
:103A3000064B5A7B02F0FE025A73002070470020AA
:103A4000704700BF3480044008B0044000B0064016
:103A50002DE9F04107461F4B1B6813F4006F37D068
:103A60001D4B1B680BB101221A701C4B1C780134D2
:103A7000282C28BF00241A4D1A4EDFF86C8017E05E
:103A8000FFF74CFA40280FDC337913F0800F0FD08A
:103A90002B780133282B28BF002318F80320D2B23B
:103AA000F271DBB22B7003E0FF2801DDFFF7DAF9DA
:103AB0002B78DBB29C42E3D0FFB20B4B1F550122A7
:103AC0000A4B1A70E4B2054B1C70BC22054BDA702D
:103AD000BDE8F08134800440B4780020B87800203C
:103AE000B178002000B006404878002044780020DB
:103AF0002DE9F84F0746284B1B6813F4006F49D097
:103B0000264B1B680BB101221A7007EB010B5F45B6
:103B10003DD2DFF89890224EDFF88C80DFF890A03D
:103B200099F800400134282C28BF00243578EDB2E4
:103B3000A54220D1BC2388F80330FFF7EFF94028D5
:103B400011DC98F8043013F0800F10D03378013373
:103B5000282B28BF00231AF80320D2B288F80720A8
:103B6000DBB2337003E0FF2801DDFFF77BF9337828
:103B7000DBB29D42E1D017F8013B0AF80430012284
:103B8000084B1A70E4B289F800405F45C8D1BC22E6
:103B9000054BDA70BDE8F88F34800440B47800201B
:103BA000B17800204478002000B00640B8780020AA
:103BB0004878002010B5064B1B7813F0FF0F06D095
:103BC000034CFFF74FF9237813F0FF0FF9D110BD25
:103BD00044780020064B1B78DBB2064A1278D2B23A
:103BE00093422CBF273202F1FF32D01A704700BF38
:103BF000B8780020B1780020054B1878C0B2054B8A
:103C00001B78DBB2984238BF4030C01A704700BF03
:103C1000B07800204578002010B4184B1A78D2B242
:103C2000174B1B78DBB29A4218D001333F2B18D8C0
:103C30001449C85CC0B2DCB211490C701249096861
:103C4000C9B19A4203D300E00023D31A01E0403205
:103C5000D31A1A2B0FDC00230B700CE04FF0FF304F
:103C600009E0084B1878C0B20021054B1970064BCB
:103C700019680029E8D15DF8044B7047B07800203E
:103C8000457800207078002040780020094B1A7891
:103C9000D2B2094B1B78DBB29A4207D00133402BDA
:103CA00028BF0023054AD05CC0B270474FF0FF30F8
:103CB000704700BFB0780020457800207078002061
:103CC0000D4B1B6813F4006F14D00C4BDA7802F024
:103CD000CB02DA7040225A74DA7842F03402DA7099
:103CE000074B1A78D2B2074B1A70074B1B680BB1FF
:103CF00000221A70704700BF3480044000B00640B4
:103D000045780020B07800204078002070B43D4B0A
:103D10001B7913F0300F33D072B63A4B9B7D03F012
:103D2000FF022BB9374BDA7940225A7462B627E08A
:103D300062B6354B1978C9B2344B1C78E4B2314DB8
:103D4000334EEB79D8B24B1C402B28BF0023A34243
:103D50001CBFF0541946531E13F0FF02F1D1CAB232
:103D6000294B1A702B4B1B6853B1A1422EBFC4EBD9
:103D70000101C4F1400409192729C4BF01221A70A6
:103D8000204BDA78D2B212F0800F27D01B7913F0D3
:103D9000800F23D0204B1C78E4B2204B1B78DBB281
:103DA0009C4210D017491E4D01E0A3420BD00133B5
:103DB000282B28BF00230879E85CC0B2C871087DB1
:103DC000C0B20728F1D9DBB214490B700D4B1B7937
:103DD00013F0800F02D07C210A4BD97012F0400FF3
:103DE0000ED0084B1B7913F0400F09D000220D4B69
:103DF0001A700D4B1B6803B11A703C22014BDA702C
:103E000070BC704700B00640B078002045780020B4
:103E10007078002040780020B8780020B178002029
:103E20004878002044780020B4780020174B1A68A6
:103E300042F480521A600023154A1370154A137019
:103E4000154A1370154A1370154A137040F2133156
:103E5000144A11604FF4517104321160C0F34431BF
:103E6000114A1170C0F34711517000F01F00907299
:103E7000937013742C23D37040220C4B1A704FF4A0
:103E80000032A3F22D331A60704700BF3480044023
:103E90002C790020C1780020347900202D79002071
:103EA000C078002008C0044000C0064031E400E0B3
:103EB000164B9B7803F0EC0300F00302134310F061
:103EC000040F18BF43F01003104A937000F00F0363
:103ED000042B04D11346927942F040029A710B4BA5
:103EE0005A7902F0EF0210F0100F18BF42F01002E2
:103EF000064B5A719B7903F0EF0310F0200F18BFA7
:103F000043F01003014A9371704700BF00C00640A0
:103F100010B5144B1B6813F4805F21D0124B1B7833
:103F200013F0FF0F06D0104CFEF79CFF237813F020
:103F3000FF0FF9D14FF400320C4B1A6000230C4AEA
:103F4000D37040F203120B490A6004310A600A4A36
:103F500013700A4A13700A4B1B680BB101221A70C6
:103F600010BD00BF34800440C078002084E100E030
:103F700000C0064008C004402C790020C178002011
:103F8000BC78002010B50446094A137813F0FF0FDF
:103F9000FBD120460121FDF7B1FD20460021FDF7B0
:103FA0007BFD044B53F83420034B1A6010BD00BF57
:103FB000C0780020F85900003079002010B40C4679
:103FC00009B140F08000104B1B78984219D00F4A7D
:103FD000126812F4805F12D003F07F03082B02D125
:103FE00000220B4B1A60002C0CBF4422602200F010
:103FF0007F03082B03D142F44072054B1A60024B39
:1040000018705DF8044B70477787FF1F34800440B9
:104010000CC00440704700BF10B50D4B1B6813F473
:10402000805F12D021280CD80A4C0B4B53F830304B
:1040300023600121FDF762FD236800221A70012030
:1040400010BD0020034B186010BD002010BD00BF44
:1040500034800440BC780020F85900000D4B1B68E8
:1040600013F4805F13D00E280AD140F202320A4BBB
:104070001A600A4B5A7B42F001025A7301207047C2
:10408000064B5A7B02F0FE025A7300207047002054
:10409000704700BF3480044004C0044000C00640A4
:1040A0002DE9F04107461F4B1B6813F4805F37D0A2
:1040B0001D4B1B680BB101221A701C4B1C7801347C
:1040C000282C28BF00241A4D1A4EDFF86C8017E008
:1040D000FEF724FF40280FDC337913F0800F0FD058
:1040E0002B780133282B28BF002318F80320D2B2E5
:1040F000F271DBB22B7003E0FF2801DDFEF7B2FEA8
:104100002B78DBB29C42E3D0FFB20B4B1F55012250
:104110000A4B1A70E4B2054B1C70AC22054BDA70E6
:10412000BDE8F081348004403079002034790020EB
:104130002D79002000C00640C4780020C0780020FF
:1041400038B505460C4629B115F8010BFFF7A8FF55
:10415000013CF9D138BD00BF10B5064B1B7813F0F8
:10416000FF0F06D0034CFEF77DFE237813F0FF0F00
:10417000F9D110BDC0780020064B1B78DBB2064A8F
:104180001278D2B293422CBF273202F1FF32D01AFA
:10419000704700BF347900202D790020054B187836
:1041A000C0B2054B1B78DBB2984238BF4030C01A12
:1041B000704700BF2C790020C178002010B4184B44
:1041C0001A78D2B2174B1B78DBB29A4218D001335F
:1041D0003F2B18D81449C85CC0B2DCB211490C702E
:1041E00012490968C9B19A4203D300E00023D31AE7
:1041F00001E04032D31A1A2B0FDC00230B700CE0C5
:104200004FF0FF3009E0084B1878C0B20021054B91
:104210001970064B19680029E8D15DF8044B704706
:104220002C790020C1780020EC780020BC78002098
:10423000094B1A78D2B2094B1B78DBB29A4207D0ED
:104240000133402B28BF0023054AD05CC0B2704721
:104250004FF0FF30704700BF2C790020C17800205C
:10426000EC780020054B1A78D2B2054B1A70054B3A
:104270001B680BB100221A70704700BFC178002084
:104280002C790020BC7800202F4B1B7913F0200FD5
:1042900023D02D4BDB79D9B22C4B1B780133402B2B
:1042A00028BF00232A4A1278D2B29A4204D0294A5F
:1042B000D154D9B2254A1170274A116869B1274AE9
:1042C0001278D2B293422EBFC2EB0303C2F1400276
:1042D0009B18272BC4BF01230B701B4BDB78DBB271
:1042E00013F0800F1CD0184A127912F0800F17D0EB
:1042F0001B4A1178C9B2194A1278D2B2914203D13D
:104300006C21114AD1700BE00132282A28BF00220B
:104310001449885CC0B20C49C871D2B20F490A7006
:1043200013F0400F0ED0084B1B7913F0400F09D04B
:1043300000220D4B1A700D4B1B6803B11A702C2212
:10434000014BDA70704700BF00C006402C79002096
:10435000C1780020EC780020BC7800202D79002066
:1043600034790020C4780020C07800203079002003
:1043700000B585B072B61B4B70221A7041211A4AE3
:1043800011700F21013A117080221A701A461378A9
:1043900013F0800FFBD0154B186862B6144B98428F
:1043A0009CBF00EB8000400001A90A22FEF7D6FD69
:1043B0009DF804307BB908E001A9595C31B19180C6
:1043C000023201330A2BF7D100E0002301335B00F6
:1043D000084A137003E0074A53800123ECE705B055
:1043E0005DF804FB000002400700024008000240A4
:1043F0007F9698000488FF1F08B503681B68C9B240
:10440000984708BD08B503681B68C9B2984708BD3E
:1044100008B503681B68C9B2984708BD08B50368AA
:104420001B68C9B2984708BD08B5044800EB5100A5
:10443000B0FBF1F0FEF7B4FD08BD00BF001C4E0E4E
:1044400010B51446054800EB5100B0FBF1F0FEF743
:10445000A7FD2046FEF70CFE10BD00BF001C4E0E4F
:1044600008B5FEF735FE08BD08B50846FEF76AFE3A
:1044700008BD00BF08B50846FEF7BEFE08BD00BF78
:1044800008B508461146FEF779FE08BD08B508468E
:10449000FEF7DEFE003018BF012008BD08B5084653
:1044A000FEF7F8FE003018BF012008BD08B5FEF782
:1044B000F1FF08BD08B5FFF737F808BD08B5FEF7EE
:1044C000F9FF08BD08B5FEF7C3FF08BD08B5FFF743
:1044D00045F808BD08B5FEF7CBFF08BD08B508468E
:1044E000FEF704FF012008BD08B50846FEF7FEFEF2
:1044F000012008BD10B5144608461146FEF746FFD8
:10450000204610BD38B50D46084600F0D3FF0446DE
:1045100028462146FEF73AFF204638BD704700BFC7
:10452000044B00221A714FF47A7199601A73024A8F
:104530001A60704738790020985B000008B503685E
:104540001B68C9B2984708BD08B503681B68C9B2A3
:10455000984708BD08B503681B68C9B2984708BDED
:1045600008B503681B68C9B2984708BD08B5044878
:1045700000EB5100B0FBF1F0FFF7A6F808BD00BF5B
:10458000001C4E0E10B51446054800EB5100B0FB60
:10459000F1F0FFF799F82046FFF7FEF810BD00BFD5
:1045A000001C4E0E08B5FFF727F908BD08B50846F0
:1045B000FFF782F908BD00BF08B50846FFF7D6F936
:1045C00008BD00BF08B508461146FFF791F908BDC0
:1045D00008B50846FFF7F8F9003018BF012008BDFC
:1045E00008B50846FFF712FA003018BF012008BDD1
:1045F00008B5FFF701FB08BD08B5FFF747FB08BD8D
:1046000008B5FFF709FB08BD08B5FFF7D3FA08BDE9
:1046100008B5FFF755FB08BD08B5FFF7DBFA08BD85
:1046200008B50846FFF714FA012008BD08B508468A
:10463000FFF70EFA012008BD10B5144608461146D2
:10464000FFF756FA204610BD38B50D46084600F073
:1046500031FF044628462146FFF74AFA204638BD76
:10466000704700BF044B00221A714FF47A719960B1
:104670001A73024A1A60704748790020F85B0000FC
:1046800008B503681B68C9B2984708BD08B5036838
:104690001B68C9B2984708BD08B503681B68C9B252
:1046A000984708BD08B503681B68C9B2984708BD9C
:1046B00008B5044800EB5100B0FBF1F0FFF7B6FB82
:1046C00008BD00BF000E270710B51446054800EBD3
:1046D0005100B0FBF1F0FFF7A9FB2046FFF7E8FB24
:1046E00010BD00BF000E270708B5FFF711FC08BD7D
:1046F00008B50846FFF746FC08BD00BF08B50846E8
:10470000FFF788FC08BD00BF08B508461146FFF753
:1047100055FC08BD08B50846FFF77EFC003018BF01
:10472000012008BD08B50846FFF798FC003018BF07
:10473000012008BD08B5FFF731FD08BD08B5FFF73A
:1047400077FD08BD08B5FFF739FD08BD08B5FFF7CF
:1047500003FD08BD08B5FFF785FD08BD08B5FFF7E7
:104760000BFD08BD08B50846FFF79AFC012008BDFF
:1047700008B50846FFF794FC012008BD10B51446A3
:1047800008461146FFF7DCFC204610BD38B50D4643
:10479000084600F08FFE044628462146FFF7D0FC6D
:1047A000204638BD704700BF044B00221A714FF4F9
:1047B0007A7199601A73024A1A607047587900201A
:1047C000585C0000704700BF30B403682BB1002470
:1047D0009C6003680124DC6016E01A4B1C6844F4FA
:1047E00000041C600124184B1C6003F580730360F7
:1047F000164D03689C683CB110330360AB42F8D996
:104800000023036018461BE00468114B23441B116E
:10481000104D45F823102260026803219160017950
:104820000D4A995403F1440253119B0003F1604374
:1048300003F5614302F01F02012000FA02F21A6040
:1048400030BC70473C800440007003403F7103401F
:10485000008FFCBF1C88FF1F44E400E010B4036815
:104860004BB1064A1A441211054C064941F8224040
:1048700000229A6002605DF8044B7047008FFCBF15
:10488000C54700001C88FF1F08B50122024B1A60B3
:10489000024B1B68984708BD0C7103401C88FF1F22
:1048A00008B50122024B1A60024B5B68984708BDAD
:1048B0001C7103401C88FF1F08B50122024B1A60BF
:1048C000024B9B68984708BD2C7103401C88FF1F52
:1048D00008B50122024B1A60024BDB68984708BDFD
:1048E0003C7103401C88FF1F80F0004002E000BFC5
:1048F00081F0004142001FBF5FEA410392EA030FCB
:104900007FEA226C7FEA236C6AD04FEA1262D2EB14
:104910001363C1BFD218414048404140B8BF5B4219
:10492000192B88BF704710F0004F40F4000020F0B2
:104930007F4018BF404211F0004F41F4000121F0C8
:104940007F4118BF494292EA030F3FD0A2F1010212
:1049500041FA03FC10EB0C00C3F1200301FA03F150
:1049600000F0004302D5494260EB4000B0F5000F73
:1049700013D3B0F1807F06D340084FEA310102F132
:104980000102FE2A51D2B1F1004F40EBC25008BFE4
:1049900020F0010040EA03007047490040EB0000AE
:1049A00010F4000FA2F10102EDD1B0FA80FCACF1DD
:1049B000080CB2EB0C0200FA0CF0AABF00EBC250DC
:1049C00052421843BCBFD0401843704792F0000FCA
:1049D00081F4000106BF80F400000132013BB5E71D
:1049E0004FEA41037FEA226C18BF7FEA236C21D093
:1049F00092EA030F04D092F0000F08BF08467047F8
:104A000090EA010F1CBF0020704712F07F4F04D1C5
:104A1000400028BF40F00040704712F100723CBFD8
:104A200000F50000704700F0004343F0FE4040F402
:104A3000000070477FEA226216BF08467FEA2363C0
:104A40000146420206BF5FEA412390EA010F40F4AB
:104A5000800070474FF0000304E000BF10F00043F7
:104A600048BF40425FEA000C08BF704743F09643DE
:104A700001464FF000001CE050EA010208BF7047F9
:104A80004FF000030AE000BF50EA010208BF704780
:104A900011F0004302D5404261EB41015FEA010C95
:104AA00002BF84460146002043F0B64308BFA3F18D
:104AB0008053A3F50003BCFA8CF2083AA3EBC2536F
:104AC00010DB01FA02FC634400FA02FCC2F120028E
:104AD000BCF1004F20FA02F243EB020008BF20F0C5
:104AE0000100704702F1200201FA02FCC2F120022B
:104AF00050EA4C0021FA02F243EB020008BF20EA20
:104B0000DC7070474FF0FF0C1CEAD0521EBF1CEA4D
:104B1000D15392EA0C0F93EA0C0F6FD01A4480EA3B
:104B2000010C400218BF5FEA41211ED04FF0006324
:104B300043EA501043EA5111A0FB01310CF0004050
:104B4000B1F5000F3EBF490041EAD3715B0040EA76
:104B5000010062F17F02FD2A1DD8B3F1004F40EB46
:104B6000C25008BF20F00100704790F0000F0CF019
:104B7000004C08BF49024CEA502040EA51207F3ADD
:104B8000C2BFD2F1FF0340EAC250704740F40000B8
:104B90004FF00003013A5DDC12F1190FDCBF00F0A9
:104BA00000407047C2F10002410021FA02F1C2F157
:104BB000200200FA02FC5FEA310040F1000053EAF3
:104BC0004C0308BF20EADC70704792F0000F00F041
:104BD000004C02BF400010F4000F013AF9D040EA47
:104BE0000C0093F0000F01F0004C02BF490011F4DB
:104BF000000F013BF9D041EA0C018FE70CEAD153D9
:104C000092EA0C0F18BF93EA0C0F0AD030F0004C58
:104C100018BF31F0004CD8D180EA010000F000400C
:104C2000704790F0000F17BF90F0004F084691F0CA
:104C3000000F91F0004F14D092EA0C0F01D1420204
:104C40000FD193EA0C0F03D14B0218BF084608D1CD
:104C500080EA010000F0004040F0FE4040F4000017
:104C6000704740F0FE4040F4400070474FF0FF0CAA
:104C70001CEAD0521EBF1CEAD15392EA0C0F93EAF1
:104C80000C0F69D0A2EB030280EA010C49024FEA43
:104C9000402037D04FF0805343EA111143EA1013FC
:104CA0000CF000408B4238BF5B0042F17D024FF4B4
:104CB000000C8B4224BF5B1A40EA0C00B3EB510F8F
:104CC00024BFA3EB510340EA5C00B3EB910F24BF78
:104CD000A3EB910340EA9C00B3EBD10F24BFA3EBFD
:104CE000D10340EADC001B0118BF5FEA1C1CE0D1C5
:104CF000FD2A3FF650AF8B4240EBC25008BF20F078
:104D0000010070470CF0004C4CEA50207F32C2BFCB
:104D1000D2F1FF0340EAC250704740F400004FF068
:104D20000003013A37E792F0000F00F0004C02BF99
:104D3000400010F4000F013AF9D040EA0C0093F063
:104D4000000F01F0004C02BF490011F4000F013BBD
:104D5000F9D041EA0C0195E70CEAD15392EA0C0F25
:104D600008D142027FF47DAF93EA0C0F7FF470AF5D
:104D7000084676E793EA0C0F04D14B023FF44CAFA0
:104D800008466EE730F0004C18BF31F0004CCAD135
:104D900030F000427FF45CAF31F000437FF43CAF71
:104DA0005FE700BF4FF0FF3C06E000BF4FF0010C93
:104DB00002E000BF4FF0010C4DF804CD4FEA400275
:104DC0004FEA41037FEA226C18BF7FEA236C11D0BF
:104DD00001B052EA530C18BF90EA010F58BFB2EB72
:104DE000030088BFC81738BF6FEAE17018BF40F0F2
:104DF000010070477FEA226C02D15FEA402C05D1A6
:104E00007FEA236CE4D15FEA412CE1D05DF8040B2A
:104E1000704700BF844608466146FFE70FB5FFF7BD
:104E2000C9FF002848BF10F1000F0FBD4DF808ED75
:104E3000FFF7F4FF0CBF012000205DF808FB00BF66
:104E40004DF808EDFFF7EAFF34BF012000205DF8C0
:104E500008FB00BF4DF808EDFFF7E0FF94BF01200D
:104E600000205DF808FB00BF4DF808EDFFF7D2FF0A
:104E700094BF012000205DF808FB00BF4DF808ED4D
:104E8000FFF7C8FF34BF012000205DF808FB00BF1A
:104E900042000ED2B2F1FE4F0BD34FF09E03B3EBA4
:104EA000126209D44FEA002343F0004323FA02F0D0
:104EB00070474FF00000704712F1610F01D14202BC
:104EC00002D14FF0FF3070474FF00000704700BF35
:104ED00003460846194600F001B800BF10B40C465E
:104EE00013460146224602205DF8044B00F012BB37
:104EF00070B50F4E0F4D761BB61007D0043D002441
:104F0000013455F8043F9847A642F9D10A4E0B4D9B
:104F1000761B00F0D1FEB61008D0043D0024013409
:104F200055F8043F9847A642F9D170BD70BD00BF47
:104F3000C45C0000C45C0000E45C0000C45C0000D1
:104F4000024B0146186800F003B800BF588CFF1FE1
:104F50002DE9F04F01F10B05162D83B0064627D938
:104F600035F0070527D4A94225D8304600F08CFA41
:104F7000B5F5FC7F26D2C14F4FEAD50C07EBCC0329
:104F8000DC689C4200F0D2816368E268A16823F08B
:104F90000303234430465D68CA6045F00105916013
:104FA0005D6000F073FA0834204603B0BDE8F08F6E
:104FB0001025A942D9D900240C232046336003B020
:104FC000BDE8F08F5FEA552C00F08A80BCF1040F39
:104FD00000F260814FEA951C0CF1380C4FEA4C014D
:104FE000A64F07EB8101CC68A14205D10CE0002B54
:104FF0007ADAE468A14207D0626822F00302531B08
:105000000F2BF4DD0CF1FF3C0CF1010C9B4B3C69C8
:1050100003F1080E744500F07E81616821F0030100
:105020004A1B0F2A00F36481002AC3F814E0C3F876
:1050300010E06ADAB1F5007F80F03A81C90803EB2D
:10504000C1004FEAA1085A688168A1604FF00109C8
:1050500009FA08F848EA0202E0605A608460CC600D
:105060004FEAAC030120984090425BD8024206D13F
:105070002CF0030C400002420CF1040CFAD007EBB8
:10508000CC084446E146E3689C4207D145E1002A4A
:1050900080F25681DB689C4200F03F81596821F024
:1050A00003014A1B0F2AF2DD1C46D3F80CC054F84A
:1050B000088F591945F0010942F00105C3F8049021
:1050C0003046C8F80CC0CCF8088079613961C1F865
:1050D0000CE0C1F808E04D608A5000F0D7F963E7B2
:1050E0007E214FF03F0C7BE72244E3685068A168C3
:1050F00040F00105CB6030469960556000F0C6F97C
:105100000834204603B0BDE8F08F214430464B6898
:1051100043F001034B6000F0B9F90834204603B0B6
:10512000BDE8F08FBC68636823F00309A94504D388
:10513000C5EB09030F2B00F39180514B514A1968BD
:105140001368013305EB010A04EB090B00F06181E0
:105150000AF5805A0AF10F0A2AF47F6A2AF00F0A28
:1051600030465146019200F093F9B0F1FF3F80467E
:10517000019A00F00081834500F2FA80DFF810C147
:10518000DCF80030C3455344CCF8003000F04A81CD
:1051900012683C4901321BBFCBEB080B5B44C1F8E2
:1051A0000080CCF8003018F0070300F01381C3F141
:1051B0000802C3F5805390440833C244CAF30B0A73
:1051C000CAEB030A51463046CDF804C000F060F93E
:1051D000431CDDF804C000F03581C8EB00025244E6
:1051E00042F00102DCF80030C7F808805344BC42AA
:1051F000C8F80420CCF80030DFF894A015D0B9F13D
:105200000F0F40F2EA806168A9F10C0222F0070258
:1052100001F0010EA118052042EA0E0E0F2AC4F873
:1052200004E04860886000F21181174ABC68116888
:105230008B4288BF1360154A11688B4288BF136088
:10524000626822F003029542C5EB020301D80F2BDE
:1052500004DC304600F01AF90024A5E6621943F098
:10526000010345F0010565603046BA60536000F007
:105270000DF90834204603B0BDE8F08F5C8CFF1FA9
:10528000707900206890FF1F6C79002068790020F9
:1052900074790020BCF1140F61D9BCF1540F00F2F5
:1052A0008F804FEA153C0CF16E0C4FEA4C0197E6EB
:1052B0004B0A042B58D9142B00F2AE8003F15B0289
:1052C000500007EB8000DFF8BC818368834200F068
:1052D0008A805A6822F00302914202D29B68984267
:1052E000F7D1D9687A68E160A3608C60DC60B7E6CA
:1052F000611942F0010745F00105656030465961CA
:105300001961C1F80CE0C1F808E04F608A50083418
:1053100000F0BCF848E65A68A2E609F1010919F064
:10532000030F04F108047FF4AEAE2DE004F108038E
:105330006469A34208BF0CF1020C3FF467AE23E698
:1053400019441C464868DB6854F8082F40F00105F2
:105350004D603046D3609A6000F098F824E60CF176
:105360005B0C4FEA4C013BE68A0938325000A8E753
:10537000BC423FF403AFBC68626822F0030262E7FC
:10538000D8F8008098457BD11CF0030FA8F10803E2
:105390000CF1FF3CF4D17B6823EA00037B60400002
:1053A00098423FF6BFAE00283FF4BCAE0342CC4665
:1053B0007FF465AE400003420CF1040CFAD05EE6C7
:1053C000BCF5AA7F1AD84FEAD53C0CF1770C4FEA0E
:1053D0004C0105E64FF48053EFE60123C8F8043092
:1053E000444600222FE791100120D8F8042000FA4B
:1053F00001F10A43C8F80420194674E740F25453F7
:105400009C451BD84FEA954C0CF17C0C4FEA4C01A3
:10541000E6E50AF1100AA3E6542B1FD80A0B6E32F8
:1054200050004EE7CBF30B0100297FF4B1AE0AEB3D
:105430000901BA6841F001015160F6E6FC214FF024
:105440007E0CCDE501224FF0000ACBE604F1080105
:10545000304600F029F9DAF80030E6E6B3F5AA7F25
:1054600003D8CA0B773250002BE740F254529342D4
:1054700003D88A0C7C32500023E7FC207E2220E7F0
:105480007B688CE75C8CFF1F704700BF704700BFD4
:1054900038B5074C0023054608462360FDF736FD66
:1054A000431C00D038BD2368002BFBD02B6038BDD7
:1054B000B079002020F0030110F00300C0F10000DB
:1054C00051F8043B00F1040C4FEACC0C6FF00002E1
:1054D0001CBF22FA0CF213434FF0010C4CEA0C2CC7
:1054E0004CEA0C4CA3EB0C0222EA030212EACC12A7
:1054F00004BF51F8043B0430F4D013F0FF0F1FBF7A
:10550000013013F47F4F013013F47F0F18BF0130C7
:10551000704700BFF0B5274C2668D6F8484185B0E3
:105520000746002C41D065681F2D1EDD224818B9A2
:105530004FF0FF3005B0F0BD4FF4C87003910292F8
:105540000193FFF7FDFC0399029A019B0446002892
:10555000EED0D6F848512560002060600546C6F8B8
:105560004841C4F88801C4F88C013FB9AB1C002045
:105570000135656044F8231005B0F0BD04EB8500EB
:105580004FF0010CC0F88820D4F888610CFA05F2BD
:105590001643022FC4F88861C0F80831E6D1D4F868
:1055A0008C311A43C4F88C21E0E706F5A674C6F8DE
:1055B0004841B8E7B45C0000414F0000024B13B112
:1055C000024800F005B8704700000000DD550000FB
:1055D0000146002002460346FFF79CBF38B5094D3F
:1055E000094C641BA41018BF05EB840505D0013CD1
:1055F00055F8043D9847002CF9D1BDE8384000F03B
:1056000071BB00BF0000000000000000F8B5234D92
:105610000F460446FFF738FFAB685E6826F00306C6
:10562000F11B01F6EF7121F47F6121F00F01A1F56B
:105630008057B7F5805F07DB20460021FFF728FF82
:10564000AB683344984204D02046FFF71FFF002088
:10565000F8BD20467942FFF71BFF01300DD0104BFB
:10566000AA681968F61B46F001062046C91B566059
:105670001960FFF70BFF0120F8BD20460021FFF75E
:1056800007FFAB68C21A0F2ADEDD064D04492D68FC
:1056900042F00102401B5A600860D5E75C8CFF1F96
:1056A000747900206890FF1F2DE9F0410D460646F1
:1056B000002955D0FFF7E8FE55F8041CDFF874C147
:1056C00021F00103A5F10804E218DCF8080057688E
:1056D000904227F0030769D011F00101576032D0E2
:1056E0000021D0194068C00706D43B4490680029C7
:1056F0004ED0D268C260906043F001026260E35015
:10570000E1B9B3F5007F2DD35A0A042A6AD8980963
:10571000383041000CEB810C4649DCF8082062452A
:1057200066D0516821F003018B4202D29268944501
:10573000F7D1D368E360A2609C60D4603046BDE8D6
:10574000F041FFF7A3BE55F8085C641B0CF1080894
:10575000A06840452B4443D0E568C560A860C0E719
:10576000BDE8F081DB080CEBC3020125DCF8040086
:105770009168A1609B1005FA03F31843E260CCF82E
:10578000040094603046CC60BDE8F041FFF77EBE77
:10579000294DA842ADD143F00102CCF81440CCF819
:1057A0001040E060A0606260E350C7E71F44CB0791
:1057B00007D455F8083CE41A1F44A268E368D36094
:1057C0009A601E4B1B6847F001029F426260CCF852
:1057D0000840B3D31A4B30461968FFF717FFADE7FF
:1057E00001217EE7142A0CD802F15B00410091E709
:1057F0004B688010012505FA00F003434B60134607
:1058000098E7542A03D8180B6E30410082E7B2F5AE
:10581000AA7F03D8D80B773041007BE740F2545180
:105820008A4203D8980C7C30410073E7FC217E202B
:1058300070E700BF5C8CFF1F648CFF1F6490FF1F2C
:105840007079002020454550726F6D206279746533
:105850007320617661696C61626C652E00000000E6
:1058600054CF0000535445D0000000003EBD3CBE64
:10587000BEBD3CBDBC21BD00536F727279210000DA
:10588000576861743F200000484947C848C94C4FD9
:10589000D74CCF00082008004F4B000048454C4C27
:1058A0004F00FFFF5465656E73792054696E79422D
:1058B00041534943506C75732076312E332E31009D
:1058C000556E696D706C656D656E74656400000081
:1058D0004C4953D44C4F41C44E45D75255CE5341F9
:1058E00056C54E4558D44C45D449C6474F54CF476A
:1058F0004F5355C25245545552CE5245CD464FD2C4
:10590000494E5055D45052494ED4504F4BC5535424
:105910004FD04259C546494C45D34D45CDBFA7410F
:1059200057524954C54457524954C544454C41D92E
:10593000454EC452534545C443484149CE544F4E49
:1059400045D7544F4EC54E4F544F4EC54543484121
:1059500049CE454C4953D4454C4F41C445464F521E
:105960004D41D445534156C500000000504545CB3C
:105970004142D341524541C444524541C4524EC4B0
:1059800000000000486F773F00000000206279743B
:10599000657320667265652E0000000062726561A5
:1059A0006B21000020454550726F6D20627974654F
:1059B0007320746F74616C2E00000000050E0809DE
:1059C0000D0C06070F0400130393050E08090D0CB8
:1059D00006070F04FFFFC585848687C4FFFF0013F9
:1059E00003931A92170000006FF07F03037003788F
:1059F00013F0800FFBD070474008FE4340A00440E6
:105A00004408FE4344A004400018FE4300C0044084
:105A10003000FE43309004403400FE433490044094
:105A20001C18FE431CC004401018FE4310C0044064
:105A30000818FE4308C004400C18FE430CC0044084
:105A40000C10FE430CB004401010FE4310B0044094
:105A50001810FE4318B004401C10FE431CB0044054
:105A60001410FE4314B004400418FE4304C0044064
:105A70000010FE4300B004400008FE4300A00440B4
:105A80000408FE4304A004400C08FE430CA004409C
:105A90000808FE4308A004401418FE4314C0044044
:105AA0001818FE4318C004400410FE4304B004401C
:105AB0000810FE4308B004401400FE431490044054
:105AC0004C08FE434CA004400420FE4304D0044094
:105AD0002410FE4324B004402010FE4320B00440B4
