:1000000000800020BD010000A52900006929000032
:100010006929000069290000692900006929000098
:10002000692900006929000069290000A52900004C
:10003000A529000069290000A52900005929000010
:10004000A5290000A5290000A5290000A529000078
:10005000A5290000A5290000A5290000A529000068
:10006000A5290000A5290000A5290000A529000058
:10007000A5290000A5290000A5290000A529000048
:10008000A5290000A5290000A5290000A529000038
:10009000A5290000A5290000A5290000A529000028
:1000A000A5290000A5290000A5290000A529000018
:1000B000A5290000A5290000A5290000A529000008
:1000C000A5290000A5290000A5290000A5290000F8
:1000D000A5290000A5290000A5290000A5290000E8
:1000E000A5290000A5290000A5290000A5290000D8
:1000F000A529000059300000A5290000BD370000E7
:10010000A5290000393D0000A5290000A52900000F
:10011000A5290000A5290000A5290000A5290000A7
:10012000A5290000A5290000A5290000A529000097
:10013000A5290000A5290000A5290000A529000087
:10014000A5290000A5290000A5290000A529000077
:10015000A5290000A5290000A5290000A529000067
:10016000A5290000351D0000A5290000A5290000D3
:10017000A5290000A5290000A5290000A529000047
:10018000A5290000A5290000A5290000A529000037
:10019000A5290000A5290000A5290000A529000027
:1001A000A5290000A5290000A5290000A529000017
:1001B000A5290000A5290000A5290000574B4CF2F5
:1001C000205210B51A804DF628121A8000BF00BFC9
:1001D00002F0ECFB524B4FF010621A60514A9A60E9
:1001E000514ADA60A3F53043203B1A6812F480725A
:1001F00004D14E490A604FF4A8521A604C4B1A7849
:10020000110703D51A7842F008021A70494B4A4C7C
:100210004A482A221A704A4A00239918A14203D256
:10022000195899500433F8E7464B474900228B424E
:1002300002D243F8042BFAE74448454900235A58B0
:100240001A500433B3F5DE7FF9D1424B424A802184
:1002500003F8011B9342FBD1404B3C4A1A60404BD0
:100260008A221A70A3F5805324225A70A0221A7091
:100270009A799207FCD59A79D406FCD4394A9379B5
:1002800003F00C03082B374BF9D103221A714622D5
:100290005A719A799006FCD5324A9179314B4906C8
:1002A000FBD5314A4FF08271116009215160202243
:1002B0001A709A7902F00C020C2AFAD12B4B2C4AB4
:1002C0001A602C4B2C4A1A6000225A60072243F80D
:1002D000042C2A4AC3F80C2D62B601F0EBFB134B39
:1002E0001B68DA0705D5264801F032FA254B264A65
:1002F0001A60264B1B785B0609D5224C224A2368DC
:10030000934204D11E4801F023FA0023236003F036
:10031000B1FF02F051FB02F0C5FAFEE70E200540E6
:1003200030800440823F04000100002B14D00340C1
:1003300002D0074000E007405490FF1FF04F00003C
:100340006087FF1F5490FF1FA87900200082FF1FC5
:100350000000000000E400E05FE400E008ED00E0E1
:1003600000500640004006404480044004800440A1
:10037000C010050014E000E0BFD401000000202000
:10038000E66451591CE00340A5C3945A00F00740AD
:10039000FFFFFFFFFFFFFFFFFFFFFFFFFFFFFFFF6D
:1003A000FFFFFFFFFFFFFFFFFFFFFFFFFFFFFFFF5D
:1003B000FFFFFFFFFFFFFFFFFFFFFFFFFFFFFFFF4D
:1003C000FFFFFFFFFFFFFFFFFFFFFFFFFFFFFFFF3D
:1003D000FFFFFFFFFFFFFFFFFFFFFFFFFFFFFFFF2D
:1003E000FFFFFFFFFFFFFFFFFFFFFFFFFFFFFFFF1D
:1003F000FFFFFFFFFFFFFFFFFFFFFFFFFFFFFFFF0D
:10040000FFFFFFFFFFFFFFFFFFFFFFFFDEF9FFFF23
:1004100010B5054C237833B9044B13B10448AFF33E
:1004200000800123237010BD5490FF1F00000000C6
:10043000F04F000008B5064B1BB106480649AFF364
:1004400000800648036813B1054B03B1984708BD07
:1004500000000000F04F00005890FF1F5490FF1F55
:1004600000000000054B1B68194613F8012B202AD9
:10047000FAD0092AF8D0014B196070476076002045
:10048000F8B504460022174B1A70174E1D46174642
:1004900023782BB33068815C8B4202D10132013466
:1004A000F6E78031994205D013F0800F08BF631C36
:1004B00008D00DE002F1010C60440B4B1860FFF70F
:1004C000D1FFF8BD1C46013394F90020002AF9DA67
:1004D00001342B7801332B70FFF7C4FF3A46D7E77E
:1004E000F8BD00BF727600206076002038B5FFF7B7
:1004F000B9FF134B1A681378A3F13001C9B2092967
:100500001CD80132002041F6981506E0A84204D913
:100510000B4B1C604FF6FF7038BD00EB800003EB07
:100520004000303880B2144612F8013BA3F130018C
:10053000C9B20929EAD9024B1C6038BD002038BD78
:1005400060760020094B1868094B1A6890420CD05D
:10055000084B198803888B4203D3704703888B426A
:1005600003D2837818449042F8D170475C7600201B
:10057000647600207890FF1F10B4124B1A689378AD
:100580000A2B1BD0033200210C4699420DD0222B9E
:100590000DD0272B0DD069B9A3F16100C0B2192885
:1005A00008D8203B02F8013C04E0214602E019464D
:1005B00000E0194612F8013B0A2BE6D15DF8044B26
:1005C000704700BF6476002008B5034B1B680BB969
:1005D00002F0B4F808BD00BF8090FF1F08B50A20E4
:1005E000FFF7F2FF0D20FFF7EFFF08BD38B5FFF76B
:1005F00039FF4A4B1B681A782D2A07D10133474A25
:100600001360FFF7F3FF404280B284E0302A04D148
:100610000133424A136000207DE0A2F13101C9B2EA
:10062000082911D8002013F8012B00EB800002EB01
:100630004000303880B219461A78303AD2B2092ACE
:10064000F1D9364B196066E0A2F14101C9B219290E
:100650004CD859784139C9B219290AD902F1004256
:10066000413A2F49096831F8120001332B4A1360CF
:1006700051E02C48FFF704FF2B4B1C78052C46D08B
:10068000264B1B681A78282A41D1244D01332B6050
:1006900000F0A2F82B681A78292A38D101332B6090
:1006A000042C23D8DFE804F003060B151E001F4BB3
:1006B000185C30E000282EDA404280B22BE0C4B251
:1006C0002046002101F086F8204600F093FF80B21A
:1006D00021E0C4B22046002101F07CF8204601F060
:1006E0006BF818E002F0D2F880B214E00B4B1B68F4
:1006F0001A78282A0BD1094C0133236000F06CF8DA
:1007000023681A78292A02D10133236003E00122E9
:10071000074B1A70002000B238BD00BF6076002081
:1007200074760020A84C0000727600208490FF1F91
:1007300070760020F8B5FFF759FF0546FFF792FEE7
:100740000F4C104F012623681A782A2A07D101334B
:100750002360FFF74BFF00FB05F085B2F3E72F2A7C
:100760000BD101332360FFF741FF20B12DB295FB80
:10077000F0F5ADB2E7E73E70E5E728B2F8BD00BF9F
:10078000607600207076002038B5124B1B681B780D
:100790002D2B05D02B2B05D0FFF7CCFF054602E013
:1007A000002500E000250B4C23681A782D2A06D17D
:1007B00001332360FFF7BEFF281A85B2F4E72B2A26
:1007C00006D101332360FFF7B5FF284485B2EBE77C
:1007D00028B238BD6076002010B5FFF7D5FF04467B
:1007E000204B1B78002B37D11F48FFF749FE1F4BCA
:1007F0001B78072B31D0062B31D8DFE803F0040B30
:1008000011181F260B00FFF7BFFF8442B4BF002062
:10081000012025E0FFF7B8FF201A18BF01201FE0D4
:10082000FFF7B2FF8442D4BF0020012018E0FFF799
:10083000ABFF844214BF0020012011E0FFF7A4FFAA
:100840008442CCBF002001200AE0FFF79DFF8442D4
:10085000ACBF0020012003E002E0204600E00020C1
:1008600000B210BD70760020E04B000072760020D0
:1008700070B5051E03DA6D422D20FFF7A5FE124B61
:100880001A680024114E511E86FB0530EB17C3EB8E
:10089000A00303EB8300A5EB4005303502F8015CB3
:1008A0001D460134002B01DD0A46ECE7064B1960BA
:1008B000002C08DD1D462B6813F8010B2B60FFF799
:1008C00083FE013CF7D170BD6C76002067666666DA
:1008D00010B50446007828B1FFF776FE14F8010F32
:1008E0000028F9D110BD00BF08B5FFF7F1FFFFF7F1
:1008F00075FE08BD70B5FFF767FE264B1A68023219
:10090000254B1A60254D1C46254E2B78012B02D015
:10091000022B12D003E00022204B1A701BE001F0E2
:1009200063FE0028FBD001F013FEC0B20A2812D0EB
:100930000D2810D0082815D01FE00023174A137087
:10094000184A1360184B1B682BB10022164B1A6013
:100950000122164B1A60FFF741FE0F4B1B680A225B
:100960001A7070BD23680B4A12689342CDD0013BC8
:1009700023600F48FFF7B8FFC7E723683268023AE1
:1009800093420EBF082003F8010B2360FFF71CFE03
:10099000BBE700BF647600206076002071760020FF
:1009A000747600208090FF1F7090FF1F78760020E3
:1009B000FC4B000010B50E4C236833F8030B23608A
:1009C000FFF756FF2020FFF7FFFD226810780A2866
:1009D00007D0FFF7F9FD23685A1C226058780A28CF
:1009E000F7D10132024B1A60FFF7F8FD10BD00BFCE
:1009F0007C90FF1F2DE9F04F83B0B64BB64A1360D1
:100A0000B64A136003F56542D832B5490A6003F56A
:100A100065428832B3490A604EF252500344B24AEA
:100A20001360FFF725FFB148FFF75EFFB04F0026C8
:100A30000196A84800F56540D8300090AD4C01996A
:100A40003960009AA64B1A60AB48FFF74DFFA148EA
:100A500000F5654A0AF1D70AA84B1B682BB1A74BD2
:100A60001E609D4B1B683B60A0E13E20FFF742FFEC
:100A7000FFF782FD994BD3F8008008F1020525604D
:100A800098F802300A2B00F0418408F103031A465B
:100A9000013311780A29FAD12260934B1B6803F1C4
:100AA000FF3C03F8011C95420CD0614608F1020E90
:100AB000134613F8010D01F8010D7345F9D1C2EB8E
:100AC0000E029444C4F800C0FFF710FD83468C4B1F
:100AD0001880FFF7C7FCBBF1000F00F09D804FF6B8
:100AE000FF739B456FD0D4F8009099F800300A2B23
:100AF00007D033460133DBB219F803200A2AF9D1B3
:100B000000E033460433DDB2A9F10303236029F882
:100B100003BC09F8015CFFF715FD804515D003887B
:100B20005B4512D182780244B8EB020E09D0013A3B
:100B30008644034612F8011F03F8011B7345F9D1DF
:100B400000E08646654BC3F800E099F800300A2BB8
:100B500082D0002D80D0614B1968D4F800C0AE4619
:100B6000C1EB0C05754528BF754601EB0508B1EBD7
:100B7000000909D00B464246C9EB010913F8011DD3
:100B800002F8011D4B45F9D175B10CF1FF33411944
:100B900013F8012F00F8012B8842F9D1C5EB0E0E96
:100BA0000EF0FF0EAC440846BEF1000F05D14B4BD2
:100BB000C3F80080C4F800C04EE74146D0E7514872
:100BC000FFF792FE48E75048FFF78EFE44E74F4894
:100BD000FFF77EFE3B685BB1226815780A2D1CBFCB
:100BE0005E2111704A4A1360FFF7E4FE23681D700E
:100BF000FFF7F4FC30E74748FFF776FE1FE71A4699
:100C0000013311783A29FAD02260FFF72BFC2368D0
:100C10001B780A2B06D1C2E0256098F802300A2B17
:100C20003FF41AAF01F0E0FC38B101F091FC032869
:100C300003D13948FFF758FE01E73848FFF720FC99
:100C4000374B1D781C2D00F2AA8001A151F825F028
:100C500015110000BB120000290D00003D0D000021
:100C6000BF0B00006F0F00006F100000450D00006B
:100C7000670D00001F0F0000970F00009F0D000080
:100C80003F0E0000BF0D00004F110000CF1000000C
:100C90008D0D00003D130000BF0B00001712000077
:100CA0004F1100009F0D00002D12000031120000B6
:100CB000C50C00008D0D0000C5120000B51200002B
:100CC0006F100000174B1E70FFF786FD00F0DCFE72
:100CD00065E000BF8490FF1F5C76002064760020F2
:100CE0006C7600208076002074760020C84C0000CE
:100CF0006876002060760020004C000078760020A6
:100D00007890FF1F284C0000C04C0000F44B0000FE
:100D10007C90FF1FEC4B0000D84C0000384C0000CA
:100D2000727600207076002023681B780A2B7FF4EF
:100D30004EAFA74B1A68A74B1A608DE6A44B1B68F1
:100D40003B6033E0A44D2E70FFF746FD2B78002B5F
:100D50007FF439AF23681B780A2B3FF434AF0028A7
:100D60007FF460AF1BE09C4D2E70FFF735FD9B4B71
:100D700018802B78002B7FF426AF23681B780A2B72
:100D80007FF421AFFFF7DEFB38600FE023681B78AC
:100D90000A2B7FF41CAF8F4B1B683B6006E03B685F
:100DA000002B3FF459AE9A7813443B603B68894A64
:100DB000126893423FF443AE0333236032E7FFF7F8
:100DC00051FB236893F800B0ABF14102D2B2192A6B
:100DD0003FF6FDAE01332360FFF744FB23681B7829
:100DE0000A2B02D03A2B7FF4F2AEDFF8F891DFF84D
:100DF000E4812368C9F800303F20FFF77BFDFFF74F
:100E0000BBFBD8F8003002332360FFF72BFB724D99
:100E10002E70FFF7E1FC2B78002BEAD10BF1004B91
:100E2000ABF1410B6E4B1B6823F81B006D4B1B682D
:100E3000236023681A783A2A00F07282E5E6FFF709
:100E400011FB23681D78A5F14102D2B2192A3FF6A1
:100E5000BEAE01332360FFF705FB23681A783D2AF5
:100E60007FF4B5AE01332360FFF7FCFADFF8689139
:100E700089F80060FFF7B0FC804699F80030002B3D
:100E80007FF4A5AE5848FFF7FBFA584B1B78002BB0
:100E90007FF49DAEFFF7A0FC81464F4B1B78002BE3
:100EA0007FF495AE5248FFF7EBFA504B1B7833B9FD
:100EB000FFF792FC8346484B1B7813B187E64FF04F
:100EC000010BFFF7CFFA21680B780A2B00F02A827A
:100ED0003A2B3FF478AE7AE6464A136803F11002E3
:100EE0004548006890423FF686AEA3F110024148A3
:100EF000026005F10042413A3948006820F812804A
:100F0000462203F8102C03F80F5C23F80E9C23F8FC
:100F10000CBC43F8041C3A6843F8082C89E72E4DB2
:100F20002E70FFF759FC2D4B18802B78002B7FF487
:100F30004AAE23681A780A2A7FF445AE2D490A681A
:100F400002F10C012C48006888423FF654AEA2F131
:100F50000C0128480160472102F80C1C42F8043CAF
:100F60003B6842F8083CFFF7EDFA38601EE7FFF7F0
:100F700079FA23681A78413AD2B2192A3FF623AE99
:100F800001332360FFF76EFA23681B783A2B02D0F7
:100F90000A2B7FF41CAE174A1168184B19602068A1
:100FA0000B465FE01A78462A2AD0472A02D0134A15
:100FB000136044E50A2D09D1104A13605A683A605B
:100FC0009B6823600C310B4B196032E70C3349E00E
:100FD0005C76002064760020707600207890FF1FF9
:100FE000747600207C760020C84B000072760020CA
:100FF000CC4B00006C760020807600207490FF1FA0
:10100000052D2ED110F8012C93F801E0964528D13A
:101010001946B248036002F10042413AB0480568FF
:1010200035F812E09888704480B225F812009A884A
:1010300015B2002D04DDB3F9025003B29D4207DA68
:1010400012F4004F09D0B1F9023000B2834204DC3F
:10105000CB6823608B683B60EBE61031A1480160F0
:10106000E7E6103353459DD39C4A1360ABE52368F4
:101070001D78A5F14102D2B2192A3FF6A4AD05F1BF
:101080000045413D964AD2F8009001332360FFF7B6
:10109000E9F923681A783D2A7FF499AD013323607A
:1010A000FFF7E0F9DFF8408288F80060FFF794FB73
:1010B00098F80030002B7FF48AAD23681B780A2B48
:1010C00002D03A2B7FF483AD29F81500B1E6864DA6
:1010D0002E70FFF781FB2B78002B7FF478ADFFF7A4
:1010E000C1F923681A782C2A7FF471AD013323608B
:1010F000FFF7B8F92E70FFF76FFB2B78002B7FF40A
:1011000066AD23681A780A2A3FF47FAD3A2A00F0C8
:1011100007815CE5FFF7EAF9744B188023681B78B8
:101120000A2B7FF454ADFFF70DFA714B1860714B29
:101130001B6883423FF483ACDFF8B4816D4DFFF749
:1011400039FC2B68D8F800209A42F8D177E423685C
:101150001B783A2B05D1FFF741FA2368013323604E
:1011600067E60A2B3FF41BAEDFF87C81FFF77AF9C4
:1011700021680D78222D01D0272D27D101F1010EF4
:10118000C4F800E04B789D4217D00A2B00F0D080C5
:10119000724602E00A2B00F0CB8012F8013F9D421C
:1011A000F8D1487885420AD0FFF70EFA23685A1C16
:1011B000226058788542F7D102E0724600E072461C
:1011C000013222600DE0272B3FF401AD88F800606A
:1011D000FFF702FB98F80030002B7FF4F8ACFFF724
:1011E00047FB23681A782C2A02D101332360BDE71C
:1011F0003B2A08D15A780A2A02D03A2A7FF4E7AC6F
:101200000133236015E60A2A02D03A2A7FF4DFACC4
:10121000FFF7E4F90DE6324B1868364B1B68C01A2D
:10122000FFF726FB3448FFF75FFB02E6B04601E01C
:101230004FF001082C4D2E70FFF7CEFA81462B7827
:10124000002B7FF4C4ACFFF70DF923681A782C2A21
:101250007FF4BDAC01332360FFF704F92748FFF7A3
:101260000FF9274B1B78042B06D0012B8CBF4FF0B6
:10127000000B4FF0010B08E01B4D2E70FFF7ACFA8E
:1012800083462B78002B7FF4A2AC5FFA89F52846C1
:10129000012100F09FFAB8F1000F05D028465FFA4F
:1012A0008BF100F065FAC4E528460FFA8BF100F0E7
:1012B000D1FABEE50122134B1A60134B1A680D4B8D
:1012C0001A607CE4084D2E70FFF786FA2B78002B0D
:1012D0007FF47DAC01F0A4FAABE500BF7490FF1F72
:1012E000747600206C760020707600207890FF1FC6
:1012F0007C90FF1F64760020C84C0000D44B000097
:10130000727600207090FF1F5C7600200D4B1B68EA
:1013100003F1FF3C98F8022003F8012CFFF7D2BB41
:1013200001336CE4084B1B78002B3FF4D5AD4AE445
:1013300023681B78222B7FF446AF48E403B0BDE856
:10134000F08F00BF747600207076002038B51B4AFD
:101350001B491C4D1C4C137813F0FF0FFBD00B786E
:1013600013F0030FF7D028682368C31A182BF2D99B
:10137000164C23685B68204615490522984720468D
:1013800001F03EFA1348FFF7AFFA0D20012100F0FB
:1013900021FA0D20012100F0EBF94FF4FA7000F072
:1013A00073FB0D20002100F0E3F94FF4FA7000F018
:1013B0006BFB0D20012100F0DBF938BD70770020B8
:1013C000807700208C760020A0790020887700208C
:1013D000044C00000C4C000030B4394A3949136801
:1013E00013F0800FFBD10B6813F0800FF7D172B6AA
:1013F000354B1B78002B5FD0344B1C6804331D68C1
:10140000043318680433196804331A6804331B68FA
:101410002C44204401440A441A44C2F34E0242F4CC
:1014200000422B4B1A602C331C6804331D680433B4
:1014300018680433196804331A6804331B682C4491
:10144000204401440A441A44C2F34E0242F40042CA
:10145000204B1A6003F108131C6804331D68043321
:1014600018680433196804331A6804331B682C4461
:10147000204401440A441A44C2F34E0242F400429A
:10148000154B1A602C331C6804331D68043318682C
:101490000433196804331A6804331B682C4420444D
:1014A00001440A441A44C2F34E0242F400420B4B78
:1014B0001A600022044B1A7062B630BC704700BF3D
:1014C00024B0034024B00B408576002038B00340A0
:1014D0002CB0034030B003402CB00B4030B00B4078
:1014E00060223A4B1A70E12201331A70384B1B7894
:1014F000082B10D1212203F1804303F56C331A60CD
:10150000132334490B6001F5FF2101F2FC710A60DD
:10151000314A13601FE00A2B0DD139222F4B1A607C
:1015200013232C490B6001F5FF2101F2FC710A60C5
:10153000294A13600FE00C2B0CBF35225D22274B8C
:101540001A60122323490B6001F5FF2101F2FC719F
:101550000A60214A1360224B1B7833B10123214AD0
:10156000136002F50022136005E000231D4A13609A
:1015700002F5002213601C4B1B78012B06D8802338
:101580001A4A136002F5002213601AE0042B06D8F1
:101590008423164A136002F50022136011E0082B21
:1015A00006D88523114A136002F50022136008E073
:1015B000102B94BF862387230C4A136002F5002268
:1015C000136001220A4B1A70704700BF00400740A9
:1015D0006087FF1F0CB003400CB00B4008B0034005
:1015E0008876002020B003406187FF1F24B00340AD
:1015F000857600202DE9F843282873D83C4B1E5CE3
:10160000FF2E72D03B4B1B780BB1FFF7E5FE16F0B7
:10161000800F29D172B6384C384D4FF00107266043
:101620002F7062B672B6236813F0800F04D12B7846
:1016300013F0FF0F0FD1F2E7314B186800222F4B48
:101640001A7062B62F4B1B781841BDE8F8832B78CF
:1016500013F0FF0FE3D062B601F05CF972B62368B5
:1016600013F0800FF3D0E7E772B606F040095FFA97
:1016700089F9254F254C06F03F06254D4FF001080E
:10168000B9F1000F04D03B6823F010033B6003E086
:101690003B6843F010033B60266085F8008062B62B
:1016A00072B6236813F0800F04D12B7813F0FF0F6C
:1016B0000FD1E5E7174B18680022154B1A7062B678
:1016C000104B1B781841BDE8F8832B7813F0FF0FFF
:1016D000D6D062B601F01EF972B6236813F0800FFF
:1016E000F3D0E7E70020BDE8F8830020BDE8F883E9
:1016F000E04C00008576002000B003408776002093
:1017000010B00340847600200CB00B4000B00B40BA
:101710008676002010B00B40094B1A6842F48052C4
:101720001A60084B1B781BB18022074B1A7002E02D
:10173000C022054B1A7080F30C00044B18807047D0
:101740002C8004408876002021C00C4000C00C4052
:10175000044B00221A6004490A60044A10601022F7
:101760001A60704714D0034004D0034000D00340F7
:1017700021281ED80F4B53F8303093F8802212F0F6
:10178000FF0F08D019B1012283F880207047012291
:1017900083F800217047074B03EBC000436821B179
:1017A0001A6842F003021A6070471A6822F00202B7
:1017B0001A6070470C4D0000212806D8044B53F8DE
:1017C000303093F80002C0B270470020704700BF6D
:1017D0000C4D000021283AD81D4B03EBC0035B6879
:1017E000012919D0042925D0194A52F830200020A7
:1017F00082F8800219B94FF480721A60704702298A
:1018000003D140F203121A60704703290CBF4FF452
:10181000817200221A6070470D4A52F8302001216F
:1018200082F880124FF4A2721A601A6822F0200225
:101830001A607047064A52F83020012182F880125F
:101840004FF4A2721A601A6842F020021A607047C0
:101850000C4D000010B5044628280FD15D4B1B78B5
:101860000B2B03D8C3F10C03994003E00C2B84BF6E
:101870000C3B19410846FFF74FFF10BD554B1B7835
:10188000012202FA03F0002908DC20460021FFF7BC
:101890006FFF20460121FFF79DFF10BD0A468842D9
:1018A00008D820460121FFF763FF20460121FFF7FA
:1018B00091FF10BDE01EC0B2012806D8464800685E
:1018C00000FB011222FA03F310E0202C01D0192CA6
:1018D00006D14248006800FB022222FA03F305E029
:1018E0003F48006800FB011222FA03F3E01E1D28A6
:1018F00064D8DFE800F0474E402B63631D24636328
:101900006363636363636332390F16635C636363AA
:1019100063636355334A136040F24442324B1A60AA
:1019200010BD324A136040F24442314B1A6010BD80
:10193000304A136040F244422F4B1A6010BD2F4AC8
:10194000136040F244422E4B1A6010BD2D4A1360C2
:1019500040F244422C4B1A6010BD2C4A136040F2F6
:1019600044422B4B1A6010BD2A4A136040F2444295
:10197000294B1A6010BD294A136040F24442284B9B
:101980001A6010BD274A13604FF45172264B1A603B
:1019900010BD264A13604FF45172254B1A6010BDDA
:1019A000244A13604FF45172234B1A6010BD234A2E
:1019B00013604FF45172224B1A6010BD20467F29EC
:1019C000D4BF00210121FFF7D3FE20460121FFF7FC
:1019D00001FF10BD6287FF1F0890034008800B4085
:1019E000088003401080034004B004401880034086
:1019F00008B00440208003400CB00440288003401D
:101A000010B004403080034010C0044038800340D0
:101A100014C004404080034018C004404880034084
:101A20001CC00440109003403090044018900340C4
:101A30003490044010800B4048A0044018800B40B4
:101A40004CA0044072B60C4B1B680C4A12680C493F
:101A5000096862B611F0806F02D0322B88BF013264
:101A6000C3F5EA33BF330749A1FB03039B094FF4D6
:101A70007A7000FB0230704718E000E08C7600209E
:101A800004ED00E08988888838B50546FFF7DAFF5D
:101A9000044625B938BD013D0AD004F57A74FFF734
:101AA000D1FF001BB0F57A7FF5D200F033FFF6E7E7
:101AB00038BD00BF10B5264B4FF400021A604FF03E
:101AC00080721A604FF000721A604FF080621A60E4
:101AD0004FF000621A6000201E4B18604EF6FF7136
:101AE0000433196028231C4A13600832136008323B
:101AF0001360083213600832136008321360083232
:101B00001360083213600922144C226004F58054DB
:101B100004342060043421600434236008342360DA
:101B2000143C226004F5FE24043420600C4801605B
:101B30000C490B6008310B600B4B1A60FFF7D0FCAF
:101B40004FF4C870FFF7A0FF00F074FC10BD00BF99
:101B500008E100E0048003400C8003400080034063
:101B600008800B400C800B4000800B4030B40E4BC3
:101B70001B7843F002020D4C04EBC20460600C4879
:101B8000007800280CBF8824C82444EA0141074D8E
:101B900045F8321080F00100054A107083F001030F
:101BA000014A137030BC7047F87600200080FF1F98
:101BB0007177002010B4431E032B11D872B60A4A65
:101BC00052F8230050B14268074941F82320074AE0
:101BD00032F813400188611A22F8131062B600E04F
:101BE00000205DF8044B7047E876002090790020D3
:101BF000013803280DD872B6074B53F820302BB1AB
:101C0000002001305B68002BFBD100E0002062B6B1
:101C100070470020704700BF3C77002038B572B68F
:101C200001231B491B4C5A1812F8012C12F0080F03
:101C300024D09A0054F832506DB9164B03EBC20110
:101C400008304860144943F83210144B1A78013AAE
:101C50001A7062B638BD42F0010254F832506DB9C4
:101C60000C4B03EBC201083048600D4943F83210B9
:101C70000A4B1A78013A1A7062B638BD0133052B47
:101C8000D1D162B60022054B1A7000F037FC38BD86
:101C9000484E00000080FF1F88004000667700204B
:101CA000C800400010B4431E032B37D8400140F059
:101CB00010001C4A104472B61B4AD25C032A09D891
:101CC000DFE802F019021B050830022216E0083096
:101CD000042213E0154A52F823201AB9134A42F895
:101CE000231003E0124A52F823205160104A42F8B0
:101CF000231062B612E0032200E005220A4CE254EF
:101D000001F10803436000F00803002B0CBF882397
:101D1000C8230A8843EA0243036062B65DF8044BB5
:101D2000704700BF0080FF1FA47600203C77002092
:101D30004C7700202DE9F84FA34CDFF8E092DFF854
:101D4000E0A2DFF8E0B22578EDB215F0040F1DD067
:101D50009E4B1B7813F0FF0F16D09D4B1B7803F0A2
:101D6000FF022BB1531EDBB2994A137003B900BEB8
:101D7000984B1B7803F0FF0233B1531EDBB2954A38
:101D800013700BB900F018FD0423237015F0080F31
:101D900000F0E48299F80030DBB21D0940F02182A6
:101DA0008D4D9E0805EBC6035A6855F83630C3F3CF
:101DB0008303013B0C2B00F21082DFE813F0CB0110
:101DC000CB010E020E020E020E020E020E02E801FE
:101DD0000E020E020E020D00804913680B6052685D
:101DE0004A607F4A45F8362000227E490A607A49D7
:101DF0000A618A6101217C4A11709BB240F28162C2
:101E0000934218D8B3F5D06F2ED2B3F5817F00F08E
:101E10001E8106D8802B00F0C980822B00F0CC8078
:101E200066E140F20232934200F02681B3F5A06FE2
:101E300000F062815CE142F22102934200F086816F
:101E400007D8B3F5086F00F0AB80B3F5106F11D071
:101E50004EE142F22122934200F0418142F22132CE
:101E6000934200F0498143E1604B5D68002D40F0F2
:101E7000188130E1594B9A78544B1A70564D05F140
:101E800080062B6A13F0800F03D0686A083800F0D0
:101E900035FB0835B542F4D1DFF88C810026374692
:101EA000534AB05828B1456800F028FB0DB12846C8
:101EB000F9E700234E4973504E4AB3504E4BF05849
:101EC00028B1456800F01AFB0DB12846F9E7002358
:101ED00049497350494AB35028F8023F484BFB5CCC
:101EE000023B032B0AD8DFE803F0020602060022B9
:101EF000434BDA5502E00122414BDA5501370436F3
:101F0000102ECDD100223F4B1A7001253E4EDFF836
:101F10001C81314F05EB080313F8013C06F8043B24
:101F200013F0080F2DD000F0C9FA48B1A90007EB53
:101F3000451200F108035360344A47F8312007E0A6
:101F4000AB00002247F833202E4B1A7801321A706A
:101F500000F0B4FA58B1AB0043F0010307EBC30142
:101F600000F108024A601E4A47F8332009E0AB003E
:101F700043F00103002247F83320224B1A78013244
:101F80001A70AA0042F00201002347F8313042F0F3
:101F9000030247F8323001351D4B9E42BAD11EE292
:101FA0000A4B1B781B4D2B700127AAE0194D00230B
:101FB0002B706B700227A4E0084B9B88042B37D949
:101FC0000F22154B1A70C1E0802007407077002067
:101FD000F9760020727700200080FF1F5C770020D8
:101FE000C800400090760020717700204C4E000021
:101FF000E8760020947600203C7700204C77002083
:10200000A476002066770020C420074088004000A6
:10201000D420074068770020C02007409020074068
:1020200094200740982007408E790020484E0000F9
:10203000A04A0021117051709F4A12F8233013F00A
:10204000020F5CD09B4D01232B70022759E09B4B64
:102050009B8803F07F03042B02DC984A52881AB154
:102060000F22954B1A7071E0934A12F8231021F059
:10207000020102F82310B2E1904B9B8803F07F032A
:10208000042B02DC8D4A52881AB10F228A4B1A7037
:102090005CE0894A12F8231041F0020102F8231093
:1020A0009DE1864B5E889F88854BA3F10C0211460B
:1020B00033F80C0CB04209D133F80A0CB84205D100
:1020C000360A032E0CBF2F7817891AE00D690C33DE
:1020D0000C32002DEBD10F22774B1A7036E0794B82
:1020E0001A68794B1A60754B9A78784B1A7076E1BA
:1020F0000F22714B1A7029E000273D4601E00227AC
:102100006C4D6E4BDB889F4228BF1F46402F34BF6B
:102110003E46402628463146FFF728FD3544BF1B82
:1021200003D13F2E00F2608110E0402F34BF3E46C5
:10213000402628463146FFF719FD3544BF1B01D123
:102140003F2E03D9624B1D60624B1F8001238AF82A
:10215000003042E0594B198842F22103994212D1D2
:102160005D4BD81D12F8011B03F8011F8342F9D102
:102170005A4B1B68862B02D10F22594B1A70002034
:102180000146FFF7F3FC574B45F8363025E0504B3E
:102190001E68BEB14F4FB7F80080B8F1400F34BF92
:1021A0004546402530462946FFF7E0FCC5EB0803CD
:1021B0009BB23B800BB9402D01D1354400E0002596
:1021C000434B1D603D4B1B88B3F5A06F05D13B4BC6
:1021D00000225A709B788BF8003001238AF8003077
:1021E000B9E0414E9F0806EBC708D8F80420A2F1D9
:1021F0000800013DEDB213F0080F47D000F07EF962
:102200003A4B53F825304BB35A68384941F82520EA
:1022100003F10802C8F80420354A525D032A12D897
:10222000DFE802F002060A0E0321314A51550AE0A6
:1022300002212F4A515506E005212D4A515502E051
:1022400004212B4A515518F0080F0CBF8822C822D0
:102250001B8842EA034346F837307CE0244B5B5D41
:10226000032B0BD8DFE803F0777702060022204B20
:102270005A5570E001221E4B5A556CE018F0080FB9
:102280000CBF022203221A4B5A5564E056F837302D
:102290001B0C22F8083C002B55D0002322F8063CEA
:1022A00042F8043C134B53F825302BBB114B43F839
:1022B000250025E068770020C02007405C770020DB
:1022C000584E00008C760020A079002080770020F6
:1022D000907600206477002097790020987900207C
:1022E000F9760020C80040000080FF1F3C770020E6
:1022F000A4760020E87600203F4B53F82530586044
:102300003D4B43F825003D4B33F8151032F8082CAF
:102310000A4423F8152000F0D1F860B100F1080359
:10232000C8F8043018F0080F354B364A08BF13467A
:1023300046F837300FE0002346F83730324B1A7832
:1023400001321A7007E018F0080F2D4B2D4A08BF14
:10235000134646F8373008232370F4E415F0010FD4
:1023600022D02A4902230B700022294B1A70294BD4
:1023700024481860284C5C6098602848D8601A612E
:102380009A610D20264B1870FF23264803700838E9
:10239000037018300270244A13709F22234B1A7066
:1023A00001230B70BDE8F88F15F0800F05D00D22CA
:1023B0001B4B1A708022403B1A7015F0020F06D09A
:1023C000184B1A78D2B21A700222083B1A7015F014
:1023D000100F0ED01022164B1A70BDE8F88F002097
:1023E0000146FFF7C3FBB1E628460021FFF7BEFB1D
:1023F000ACE6BDE8F88F00BF94760020907900200D
:10240000C800400088004000667700209420074004
:10241000F87600200080FF1FA8760020FC760020C0
:10242000C0200740882007408C20074084200740B8
:102430008020074008B501F0F3FC00231B491A4631
:102440005A50C81842600833882BF9D1184B1A68C3
:1024500042F480221A60154BC3F30721154A11700C
:10246000C3F30741143211701B0E04321370FF23A3
:10247000343A137008321370783A1370012384329F
:10248000137000216C3211707C3A137070220A4B69
:102490001A704FF40072A3F241331A60102203F154
:1024A000C04303F5C8231A7008BD00BF0080FF1F9A
:1024B000348004409C20074049E400E072B60D4B94
:1024C0001A68B2FA82F30B2B02D962B60020704769
:1024D0004FF00041D94022EA010206490A6062B683
:1024E000054903EBC303DB00C8180022CA50426051
:1024F000704700BF6487FF1F0084FF1F08B50F4BA4
:10250000C31A0F4AA2FB03131B090B2B14D80D4A45
:1025100012783AB10C4A127812F0FF0F02D0FFF78E
:102520007DFB08BD72B6094A4FF0004121FA03F362
:1025300011681943116062B608BD00BF0084FF1F17
:10254000398EE33866770020707700206487FF1F9C
:1025500010B5134B1B6853B9124B1B7813F0FF0FC8
:1025600018D00320FFF726FB0D4B1860A8B10C4BC9
:10257000186843885A1C03441C7A03889A4206D37D
:10258000FFF7BCFF0022064B1A60204610BD4280B8
:10259000204610BD4FF0FF3010BD4FF0FF3010BD92
:1025A0007C7700207077002008B50D4B1B6883B93D
:1025B0000C4B1B7813F0FF0F08D00320FFF7FAFA3B
:1025C000074B186028B94FF0FF3008BD4FF0FF30BF
:1025D00008BD034B1B685A881344187A08BD00BF16
:1025E0007C77002070770020044B9888044B1B6890
:1025F0001BB11A885B88D31A184470479079002061
:102600007C77002010B50B4B1B7813F0FF0F0FD019
:10261000094B186820B1FFF771FF0022064B1A60C2
:1026200003242046FFF7C6FA10B1FFF767FFF8E76B
:1026300010BD00BF707700207C7700202DE9F84F97
:1026400004460122384B1A708B46002965D00E468D
:10265000DFF8E080DFF8E0909A46344FD8F8003099
:1026600083BB99F8003013F0FF0F06D100222E4BE8
:102670001A704FF0FF30BDE8F88F4DF2E9050420E5
:10268000FFF7B6FA07280AD801238AF80030FFF7C7
:1026900015FFC8F80000A8B900238AF80030013DF2
:1026A00001D03B7833B10122204B1A704FF0FF303C
:1026B000BDE8F88F00F02EF999F8003013F0FF0F05
:1026C000DDD1D3E700233B70D8F800104A88C2F16F
:1026D0004005AE4238BF354602F108030B442A4498
:1026E0004A80761B3DB1254414F8012B03F8012BD9
:1026F000AC42F9D100E025464B883F2B07D9402357
:102700000B800420FFF7CEFA0023C8F80030052222
:10271000074B1A700EB12C46A0E70022024B1A702C
:102720005846BDE8F88F00BF737700207877002007
:1027300072770020747700207077002000B583B096
:1027400002AB03F8010D18460121FFF777FF03B034
:102750005DF804FB10B5144B1B7813F0FF0F21D06C
:102760000122124B1A70124B196851B10024114BFF
:102770001C704B880B800420FFF794FA0C4B1C60F4
:102780000DE0FFF79BFE014630B10022094B1A70A5
:102790000420FFF787FA02E00122064B1A7000229C
:1027A000024B1A7010BD00BF7077002073770020B5
:1027B000747700207277002008B50E4B1B7813F059
:1027C000FF0F16D10C4B196841B14B880B800420C8
:1027D000FFF768FA0022084B1A6008BDFFF76EFE8B
:1027E000014618B10420FFF75DFA08BD0122034B32
:1027F0001A7008BD7377002074770020727700206C
:1028000000B583B0054B1B88ADF8043003685B68E6
:1028100001A90222984703B05DF804FB1C4E00009A
:1028200008B1014A106070478477002010B4124B41
:102830001968D9B1114C81FB0423CA18CB17C3EB1B
:1028400022420F4800FB121284FB01042144C3EB17
:1028500021430C4800FB03F344F2A71000FB0230B5
:10286000002804DA00F10040013800E00648024B7D
:1028700018605DF8044B7047847700205F0B4E832F
:102880001DF30100ECF4FFFF42CE0C1F10B504460F
:1028900030B1FFF7CBFFB0FBF4F303FB140010BD26
:1028A000002010BD08B5FEF751FDFEF7A3F800F0BB
:1028B00031F8FAE708B5FFF797FE08BD08B5FFF74E
:1028C00047FE08BD08B5FFF76FFE08BD08B5FFF766
:1028D00041FF08BD08B5FFF795FE08BD08B50846DD
:1028E000FFF72CFF08BD00BF08B508461146FFF7EB
:1028F000A5FE08BD704700BF044B00221A714FF4BB
:102900007A7199601A73024A1A60704788770020BA
:10291000284E000008B50F4B1B78CBB901220D4B98
:102920001A70FFF761FE08B1FFF7E4FF00F00AFB41
:1029300008B101F04BFB00F0B7FE08B101F0E8FB75
:1029400001F084F908B101F085FC0022014B1A70F6
:1029500008BD00BF98770020024B1A6801321A6048
:10296000704700BF8C76002008B50D4C236813F427
:10297000802F01D0FFF7DEF9236813F4806F01D0B8
:1029800000F06AFB236813F4006F01D000F016FF1B
:10299000236813F4805FE9D001F0CEF9E6E700BFC9
:1029A0003480044008B5FFF7DFFF00BF1022014B61
:1029B0001A80704700200540704700BF024A136824
:1029C00018441060184670476887FF1FEFF31383A1
:1029D000ABB9EFF31083ABB9EFF3058323B10F2B42
:1029E00005D9094A985C03E04FF4807000E00020AC
:1029F000EFF311833BB1834238BF184670474FF065
:102A0000FF30704700207047F0E300E030B400234F
:102A1000B0FBF2F402FB14041D46092C94BF3034C1
:102A20003734E4B2CC54B0FBF2F008B10133EFE735
:102A30000D4400226A70934207DD885CCC5C8C54A4
:102A4000C8540132013B9A42F7DB084630BC70475C
:102A5000254B1A6842F480621A600023234A1370DF
:102A6000234A1370234A1370234A1370234A1370A6
:102A7000234B1B7813B1152B05D008E040F213321D
:102A8000204B1A6003E040F213321F4B1A601F4BB9
:102A90001B78012B02D0052B05D008E04FF45172B2
:102AA0001B4B1A6003E04FF451721A4B1A60C0F3CB
:102AB0004432194B1A70C0F347125A7000F01F00CD
:102AC000987204229A700221D9745A7588221A7455
:102AD0003C22DA704022114B1A704FF40052A3F2DC
:102AE00029331A60704700BF3480044028780020E2
:102AF000A17700203078002029780020A0770020DE
:102B0000E477002040A0044018C004406C87FF1FF9
:102B100044A004401CC0044000A006402DE400E096
:102B2000164B9B7803F0EC0300F00302134310F004
:102B3000040F18BF43F01003104A937000F00F0306
:102B4000042B04D11346927942F040029A710B4B48
:102B50005A7902F0EF0210F0100F18BF42F0100285
:102B6000064B5A719B7903F0EF0310F0200F18BF4A
:102B700043F01003014A9371704700BF00A0064064
:102B800010B5144B1B6813F4806F21D0124B1B78C7
:102B900013F0FF0F06D0104CFFF7BCFE237813F0A4
:102BA000FF0FF9D14FF400520C4B1A6000230C4A6E
:102BB000D37040F203120B490A6004310A600A4ADA
:102BC00013700A4A13700A4B1B680BB101221A706A
:102BD00010BD00BF34800440A077002084E100E0F5
:102BE00000A0064040A0044028780020A1770020E3
:102BF0009C77002010B50446094A137813F0FF0FA4
:102C0000FBD120460121FEF7E5FD20460021FEF71D
:102C1000AFFD044B53F83420034B1A6010BD00BFC6
:102C2000A07700200C4D00002C78002010B40C463A
:102C300009B140F08000184B1B78984228D0174A01
:102C4000126812F4806F21D003F07F03012B02D0B1
:102C5000052B04D006E00022114B1A6002E000228E
:102C6000104B1A60002C0CBF4422602200F07F033E
:102C7000012B02D0052B05D008E042F44072084B2E
:102C80001A6003E042F44072064B1A60024B18705F
:102C90005DF8044B704700BF6C87FF1F3480044011
:102CA00044A004401CC00440114B1B7898421ED025
:102CB000104A126812F4806F17D013B1152B04D08C
:102CC00006E000220C4B1A6002E000220B4B1A6057
:102CD00010B1152805D008E040F21332064B1A60F7
:102CE00003E040F21332054B1A60014B1870704735
:102CF000E47700203480044040A0044018C0044021
:102D000010B50D4B1B6813F4806F12D021280CD81E
:102D10000A4C0B4B53F8303023600121FEF75AFD6B
:102D2000236800221A70012010BD0020034B186098
:102D300010BD002010BD00BF348004409C770020EF
:102D40000C4D0000114B1B6813F4806F1BD0122830
:102D500004D140F202320E4B1A600DE0142804D167
:102D600040F202320B4B1A6006E00B4B5A7B02F02A
:102D7000FE025A7300207047074B5A7B42F0010253
:102D80005A73012070470020704700BF3480044010
:102D90000CA0044014C0044000A006402DE9F041FE
:102DA00007461F4B1B6813F4806F37D01D4B1B6801
:102DB0000BB101221A701C4B1C780134402C28BF27
:102DC00000241A4D1A4EDFF86C8017E0FFF7FEFD65
:102DD00040280FDC337913F0800F0FD02B780133AC
:102DE000402B28BF002318F80320D2B2F271DBB2C7
:102DF0002B7003E0FF2801DDFFF78CFD2B78DBB2A1
:102E00009C42E3D0FFB20B4B1F5501220A4B1A70B4
:102E1000E4B2054B1C70BC22054BDA70BDE8F081B2
:102E2000348004402C78002030780020297800205D
:102E300000A00640A4770020A07700202DE9F84FDD
:102E40000746284B1B6813F4806F49D0264B1B683C
:102E50000BB101221A7007EB010B5F453DD2DFF881
:102E60009890224EDFF88C80DFF890A099F800400F
:102E70000134402C28BF00243578EDB2A54220D182
:102E8000BC2388F80330FFF7A1FD402811DC98F837
:102E9000043013F0800F10D033780133402B28BF5B
:102EA00000231AF80320D2B288F80720DBB233706F
:102EB00003E0FF2801DDFFF72DFD3378DBB29D42F3
:102EC000E1D017F8013B0AF804300122084B1A70D0
:102ED000E4B289F800405F45C8D1BC22054BDA70E6
:102EE000BDE8F88F348004402C7800202978002039
:102EF000A077002000A0064030780020A4770020B2
:102F000010B5064B1B7813F0FF0F06D0034CFFF7EC
:102F100001FD237813F0FF0FF9D110BDA077002039
:102F2000064B1B78DBB2064A1278D2B293422CBF12
:102F30003F3202F1FF32D01A704700BF30780020D4
:102F400029780020054B1878C0B2054B1B78DBB2FE
:102F5000984238BF4030C01A704700BF2878002020
:102F6000A177002010B4184B1A78D2B2174B1B78F7
:102F7000DBB29A4218D001333F2B18D81449C85CF1
:102F8000C0B2DCB211490C7012490968C9B19A4249
:102F900003D300E00023D31A01E04032D31A1A2BE6
:102FA0000FDC00230B700CE04FF0FF3009E0084B02
:102FB0001878C0B20021054B1970064B196800291A
:102FC000E8D15DF8044B704728780020A1770020F5
:102FD000E87700209C770020094B1A78D2B2094B81
:102FE0001B78DBB29A4207D00133402B28BF002365
:102FF000054AD05CC0B270474FF0FF30704700BF49
:1030000028780020A1770020E87700200D4B1B686E
:1030100013F4806F14D00C4BDA7802F0CB02DA7024
:1030200040225A74DA7842F03402DA70074B1A7888
:10303000D2B2074B1A70074B1B680BB100221A70F3
:10304000704700BF3480044000A00640A1770020F4
:10305000287800209C77002070B43D4B1B7913F03A
:10306000300F33D072B63A4B9B7D03F0FF022BB981
:10307000374BDA7940225A7462B627E062B6354B94
:103080001978C9B2344B1C78E4B2314D334EEB7928
:10309000D8B24B1C402B28BF0023A3421CBFF054C6
:1030A0001946531E13F0FF02F1D1CAB2294B1A7010
:1030B0002B4B1B6853B1A1422EBFC4EB0101C4F1DD
:1030C000400409192729C4BF01221A70204BDA785D
:1030D000D2B212F0800F27D01B7913F0800F23D0CB
:1030E000204B1C78E4B2204B1B78DBB29C4210D002
:1030F00017491E4D01E0A3420BD00133402B28BFDE
:1031000000230879E85CC0B2C871087DC0B2072806
:10311000F1D9DBB214490B700D4B1B7913F0800F02
:1031200002D07C210A4BD97012F0400F0ED0084B10
:103130001B7913F0400F09D000220D4B1A700D4B74
:103140001B6803B11A703C22014BDA7070BC7047E7
:1031500000A0064028780020A1770020E877002012
:103160009C7700203078002029780020A477002068
:10317000A07700202C780020254B1A6842F40062CA
:103180001A600023234A1370234A1370234A1370D2
:10319000234A1370234A1370234B1B78092B02D048
:1031A0001A2B05D008E040F21332204B1A6003E0DE
:1031B00040F213321E4B1A601E4B1B780A2B02D0B2
:1031C0001F2B05D008E04FF451721B4B1A6003E02F
:1031D0004FF45172194B1A60C0F34432184B1A70F5
:1031E000C0F347125A7000F01F00987204229A70C0
:1031F0000221D9745A7588221A743C22DA7040224E
:10320000104B1A704FF40042A3F22B331A60704730
:1032100034800440A478002039780020AC78002065
:10322000A5780020387800206D87FF1F0CB004407F
:1032300004D004406E87FF1F10B0044000D004404B
:1032400000B006402FE400E0164B9B7803F0EC033F
:1032500000F00302134310F0040F18BF43F01003F3
:10326000104A937000F00F03042B04D11346927997
:1032700042F040029A710B4B5A7902F0EF0210F0C3
:10328000100F18BF42F01002064B5A719B7903F0E1
:10329000EF0310F0200F18BF43F01003014A9371A1
:1032A000704700BF00B0064010B5224B1B6813F4F6
:1032B000006F3ED0204B1B7813F0FF0F06D01E4C42
:1032C000FFF728FB237813F0FF0FF9D14FF40042EA
:1032D0001A4B1A6000221A4BDA701A4B1B78092B12
:1032E00002D01A2B05D008E040F20312164B1A60E8
:1032F00003E040F20312154B1A60154B1B7803F0E4
:103300007F030A2B02D01F2B05D008E040F20312E6
:10331000104B1A6003E040F203120F4B1A600023B7
:103320000E4A13700E4A13700E4B1B680BB101222C
:103330001A7010BD348004403878002084E100E029
:1033400000B006406D87FF1F0CB0044004D004405D
:103350006E87FF1F10B0044000D00440A478002006
:10336000397800203478002010B50446094A1378D3
:1033700013F0FF0FFBD120460121FEF72BFA204668
:103380000021FEF7F5F9044B53F83420034B1A6083
:1033900010BD00BF387800200C4D0000A878002038
:1033A00010B40C4609B140F08000184B1B789842CD
:1033B00028D0174A126812F4006F21D003F07F035F
:1033C0000A2B02D01F2B04D006E00022114B1A60FA
:1033D00002E00022104B1A60002C0CBF4422602235
:1033E00000F07F030A2B02D01F2B05D008E042F427
:1033F0004072084B1A6003E042F44072064B1A60B8
:10340000024B18705DF8044B704700BF6E87FF1FBA
:103410003480044010B0044000D00440124B1B78AC
:10342000984220D0114A126812F4006F19D0092B6B
:1034300002D01A2B04D006E000220D4B1A6002E0E5
:1034400000220C4B1A60092802D01A2805D008E087
:1034500040F21332064B1A6003E040F21332054B80
:103460001A60014B187070476D87FF1F348004404D
:103470000CB0044004D0044010B50D4B1B6813F48D
:10348000006F12D021280CD80A4C0B4B53F8303067
:1034900023600121FEF79EF9236800221A700120A3
:1034A00010BD0020034B186010BD002010BD00BFF0
:1034B00034800440347800200C4D00000D4B1B6814
:1034C00013F4006F13D017280AD140F202320A4BCE
:1034D0001A600A4B5A7B42F001025A73012070476E
:1034E000064B5A7B02F0FE025A7300207047002000
:1034F000704700BF3480044008B0044000B006406C
:103500002DE9F04107461F4B1B6813F4006F37D0BD
:103510001D4B1B680BB101221A701C4B1C78013427
:10352000282C28BF00241A4D1A4EDFF86C8017E0B3
:10353000FFF74CFA40280FDC337913F0800F0FD0DF
:103540002B780133282B28BF002318F80320D2B290
:10355000F271DBB22B7003E0FF2801DDFFF7DAF92F
:103560002B78DBB29C42E3D0FFB20B4B1F550122FC
:103570000A4B1A70E4B2054B1C70BC22054BDA7082
:10358000BDE8F08134800440A8780020AC780020A9
:10359000A578002000B006403C7800203878002054
:1035A0002DE9F84F0746284B1B6813F4006F49D0EC
:1035B000264B1B680BB101221A7007EB010B5F450C
:1035C0003DD2DFF89890224EDFF88C80DFF890A093
:1035D00099F800400134282C28BF00243578EDB23A
:1035E000A54220D1BC2388F80330FFF7EFF940282B
:1035F00011DC98F8043013F0800F10D033780133C9
:10360000282B28BF00231AF80320D2B288F80720FD
:10361000DBB2337003E0FF2801DDFFF77BF933787D
:10362000DBB29D42E1D017F8013B0AF804300122D9
:10363000084B1A70E4B289F800405F45C8D1BC223B
:10364000054BDA70BDE8F88F34800440A87800207C
:10365000A57800203878002000B00640AC78002023
:103660003C78002010B5064B1B7813F0FF0F06D0F6
:10367000034CFFF74FF9237813F0FF0FF9D110BD7A
:1036800038780020064B1B78DBB2064A1278D2B29B
:1036900093422CBF273202F1FF32D01A704700BF8D
:1036A000AC780020A5780020054B1878C0B2054BF7
:1036B0001B78DBB2984238BF4030C01A704700BF59
:1036C000A47800203978002010B4184B1A78D2B2B0
:1036D000174B1B78DBB29A4218D001333F2B18D816
:1036E0001449C85CC0B2DCB211490C7012490968B7
:1036F000C9B19A4203D300E00023D31A01E040325B
:10370000D31A1A2B0FDC00230B700CE04FF0FF30A4
:1037100009E0084B1878C0B20021054B1970064B20
:1037200019680029E8D15DF8044B7047A47800209F
:10373000397800206478002034780020094B1A780A
:10374000D2B2094B1B78DBB29A4207D00133402B2F
:1037500028BF0023054AD05CC0B270474FF0FF304D
:10376000704700BFA47800203978002064780020DA
:103770000D4B1B6813F4006F14D00C4BDA7802F079
:10378000CB02DA7040225A74DA7842F03402DA70EE
:10379000074B1A78D2B2074B1A70074B1B680BB154
:1037A00000221A70704700BF3480044000B0064009
:1037B00039780020A47800203478002070B43D4B84
:1037C0001B7913F0300F33D072B63A4B9B7D03F068
:1037D000FF022BB9374BDA7940225A7462B627E0E0
:1037E00062B6354B1978C9B2344B1C78E4B2314D0E
:1037F000334EEB79D8B24B1C402B28BF0023A34299
:103800001CBFF0541946531E13F0FF02F1D1CAB287
:10381000294B1A702B4B1B6853B1A1422EBFC4EB2E
:103820000101C4F1400409192729C4BF01221A70FB
:10383000204BDA78D2B212F0800F27D01B7913F028
:10384000800F23D0204B1C78E4B2204B1B78DBB2D6
:103850009C4210D017491E4D01E0A3420BD001330A
:10386000282B28BF00230879E85CC0B2C871087D06
:10387000C0B20728F1D9DBB214490B700D4B1B798C
:1038800013F0800F02D07C210A4BD97012F0400F48
:103890000ED0084B1B7913F0400F09D000220D4BBE
:1038A0001A700D4B1B6803B11A703C22014BDA7081
:1038B00070BC704700B00640A47800203978002022
:1038C0006478002034780020AC780020A5780020AF
:1038D0003C78002038780020A8780020174B1A6820
:1038E00042F480521A600023154A1370154A13706F
:1038F000154A1370154A1370154A137040F21331AC
:10390000144A11604FF4517104321160C0F3443114
:10391000114A1170C0F34711517000F01F009072EE
:10392000937013742C23D37040220C4B1A704FF4F5
:103930000032A3F22D331A60704700BF3480044078
:1039400020790020B57800202879002021790020F6
:10395000B478002008C0044000C0064031E400E014
:10396000164B9B7803F0EC0300F00302134310F0B6
:10397000040F18BF43F01003104A937000F00F03B8
:10398000042B04D11346927942F040029A710B4BFA
:103990005A7902F0EF0210F0100F18BF42F0100237
:1039A000064B5A719B7903F0EF0310F0200F18BFFC
:1039B00043F01003014A9371704700BF00C00640F6
:1039C00010B5144B1B6813F4805F21D0124B1B7889
:1039D00013F0FF0F06D0104CFEF79CFF237813F076
:1039E000FF0FF9D14FF400320C4B1A6000230C4A40
:1039F000D37040F203120B490A6004310A600A4A8C
:103A000013700A4A13700A4B1B680BB101221A701B
:103A100010BD00BF34800440B478002084E100E091
:103A200000C0064008C0044020790020B57800207E
:103A3000B078002010B50446094A137813F0FF0F40
:103A4000FBD120460121FDF7C5FE20460021FDF7F0
:103A50008FFE044B53F83420034B1A6010BD00BF97
:103A6000B47800200C4D00002479002010B40C46DE
:103A700009B140F08000104B1B78984219D00F4AD2
:103A8000126812F4805F12D003F07F03082B02D17A
:103A900000220B4B1A60002C0CBF4422602200F065
:103AA0007F03082B03D142F44072054B1A60024B8E
:103AB00018705DF8044B70476F87FF1F3480044017
:103AC0000CC00440704700BF10B50D4B1B6813F4C9
:103AD000805F12D021280CD80A4C0B4B53F83030A1
:103AE00023600121FDF776FE236800221A70012071
:103AF00010BD0020034B186010BD002010BD00BF9A
:103B000034800440B07800200C4D00000D4B1B6841
:103B100013F4805F13D00E280AD140F202320A4B10
:103B20001A600A4B5A7B42F001025A730120704717
:103B3000064B5A7B02F0FE025A73002070470020A9
:103B4000704700BF3480044004C0044000C00640F9
:103B50002DE9F04107461F4B1B6813F4805F37D0F7
:103B60001D4B1B680BB101221A701C4B1C780134D1
:103B7000282C28BF00241A4D1A4EDFF86C8017E05D
:103B8000FEF724FF40280FDC337913F0800F0FD0AD
:103B90002B780133282B28BF002318F80320D2B23A
:103BA000F271DBB22B7003E0FF2801DDFEF7B2FEFD
:103BB0002B78DBB29C42E3D0FFB20B4B1F550122A6
:103BC0000A4B1A70E4B2054B1C70AC22054BDA703C
:103BD000BDE8F08134800440247900202879002059
:103BE0002179002000C00640B8780020B478002079
:103BF00038B505460C4629B115F8010BFFF7A8FFAB
:103C0000013CF9D138BD00BF10B5064B1B7813F04D
:103C1000FF0F06D0034CFEF77DFE237813F0FF0F55
:103C2000F9D110BDB4780020064B1B78DBB2064AF0
:103C30001278D2B293422CBF273202F1FF32D01A4F
:103C4000704700BF2879002021790020054B1878A3
:103C5000C0B2054B1B78DBB2984238BF4030C01A67
:103C6000704700BF20790020B578002010B4184BB1
:103C70001A78D2B2174B1B78DBB29A4218D00133B4
:103C80003F2B18D81449C85CC0B2DCB211490C7083
:103C900012490968C9B19A4203D300E00023D31A3C
:103CA00001E04032D31A1A2B0FDC00230B700CE01A
:103CB0004FF0FF3009E0084B1878C0B20021054BE7
:103CC0001970064B19680029E8D15DF8044B70475C
:103CD00020790020B5780020E0780020B07800201E
:103CE000094B1A78D2B2094B1B78DBB29A4207D043
:103CF0000133402B28BF0023054AD05CC0B2704777
:103D00004FF0FF30704700BF20790020B5780020C9
:103D1000E0780020054B1A78D2B2054B1A70054B9B
:103D20001B680BB100221A70704700BFB5780020E5
:103D300020790020B07800202F4B1B7913F0200F42
:103D400023D02D4BDB79D9B22C4B1B780133402B80
:103D500028BF00232A4A1278D2B29A4204D0294AB4
:103D6000D154D9B2254A1170274A116869B1274A3E
:103D70001278D2B293422EBFC2EB0303C2F14002CB
:103D80009B18272BC4BF01230B701B4BDB78DBB2C6
:103D900013F0800F1CD0184A127912F0800F17D040
:103DA0001B4A1178C9B2194A1278D2B2914203D192
:103DB0006C21114AD1700BE00132282A28BF002261
:103DC0001449885CC0B20C49C871D2B20F490A705C
:103DD00013F0400F0ED0084B1B7913F0400F09D0A1
:103DE00000220D4B1A700D4B1B6803B11A702C2268
:103DF000014BDA70704700BF00C0064020790020F8
:103E0000B5780020E0780020B078002021790020EB
:103E100028790020B8780020B47800202479002088
:103E200000B585B072B61B4B70221A7041211A4A38
:103E300011700F21013A117080221A701A461378FE
:103E400013F0800FFBD0154B186862B6144B9842E4
:103E50009CBF00EB8000400001A90A22FEF7D6FDBE
:103E60009DF804307BB908E001A9595C31B191801B
:103E7000023201330A2BF7D100E0002301335B004B
:103E8000084A137003E0074A53800123ECE705B0AA
:103E90005DF804FB000002400700024008000240F9
:103EA0007F969800FC87FF1F08B503681B68C9B29E
:103EB000984708BD08B503681B68C9B2984708BD94
:103EC00008B503681B68C9B2984708BD08B5036800
:103ED0001B68C9B2984708BD08B5044800EB5100FB
:103EE000B0FBF1F0FEF7B4FD08BD00BF001C4E0EA4
:103EF00010B51446054800EB5100B0FBF1F0FEF799
:103F0000A7FD2046FEF70CFE10BD00BF001C4E0EA4
:103F100008B5FEF735FE08BD08B50846FEF76AFE8F
:103F200008BD00BF08B50846FEF7BEFE08BD00BFCD
:103F300008B508461146FEF779FE08BD08B50846E3
:103F4000FEF7DEFE003018BF012008BD08B50846A8
:103F5000FEF7F8FE003018BF012008BD08B5FEF7D7
:103F6000F1FF08BD08B5FFF737F808BD08B5FEF743
:103F7000F9FF08BD08B5FEF7C3FF08BD08B5FFF798
:103F800045F808BD08B5FEF7CBFF08BD08B50846E3
:103F9000FEF704FF012008BD08B50846FEF7FEFE47
:103FA000012008BD10B5144608461146FEF746FF2D
:103FB000204610BD38B50D46084600F03DFC0446CD
:103FC00028462146FEF73AFF204638BD704700BF1D
:103FD000044B00221A714FF47A7199601A73024AE5
:103FE0001A6070472C790020A84E000008B50368BD
:103FF0001B68C9B2984708BD08B503681B68C9B2F9
:10400000984708BD08B503681B68C9B2984708BD42
:1040100008B503681B68C9B2984708BD08B50448CD
:1040200000EB5100B0FBF1F0FFF7A6F808BD00BFB0
:10403000001C4E0E10B51446054800EB5100B0FBB5
:10404000F1F0FFF799F82046FFF7FEF810BD00BF2A
:10405000001C4E0E08B5FFF727F908BD08B5084645
:10406000FFF782F908BD00BF08B50846FFF7D6F98B
:1040700008BD00BF08B508461146FFF791F908BD15
:1040800008B50846FFF7F8F9003018BF012008BD51
:1040900008B50846FFF712FA003018BF012008BD26
:1040A00008B5FFF701FB08BD08B5FFF747FB08BDE2
:1040B00008B5FFF709FB08BD08B5FFF7D3FA08BD3F
:1040C00008B5FFF755FB08BD08B5FFF7DBFA08BDDB
:1040D00008B50846FFF714FA012008BD08B50846E0
:1040E000FFF70EFA012008BD10B514460846114628
:1040F000FFF756FA204610BD38B50D46084600F0C9
:104100009BFB044628462146FFF74AFA204638BD65
:10411000704700BF044B00221A714FF47A71996006
:104120001A73024A1A6070473C790020084F000059
:1041300008B503681B68C9B2984708BD08B503688D
:104140001B68C9B2984708BD08B503681B68C9B2A7
:10415000984708BD08B503681B68C9B2984708BDF1
:1041600008B5044800EB5100B0FBF1F0FFF7B6FBD7
:1041700008BD00BF000E270710B51446054800EB28
:104180005100B0FBF1F0FFF7A9FB2046FFF7E8FB79
:1041900010BD00BF000E270708B5FFF711FC08BDD2
:1041A00008B50846FFF746FC08BD00BF08B508463D
:1041B000FFF788FC08BD00BF08B508461146FFF7A9
:1041C00055FC08BD08B50846FFF77EFC003018BF57
:1041D000012008BD08B50846FFF798FC003018BF5D
:1041E000012008BD08B5FFF731FD08BD08B5FFF790
:1041F00077FD08BD08B5FFF739FD08BD08B5FFF725
:1042000003FD08BD08B5FFF785FD08BD08B5FFF73C
:104210000BFD08BD08B50846FFF79AFC012008BD54
:1042200008B50846FFF794FC012008BD10B51446F8
:1042300008461146FFF7DCFC204610BD38B50D4698
:10424000084600F0F9FA044628462146FFF7D0FC5C
:10425000204638BD704700BF044B00221A714FF44E
:104260007A7199601A73024A1A6070474C7900207B
:10427000684F000070B50F4E0F4D761BB61007D07B
:10428000043D0024013455F8043F9847A642F9D173
:104290000A4E0B4D761B00F097FEB61008D0043D79
:1042A0000024013455F8043F9847A642F9D170BD67
:1042B00070BD00BFD44F0000D44F0000EC4F000091
:1042C000D44F0000024B0146186800F003B800BF4D
:1042D000408CFF1F2DE9F04F01F10B05162D83B027
:1042E000064627D935F0070527D4A94225D83046F8
:1042F00000F08CFAB5F5FC7F26D2C14F4FEAD50C01
:1043000007EBCC03DC689C4200F0D2816368E26872
:10431000A16823F00303234430465D68CA6045F07A
:10432000010591605D6000F073FA0834204603B027
:10433000BDE8F08F1025A942D9D900240C232046CE
:10434000336003B0BDE8F08F5FEA552C00F08A803F
:10435000BCF1040F00F260814FEA951C0CF1380C9F
:104360004FEA4C01A64F07EB8101CC68A14205D171
:104370000CE0002B7ADAE468A14207D0626822F0F0
:104380000302531B0F2BF4DD0CF1FF3C0CF1010C6D
:104390009B4B3C6903F1080E744500F07E81616817
:1043A00021F003014A1B0F2A00F36481002AC3F89D
:1043B00014E0C3F810E06ADAB1F5007F80F03A81CA
:1043C000C90803EBC1004FEAA1085A688168A160DF
:1043D0004FF0010909FA08F848EA0202E0605A6061
:1043E0008460CC604FEAAC030120984090425BD8D7
:1043F000024206D12CF0030C400002420CF1040CE6
:10440000FAD007EBCC084446E146E3689C4207D16A
:1044100045E1002A80F25681DB689C4200F03F8132
:10442000596821F003014A1B0F2AF2DD1C46D3F81C
:104430000CC054F8088F591945F0010942F00105E4
:10444000C3F804903046C8F80CC0CCF808807961F5
:104450003961C1F80CE0C1F808E04D608A5000F005
:10446000D7F963E77E214FF03F0C7BE72244E368F6
:104470005068A16840F00105CB60304699605560F6
:1044800000F0C6F90834204603B0BDE8F08F21449F
:1044900030464B6843F001034B6000F0B9F9083433
:1044A000204603B0BDE8F08FBC68636823F00309C1
:1044B000A94504D3C5EB09030F2B00F39180514BA1
:1044C000514A19681368013305EB010A04EB090B23
:1044D00000F061810AF5805A0AF10F0A2AF47F6A16
:1044E0002AF00F0A30465146019200F093F9B0F1DC
:1044F000FF3F8046019A00F00081834500F2FA8078
:10450000DFF810C1DCF80030C3455344CCF800306C
:1045100000F04A8112683C4901321BBFCBEB080B0B
:104520005B44C1F80080CCF8003018F0070300F0BD
:104530001381C3F10802C3F5805390440833C24489
:10454000CAF30B0ACAEB030A51463046CDF804C041
:1045500000F060F9431CDDF804C000F03581C8EBC1
:104560000002524442F00102DCF80030C7F8088033
:104570005344BC42C8F80420CCF80030DFF894A0C3
:1045800015D0B9F10F0F40F2EA806168A9F10C0271
:1045900022F0070201F0010EA118052042EA0E0EDA
:1045A0000F2AC4F804E04860886000F21181174ABD
:1045B000BC6811688B4288BF1360154A11688B4232
:1045C00088BF1360626822F003029542C5EB0203C4
:1045D00001D80F2B04DC304600F01AF90024A5E6C0
:1045E000621943F0010345F0010565603046BA6089
:1045F000536000F00DF90834204603B0BDE8F08F99
:10460000448CFF1F647900205090FF1F60790020C8
:104610005C79002068790020BCF1140F61D9BCF1ED
:10462000540F00F28F804FEA153C0CF16E0C4FEAEC
:104630004C0197E64B0A042B58D9142B00F2AE809C
:1046400003F15B02500007EB8000DFF8BC81836858
:10465000834200F08A805A6822F00302914202D21B
:104660009B689842F7D1D9687A68E160A3608C6052
:10467000DC60B7E6611942F0010745F001056560AD
:10468000304659611961C1F80CE0C1F808E04F608B
:104690008A50083400F0BCF848E65A68A2E609F1EE
:1046A000010919F0030F04F108047FF4AEAE2DE008
:1046B00004F108036469A34208BF0CF1020C3FF443
:1046C00067AE23E619441C464868DB6854F8082F97
:1046D00040F001054D603046D3609A6000F098F8D4
:1046E00024E60CF15B0C4FEA4C013BE68A093832B8
:1046F0005000A8E7BC423FF403AFBC68626822F0F8
:10470000030262E7D8F8008098457BD11CF0030FC4
:10471000A8F108030CF1FF3CF4D17B6823EA000305
:104720007B60400098423FF6BFAE00283FF4BCAE2D
:104730000342CC467FF465AE400003420CF1040C0A
:10474000FAD05EE6BCF5AA7F1AD84FEAD53C0CF148
:10475000770C4FEA4C0105E64FF48053EFE6012356
:10476000C8F80430444600222FE791100120D8F801
:10477000042000FA01F10A43C8F80420194674E73E
:1047800040F254539C451BD84FEA954C0CF17C0CDD
:104790004FEA4C01E6E50AF1100AA3E6542B1FD8B4
:1047A0000A0B6E3250004EE7CBF30B0100297FF469
:1047B000B1AE0AEB0901BA6841F001015160F6E6B9
:1047C000FC214FF07E0CCDE501224FF0000ACBE634
:1047D00004F10801304600F0D5F8DAF80030E6E6DA
:1047E000B3F5AA7F03D8CA0B773250002BE740F20B
:1047F0005452934203D88A0C7C32500023E7FC20A9
:104800007E2220E77B688CE7448CFF1F704700BF47
:10481000704700BF38B5074C0023054608462360A3
:10482000FEF7CCF8431C00D038BD2368002BFBD02A
:104830002B6038BDA479002020F0030110F00300A4
:10484000C0F1000051F8043B00F1040C4FEACC0C1D
:104850006FF000021CBF22FA0CF213434FF0010C60
:104860004CEA0C2C4CEA0C4CA3EB0C0222EA03029F
:1048700012EACC1204BF51F8043B0430F4D013F018
:10488000FF0F1FBF013013F47F4F013013F47F0F70
:1048900018BF0130704700BF024B13B1024800F04F
:1048A00005B8704700000000B9480000014600202C
:1048B0000246034600F034B938B5094D094C641B73
:1048C000A41018BF05EB840505D0013C55F8043D44
:1048D0009847002CF9D1BDE8384000F087BB00BFF5
:1048E0000000000000000000F8B5234D0F4604460C
:1048F000FFF78CFFAB685E6826F00306F11B01F63C
:10490000EF7121F47F6121F00F01A1F58057B7F518
:10491000805F07DB20460021FFF77CFFAB68334454
:10492000984204D02046FFF773FF0020F8BD2046D0
:104930007942FFF76FFF01300DD0104BAA6819685C
:10494000F61B46F001062046C91B56601960FFF7AA
:104950005FFF0120F8BD20460021FFF75BFFAB6839
:10496000C21A0F2ADEDD064D04492D6842F001020D
:10497000401B5A600860D5E7448CFF1F687900200F
:104980005090FF1F2DE9F0410D460646002955D0F5
:10499000FFF73CFF55F8041CDFF874C121F0010358
:1049A000A5F10804E218DCF808005768904227F0E7
:1049B000030769D011F00101576032D00021D019EE
:1049C0004068C00706D43B44906800294ED0D268A6
:1049D000C260906043F001026260E350E1B9B3F558
:1049E000007F2DD35A0A042A6AD89809383041002A
:1049F0000CEB810C4649DCF80820624566D0516812
:104A000021F003018B4202D292689445F7D1D3681A
:104A1000E360A2609C60D4603046BDE8F041FFF7DF
:104A2000F7BE55F8085C641B0CF10808A068404507
:104A30002B4443D0E568C560A860C0E7BDE8F081BD
:104A4000DB080CEBC3020125DCF804009168A160CF
:104A50009B1005FA03F31843E260CCF8040094605D
:104A60003046CC60BDE8F041FFF7D2BE294DA842E8
:104A7000ADD143F00102CCF81440CCF81040E06016
:104A8000A0606260E350C7E71F44CB0707D455F826
:104A9000083CE41A1F44A268E368D3609A601E4B86
:104AA0001B6847F001029F426260CCF80840B3D314
:104AB0001A4B30461968FFF717FFADE701217EE773
:104AC000142A0CD802F15B00410091E74B6880107A
:104AD000012505FA00F003434B60134698E7542A7A
:104AE00003D8180B6E30410082E7B2F5AA7F03D8D5
:104AF000D80B773041007BE740F254518A4203D80B
:104B0000980C7C30410073E7FC217E2070E700BFE9
:104B1000448CFF1F4C8CFF1F4C90FF1F64790020BA
:104B2000F0B5274C2668D6F8484185B00746002CDA
:104B300041D065681F2D1EDD224818B94FF0FF30A7
:104B400005B0F0BD4FF4C870039102920193FFF7D6
:104B5000B9FB0399029A019B04460028EED0D6F8CF
:104B600048512560002060600546C6F84841C4F8F9
:104B70008801C4F88C013FB9AB1C00200135656089
:104B800044F8231005B0F0BD04EB85004FF0010C94
:104B9000C0F88820D4F888610CFA05F21643022F79
:104BA000C4F88861C0F80831E6D1D4F88C311A43D2
:104BB000C4F88C21E0E706F5A674C6F84841B8E7CA
:104BC000C44F0000C542000054CF0000535445D0EC
:104BD00000000000484947C848C94C4FD74CCF0097
:104BE0003EBD3CBEBEBD3CBDBC21BD00536F72721C
:104BF00079210000576861743F20000008200800F8
:104C00004F4B000048454C4C4F00FFFF5465656E0C
:104C100073792054696E794241534943506C7573DE
:104C20002076312E32000000556E696D706C656D16
:104C3000656E7465640000004C4953D44C4F41C408
:104C40004E45D75255CE534156C54E4558D44C4586
:104C5000D449C6474F54CF474F5355C25245545578
:104C600052CE5245CD464FD2494E5055D45052495E
:104C70004ED4504F4BC553544FD04259C546494C62
:104C800045D34D45CDBFA74157524954C54457520E
:104C90004954C544454C41D9454EC452534545C479
:104CA00043484149CE000000504545CB4142D341E5
:104CB000524541C444524541C4524EC40000000014
:104CC000486F773F000000002062797465732066AA
:104CD0007265652E00000000627265616B21000044
:104CE000050E08090D0C06070F0400130393050EAB
:104CF00008090D0C06070F04FFFFC585848687C4CD
:104D0000FFFF001303931A92170000004008FE43B0
:104D100040A004404408FE4344A004400018FE4361
:104D200000C004403000FE43309004403400FE4395
:104D3000349004401C18FE431CC004401018FE436D
:104D400010C004400818FE4308C004400C18FE437D
:104D50000CC004400C10FE430CB004401010FE4385
:104D600010B004401810FE4318B004401C10FE435D
:104D70001CB004401410FE4314B004400418FE4359
:104D800004C004400010FE4300B004400008FE438D
:104D900000A004400408FE4304A004400C08FE43A5
:104DA0000CA004400808FE4308A004401418FE4369
:104DB00014C004401818FE4318C004400410FE43F9
:104DC00004B004400810FE4308B004401400FE4341
:104DD000149004404C08FE434CA004400420FE43C1
:104DE00004D004402410FE4324B004402010FE43AD
:104DF00020B004402810FE4328B004402C10FE438D
:104E00002CB004400020FE4300D004404808FE437C
:104E100048A004401000FE43109004400D0A00001A
:104E20000000000000000000DD280000E92800006C
:104E3000B5280000BD280000C5280000CD280000CE
:104E4000D528000000000000001519150001000021
:104E50007087FF1F12000000000200009C87FF1FE8
:104E60004300000000030000F887FF1F000000005F
:104E7000010309048487FF1F0000000002030904E6
:104E8000E087FF1F0000000003030904FC87FF1FE9
:104E90000000000000000000000000000000000012
:104EA00000000000000000008D3F0000A53F000052
:104EB0005D3F00006D3F0000653F0000753F000052
:104EC000D93E0000F13E0000113F0000193F0000F4
:104ED000253F0000313F00003D3F00004D3F0000F6
:104EE0007D3F0000853F0000A93E0000B53E000068
:104EF000C13E0000CD3E0000B53F0000993F0000DC
:104F00000000000000000000D1400000E940000067
:104F1000A1400000B1400000A9400000B9400000DD
:104F20001D40000035400000554000005D4000007D
:104F30006940000075400000814000009140000081
:104F4000C1400000C9400000ED3F0000F93F0000F3
:104F50000540000011400000F9400000DD40000065
:104F60000000000000000000154200002D4200007B
:104F7000E5410000F5410000ED410000FD41000069
:104F8000614100007941000099410000A141000009
:104F9000AD410000B9410000C5410000D54100000D
:104FA000054200000D420000314100003D4100007B
:104FB00049410000554100003D42000021420000EF
:104FC000430000001888FF1FF8B500BFF8BC08BCFC
:104FD0009E4670479948000035040000F9280000FB
:0C4FE000D13F00001541000059420000C4
:044FEC00F8B500BF55
:104FF0000A040800FFFFFFFFA879002001090A0842
:105000001201010102000040C016830400020102E7
:105010000301000018035400650065006E00730072
:1050200079006400750069006E006F00090243009A
:10503000020100C03209040000010202010005243F
:1050400000100105240101010424020605240600C4
:10505000010705820310004009040100020A000054
:10506000000705030240000007058402400000001D
:1050700016035500530042002000530065007200E3
:10508000690061006C000000040309040C030000C7
:105090000000000000000000000000000000000010
:1050A000000000000000000000000000048BFF1F53
:1050B0006C8BFF1FD48BFF1F00000000000000005E
:1050C00000000000000000000000000000000000E0
:1050D000000000000000000000000000C04F0000C1
:1050E00000000000000000000000000000000000C0
:1050F00000000000000000000000000000000000B0
:10510000000000000000000000000000000000009F
:10511000000000000000000000000000000000008F
:10512000000000000000000000000000000000007F
:10513000000000000000000000000000000000006F
:10514000000000000000000000000000000000005F
:1051500001000000000000000E33CDAB34126DE6FC
:10516000ECDE05000B000000000000000000000065
:10517000000000000000000000000000000000002F
:10518000000000000000000000000000000000001F
:10519000000000000000000000000000000000000F
:1051A00000000000000000000000000000000000FF
:1054D0001888FF1F0000000000000000448CFF1F20
:1054E000448CFF1F4C8CFF1F4C8CFF1F548CFF1FE4
:1054F000548CFF1F5C8CFF1F5C8CFF1F648CFF1F94
:10550000648CFF1F6C8CFF1F6C8CFF1F748CFF1F43
:10551000748CFF1F7C8CFF1F7C8CFF1F848CFF1FF3
:10552000848CFF1F8C8CFF1F8C8CFF1F948CFF1FA3
:10553000948CFF1F9C8CFF1F9C8CFF1FA48CFF1F53
:10554000A48CFF1FAC8CFF1FAC8CFF1FB48CFF1F03
:10555000B48CFF1FBC8CFF1FBC8CFF1FC48CFF1FB3
:10556000C48CFF1FCC8CFF1FCC8CFF1FD48CFF1F63
:10557000D48CFF1FDC8CFF1FDC8CFF1FE48CFF1F13
:10558000E48CFF1FEC8CFF1FEC8CFF1FF48CFF1FC3
:10559000F48CFF1FFC8CFF1FFC8CFF1F048DFF1F72
:1055A000048DFF1F0C8DFF1F0C8DFF1F148DFF1F1F
:1055B000148DFF1F1C8DFF1F1C8DFF1F248DFF1FCF
:1055C000248DFF1F2C8DFF1F2C8DFF1F348DFF1F7F
:1055D000348DFF1F3C8DFF1F3C8DFF1F448DFF1F2F
:1055E000448DFF1F4C8DFF1F4C8DFF1F548DFF1FDF
:1055F000548DFF1F5C8DFF1F5C8DFF1F648DFF1F8F
:10560000648DFF1F6C8DFF1F6C8DFF1F748DFF1F3E
:10561000748DFF1F7C8DFF1F7C8DFF1F848DFF1FEE
:10562000848DFF1F8C8DFF1F8C8DFF1F948DFF1F9E
:10563000948DFF1F9C8DFF1F9C8DFF1FA48DFF1F4E
:10564000A48DFF1FAC8DFF1FAC8DFF1FB48DFF1FFE
:10565000B48DFF1FBC8DFF1FBC8DFF1FC48DFF1FAE
:10566000C48DFF1FCC8DFF1FCC8DFF1FD48DFF1F5E
:10567000D48DFF1FDC8DFF1FDC8DFF1FE48DFF1F0E
:10568000E48DFF1FEC8DFF1FEC8DFF1FF48DFF1FBE
:10569000F48DFF1FFC8DFF1FFC8DFF1F048EFF1F6D
:1056A000048EFF1F0C8EFF1F0C8EFF1F148EFF1F1A
:1056B000148EFF1F1C8EFF1F1C8EFF1F248EFF1FCA
:1056C000248EFF1F2C8EFF1F2C8EFF1F348EFF1F7A
:1056D000348EFF1F3C8EFF1F3C8EFF1F448EFF1F2A
:1056E000448EFF1F4C8EFF1F4C8EFF1F548EFF1FDA
:1056F000548EFF1F5C8EFF1F5C8EFF1F648EFF1F8A
:10570000648EFF1F6C8EFF1F6C8EFF1F748EFF1F39
:10571000748EFF1F7C8EFF1F7C8EFF1F848EFF1FE9
:10572000848EFF1F8C8EFF1F8C8EFF1F948EFF1F99
:10573000948EFF1F9C8EFF1F9C8EFF1FA48EFF1F49
:10574000A48EFF1FAC8EFF1FAC8EFF1FB48EFF1FF9
:10575000B48EFF1FBC8EFF1FBC8EFF1FC48EFF1FA9
:10576000C48EFF1FCC8EFF1FCC8EFF1FD48EFF1F59
:10577000D48EFF1FDC8EFF1FDC8EFF1FE48EFF1F09
:10578000E48EFF1FEC8EFF1FEC8EFF1FF48EFF1FB9
:10579000F48EFF1FFC8EFF1FFC8EFF1F048FFF1F68
:1057A000048FFF1F0C8FFF1F0C8FFF1F148FFF1F15
:1057B000148FFF1F1C8FFF1F1C8FFF1F248FFF1FC5
:1057C000248FFF1F2C8FFF1F2C8FFF1F348FFF1F75
:1057D000348FFF1F3C8FFF1F3C8FFF1F448FFF1F25
:1057E000448FFF1F4C8FFF1F4C8FFF1F548FFF1FD5
:1057F000548FFF1F5C8FFF1F5C8FFF1F648FFF1F85
:10580000648FFF1F6C8FFF1F6C8FFF1F748FFF1F34
:10581000748FFF1F7C8FFF1F7C8FFF1F848FFF1FE4
:10582000848FFF1F8C8FFF1F8C8FFF1F948FFF1F94
:10583000948FFF1F9C8FFF1F9C8FFF1FA48FFF1F44
:10584000A48FFF1FAC8FFF1FAC8FFF1FB48FFF1FF4
:10585000B48FFF1FBC8FFF1FBC8FFF1FC48FFF1FA4
:10586000C48FFF1FCC8FFF1FCC8FFF1FD48FFF1F54
:10587000D48FFF1FDC8FFF1FDC8FFF1FE48FFF1F04
:10588000E48FFF1FEC8FFF1FEC8FFF1FF48FFF1FB4
:10589000F48FFF1FFC8FFF1FFC8FFF1F0490FF1F63
:1058A0000490FF1F0C90FF1F0C90FF1F1490FF1F10
:1058B0001490FF1F1C90FF1F1C90FF1F2490FF1FC0
:1058C0002490FF1F2C90FF1F2C90FF1F3490FF1F70
:1058D0003490FF1F3C90FF1F3C90FF1F0000020010
:0458E000FFFFFFFFC8
:00000001FF
