:1000000000800020BD010000512E0000152E0000D0
:10001000152E0000152E0000152E0000152E0000D4
:10002000152E0000152E0000152E0000512E000088
:10003000512E0000152E0000512E0000052E00004C
:10004000512E0000512E0000512E0000512E0000B4
:10005000512E0000512E0000512E0000512E0000A4
:10006000512E0000512E0000512E0000512E000094
:10007000512E0000512E0000512E0000512E000084
:10008000512E0000512E0000512E0000512E000074
:10009000512E0000512E0000512E0000512E000064
:1000A000512E0000512E0000512E0000512E000054
:1000B000512E0000512E0000512E0000512E000044
:1000C000512E0000512E0000512E0000512E000034
:1000D000512E0000512E0000512E0000512E000024
:1000E000512E0000512E0000512E0000512E000014
:1000F000512E0000E5340000512E0000DD3B0000D1
:10010000512E000005410000512E0000512E00002C
:10011000512E0000512E0000512E0000512E0000E3
:10012000512E0000512E0000512E0000512E0000D3
:10013000512E0000512E0000512E0000512E0000C3
:10014000512E0000512E0000512E0000512E0000B3
:1001500041460000594600007146000089460000F3
:10016000512E0000FD1F0000512E0000512E0000F6
:10017000512E0000512E0000512E0000512E000083
:10018000512E0000512E0000512E0000512E000073
:10019000512E0000512E0000512E0000512E000063
:1001A000512E0000512E0000512E0000512E000053
:1001B000512E0000512E0000512E0000574B4CF2E2
:1001C000205210B51A804DF628121A8000BF00BFC9
:1001D00002F042FE524B4FF010621A60514A9A6090
:1001E000514ADA60A3F53043203B1A6812F480725A
:1001F00004D14E490A604FF4A8521A604C4B1A7849
:10020000110703D51A7842F008021A70494B4A4C7C
:100210004A482A221A704A4A00239918A14203D256
:10022000195899500433F8E7464B474900228B424E
:1002300002D243F8042BFAE74448454900235A58B0
:100240001A500433B3F5DE7FF9D1424B424A802184
:1002500003F8011B9342FBD1404B3C4A1A60404BD0
:100260000A221A70A3F5805324225A70A0221A7011
:100270009A799207FCD59A79D406FCD4394A9379B5
:1002800003F00C03082B374BF9D103221A714022DB
:100290005A719A799006FCD5324A9179314B4906C8
:1002A000FBD5314A314911600221516020221A7078
:1002B0009A7902F00C020C2AFAD12D4B2D4A1A60C1
:1002C0002D4B2E4A1A6000225A60072243F8042C54
:1002D0002B4AC3F80C2D62B601F052FD134B1B687C
:1002E000DA0705D5274801F089FB274B274A1A6012
:1002F000274B1B785B0609D5234C244A236893427D
:1003000004D1204801F07AFB0023236004F09AFD19
:1003100002F0A8FD02F020FDFEE700BF0E20054020
:1003200030800440823F04000100002B14D00340C1
:1003300002D0074000E007403491FF1F485B0000F7
:100340006087FF1F3491FF1F607900200082FF1F2C
:100350000000000000E400E05FE400E008ED00E0E1
:100360000050064000400640448004400000030165
:1003700004800440C010050014E000E0FF76010096
:100380000000202039B36A571CE00340A5C3945AEB
:1003900000F00740FFFFFFFFFFFFFFFFFFFFFFFF32
:1003A000FFFFFFFFFFFFFFFFFFFFFFFFFFFFFFFF5D
:1003B000FFFFFFFFFFFFFFFFFFFFFFFFFFFFFFFF4D
:1003C000FFFFFFFFFFFFFFFFFFFFFFFFFFFFFFFF3D
:1003D000FFFFFFFFFFFFFFFFFFFFFFFFFFFFFFFF2D
:1003E000FFFFFFFFFFFFFFFFFFFFFFFFFFFFFFFF1D
:1003F000FFFFFFFFFFFFFFFFFFFFFFFFFFFFFFFF0D
:10040000FFFFFFFFFFFFFFFFFFFFFFFFFEFFFFFFFD
:1004100010B5054C237833B9044B13B10448AFF33E
:1004200000800123237010BD3491FF1F00000000E5
:10043000485B000008B5064B1BB106480649AFF300
:1004400000800648036813B1054B03B1984708BD07
:1004500000000000485B00003891FF1F3491FF1F2F
:1004600000000000054B1B68194613F8012B202AD9
:10047000FAD0092AF8D0014B196070476891FF1F24
:10048000F8B504460022174B1A70174E1D46174642
:1004900023782BB33068815C8B4202D10132013466
:1004A000F6E78031994205D013F0800F08BF631C36
:1004B00008D00DE002F1010C60440B4B1860FFF70F
:1004C000D1FFF8BD1C46013394F90020002AF9DA67
:1004D00001342B7801332B70FFF7C4FF3A46D7E77E
:1004E000F8BD00BFE97500206891FF1F38B5FFF720
:1004F000B9FF134B1A681378A3F13001C9B2092967
:100500001CD80132002041F6981506E0A84204D913
:100510000B4B1C604FF6FF7038BD00EB800003EB07
:100520004000303880B2144612F8013BA3F130018C
:10053000C9B20929EAD9024B1C6038BD002038BD78
:100540006891FF1F094B1868094B1A6890420CD03C
:10055000084B198803888B4203D3704703888B426A
:1005600003D2837818449042F8D170475891FF1F06
:100570007091FF1F5491FF1F08B50146084B1B687F
:1005800063B9084B1B78012B06D1074B1868421C36
:100590001A6001F01BFA08BD02F016FA08BD00BF90
:1005A0006091FF1FF07500206491FF1F08B50A20BD
:1005B000FFF7E2FF0D20FFF7DFFF08BD38B5FFF7BB
:1005C00051FF4A4B1B681A782D2A07D10133474A3D
:1005D0001360FFF7F3FF404280B284E0302A04D179
:1005E0000133424A136000207DE0A2F13101C9B21B
:1005F000082911D8002013F8012B00EB800002EB32
:100600004000303880B219461A78303AD2B2092AFE
:10061000F1D9364B196066E0A2F14101C9B219293E
:100620004CD859784139C9B219290AD902F1004286
:10063000413A2F49096831F8120001332B4A1360FF
:1006400051E02C48FFF71CFF2B4B1C78052C46D0A3
:10065000264B1B681A78282A41D1244D01332B6080
:1006600000F0A2F82B681A78292A38D101332B60C0
:10067000042C23D8DFE804F003060B151E001F4BE3
:10068000185C30E000282EDA404280B22BE0C4B281
:100690002046002101F0F4F9204601F083F880B2F1
:1006A00021E0C4B22046002101F0EAF9204601F021
:1006B000D9F918E002F044FB80B214E00B4B1B6840
:1006C0001A78282A0BD1094C0133236000F06CF80A
:1006D00023681A78292A02D10133236003E001221A
:1006E000074B1A70002000B238BD00BF6891FF1F91
:1006F000F47500200888FF1FE97500207C91FF1F1A
:100700007891FF1FF8B5FFF759FF0546FFF7AAFEDE
:100710000F4C104F012623681A782A2A07D101337B
:100720002360FFF74BFF00FB05F085B2F3E72F2AAC
:100730000BD101332360FFF741FF20B12DB295FBB0
:10074000F0F5ADB2E7E73E70E5E728B2F8BD00BFCF
:100750006891FF1F7891FF1F38B5124B1B681B78FB
:100760002D2B05D02B2B05D0FFF7CCFF054602E043
:10077000002500E000250B4C23681A782D2A06D1AD
:1007800001332360FFF7BEFF281A85B2F4E72B2A56
:1007900006D101332360FFF7B5FF284485B2EBE7AC
:1007A00028B238BD6891FF1F10B5FFF7D5FF04468A
:1007B000204B1B78002B37D11F48FFF761FE1F4BE2
:1007C0001B78072B31D0062B31D8DFE803F0040B60
:1007D00011181F260B00FFF7BFFF8442B4BF002093
:1007E000012025E0FFF7B8FF201A18BF01201FE005
:1007F000FFF7B2FF8442D4BF0020012018E0FFF7CA
:10080000ABFF844214BF0020012011E0FFF7A4FFDA
:100810008442CCBF002001200AE0FFF79DFF844204
:10082000ACBF0020012003E002E0204600E00020F1
:1008300000B210BD7891FF1F3088FF1FE9750020BE
:1008400070B5051E03DA6D422D20FFF795FE124BA1
:100850001A680024114E511E86FB0530EB17C3EBBE
:10086000A00303EB8300A5EB4005303502F8015CE3
:100870001D460134002B01DD0A46ECE7064B1960EA
:10088000002C08DD1D462B6813F8010B2B60FFF7C9
:1008900073FE013CF7D170BD6C91FF1F6766666601
:1008A00010B50446007828B1FFF766FE14F8010F72
:1008B0000028F9D110BD00BF08B5FFF7F1FFFFF721
:1008C00075FE08BD10B50E4C236833F8030B23608A
:1008D000FFF7B6FF2020FFF74FFE226810780A28A6
:1008E00007D0FFF749FE23685A1C226058780A286F
:1008F000F7D10132024B1A60FFF758FE10BD00BF5E
:100900005C91FF1F2DE9F04F85B0282002F0B6F969
:10091000AF4BB04A1360B04A136003F564426B32C8
:10092000AE490A6003F564421B32AD490A604EF2DB
:10093000E5300344AB4A1360FFF782FFAA48FFF794
:10094000BBFF4FF40060FFF77BFFA848FFF7B4FF41
:1009500000200390DFF8B8B2064605469C4901F531
:1009600064416B310191A24CCBF80050019A9B4B32
:100970001A60A048FFF7A0FF954800F5644A0AF105
:100980006A0ACDF808A09C4B1B6833B19A4B1E60D5
:10099000904B1B68CBF800302CE23E20FFF7ECFDBB
:1009A0008D4B1B6802332360944FDFF868823B78DD
:1009B000012B02D0022B10D008E0D8F80000431C15
:1009C000C8F8003000F0EEFF38B113E001F070FF1E
:1009D0000028FBD001F020FF0CE0884B1E70884BF4
:1009E0001E60884B1B686BB1864B1E600122824BD8
:1009F0001A6007E0C3B20A2B04D00D2B02D0082BDB
:100A00000FD019E0FFF7D2FD23680A221A70724B4B
:100A1000D3F8008008F1020798F80230934219D108
:100A200034E023686C4A12689342C0D0013B2360D3
:100A30007548FFF741FFBAE723686A4A1268023A2D
:100A400093420FBF0820C0B203F8010B2360FFF7E9
:100A500093FDACE708F10302314699420DD0222BF9
:100A60000DD0272B0DD069B9A3F16100C0B21928B0
:100A700008D8203B02F8013C04E0294602E0194670
:100A800000E0194612F8013B0A2BE6D1276098F8DE
:100A900002300A2B00F0FA8408F103031A460133EE
:100AA00011780A29FAD122604E4B1B6803F1FF3CF2
:100AB00003F8011CBA420CD0614608F1020E13463D
:100AC00013F8010D01F8010D7345F9D1C2EB0E02C7
:100AD0009444C4F800C0FFF709FD82464B4B1880D0
:100AE000FFF7C0FCBAF1000F00F0C9804FF6FF73AA
:100AF0009A4500F09780D4F8009099F800300A2BBE
:100B000007D033460133DBB219F803200A2AF9D1A2
:100B100000E033460433DFB2A9F10303236029F870
:100B200003AC09F8017CFFF70DFD404515D00388A3
:100B3000534512D182780244B8EB020E09D0013A33
:100B40008644034612F8011F03F8011B7345F9D1CF
:100B500000E08646204BC3F800E099F800300A2BED
:100B60003FF411AF002F3FF40EAF1B4BD3F80080C2
:100B7000D4F800E0A9463D46C8EB0E07AF4228BFB7
:100B80002F4608EB070CB8EB000109D0434662463C
:100B9000C1EB080813F8011D02F8011D4345F9D106
:100BA0006FB10EF1FF33C11913F8012F00F8012BBB
:100BB0008842F9D1ED1B05F0FF05BE4408465DBB38
:100BC0004D46054BC3F800C0C4F800E0DBE600BFAB
:100BD0007C91FF1F5891FF1F7091FF1F6C91FF1FA9
:100BE000FC750020F475002010580000205800000B
:100BF0006891FF1FDC570000F8750020E8750020A1
:100C00006091FF1FEC750020D85700005491FF1F22
:100C10007491FF1F6491FF1FE046ADE7B548FFF7F1
:100C20004BFEB0E6B448FFF747FEACE64D4600E0A9
:100C30004D46B248FFF734FEDBF800305BB1226866
:100C400017780A2F1CBF5E211170AD4A1360FFF7A1
:100C500039FE23681F70FFF7A9FC94E6A948FFF747
:100C60002BFE81E61A46013311783A29FAD0226028
:100C7000FFF7F8FB23681B780A2B06D1B1E0276049
:100C800098F802300A2B3FF47EAE01F011FE38B125
:100C900001F0C2FD032803D19B48FFF70DFE63E678
:100CA0009A48FFF7EDFB9A4B1F78242F00F29980AA
:100CB00001A151F827F000BFED110000031400005E
:100CC000670D00007B0D00001D0C0000731000007C
:100CD00047110000850D0000A70D00001F10000047
:100CE0009B100000E30D00003D0F0000B90E000056
:100CF00029120000A7110000CF0D0000C51400004C
:100D00001D0C00001D13000029120000E30D00005F
:100D10006D13000071130000590D0000CF0D00008D
:100D20000D140000FD1300002B1400002F14000010
:100D3000231400009B0E0000090E0000A10E00000D
:100D40004D0D0000670E000047110000374640F2CD
:100D5000FF784FF02E097BE06E4B1E70FFF724FDED
:100D600000F0F8FF3DE023681B780A2B7FF461AFA9
:100D7000694B1A68694B1A6005E6674B1B68CBF82C
:100D8000003037E0634F3E70FFF70EFD3B78002BDD
:100D90007FF448AF23681B780A2B3FF443AF002849
:100DA0007FF473AF1DE05B4F3E70FFF7FDFC5C4BC3
:100DB00018803B78002B7FF435AF23681B780A2B13
:100DC0007FF430AFFFF7BEFBCBF8000012E02368E2
:100DD0001B780A2B7FF42DAF504B1B68CBF80030EB
:100DE00008E0DBF80030002B3FF4CDAD9A781344D7
:100DF000CBF80030DBF80030484A126893423FF4E9
:100E0000B3AD0333236040E737464FF03F08384621
:100E100000F0C8FD03460028E3D0A0F120025E2ABE
:100E200007D90A2805D00D2803D04046FFF7A4FBB8
:100E300002E01846FFF7A0FB0137B7F5006FE6D1D7
:100E4000CFE707F03F03202B02D14846FFF794FB82
:100E50003846294600F0BAFD01374745F1D10A204E
:100E6000FFF78AFBBDE701222E4B1A702E4B1E6046
:100E7000FFF768FB224B1860284B1B68984209D08B
:100E8000DFF87C80254FFFF71DFD3B68D8F8002078
:100E90009A42F8D1234B1E7066E50122234B1A605B
:100EA0001D4B1A681D4B1A601F4B1E600123204A00
:100EB0001370204A136057E5FFF7D4FA23681F78B0
:100EC000A7F14102D2B2192A3FF6B3AE0133236033
:100ED000FFF7C8FA23681B780A2B02D03A2B7FF45D
:100EE000A8AE07F10043413B134A1268632122F880
:100EF000131078E2F057000008580000E85700008F
:100F00005C91FF1FB4570000005800006C87FF1F62
:100F1000E97500207891FF1F5891FF1F7091FF1F06
:100F20005491FF1FF07500206491FF1FEC750020A5
:100F3000E87500206091FF1FF4750020FFF792FA1A
:100F400023681F78A7F14102D2B2192A3FF671AE89
:100F500001332360FFF786FA23681A783D2A7FF46D
:100F600068AE01332360FFF77DFADFF8DC8288F892
:100F70000060FFF719FC814698F80030002B7FF4E1
:100F800058AEAE48FFF77CFAAD4B1B78002B7FF4D0
:100F900050AEFFF709FC824698F80030002B7FF432
:100FA00048AEA848FFF76CFAA54B1B7833B9FFF79A
:100FB000FBFB8046A44B1B7813B13AE64FF00108C7
:100FC000FFF750FA21680B780A2B00F069823A2B60
:100FD0003FF428AE2DE69D4A136803F110029C48A9
:100FE000006890423FF63AAEA3F1100297480260C3
:100FF00007F10042413A9748006820F812904622D3
:1010000003F8102C03F80F7C23F80EAC23F80C8C9B
:1010100043F8041CDBF8002043F8082CE3E18A4F76
:101020003E70FFF7C1FB8C4B18803B78002B7FF4A0
:10103000F9AD226813780A2B7FF4F4AD83490B686D
:1010400003F10C018248006888423FF607AEA3F125
:101050000C017E480160472103F80C1C43F8042C66
:10106000DBF8002043F8082CFFF76CFACBF80000FF
:10107000C0E6FFF7F7F923681A78413AD2B2192A85
:101080003FF6D0AD01332360FFF7ECF923681B78FE
:101090003A2B02D00A2B7FF4CCAD6C4A11686F4B0F
:1010A000196020680B4648E01A78462A13D0472A70
:1010B00002D06A4A136057E40A2F0AD1674A1360C4
:1010C0005A68CBF800209B6823600C315F4B196095
:1010D00089E10C3331E0052F2ED110F801EC5A785C
:1010E000724529D11A465D490B600EF10041413924
:1010F0005848076837F811E09888704480B227F89C
:10110000110099880FB2002F04DDB3F9027003B209
:101110009F4207DA11F4004F0AD0B2F9023000B250
:10112000834205DCD36823609368CBF800305AE132
:1011300010324648026056E11033029A9342B3D30C
:10114000464A13606EE523681F78A7F14102D2B2C8
:10115000192A3FF667AD07F10047413F3D4AD2F8F3
:10116000009001332360FFF77DF923681A783D2A48
:101170007FF45FAD01332360FFF774F9DFF8C880B7
:1011800088F80060FFF710FB98F80030002B7FF420
:1011900050AD23681B780A2B02D03A2B7FF449AD5F
:1011A00029F817001FE1284F3E70FFF7FDFA3B7842
:1011B000002B7FF43EADFFF755F923681A782C2AEF
:1011C0007FF437AD01332360FFF74CF93E70FFF732
:1011D000EBFA3B78002B7FF42CAD23681A780A2AAF
:1011E0003FF446AD3A2A00F06A8122E5FFF77EF926
:1011F000194B188023681B780A2B7FF41AADFFF770
:10120000A1F9174B1860174B1B6883423FF4ACAB36
:10121000DFF84C80134FFFF755FB3B68D8F80020F0
:101220009A42F8D1FFF7A0BB23681B783A2B1BD159
:10123000FFF7BCF9236801332360D4E02088FF1F47
:10124000E97500206487FF1F7891FF1F6C91FF1FD5
:10125000FC750020F47500205491FF1F5091FF1F72
:101260005C91FF1F7091FF1F0A2B3FF4BAADDFF8AE
:101270007082A946FFF7F6F821680F78222F01D077
:10128000272F25D14D1C25604B789F4217D00A2B64
:1012900000F00D812A4602E00A2B00F0088112F8C6
:1012A000013F9F42F8D1487887420AD0FFF764F99E
:1012B00023685A1C226058788742F7D102E02A46F8
:1012C00000E02A46013222600DE0272B3FF4AEAC4D
:1012D00088F80060FFF768FA98F80030002B7FF478
:1012E000A7ACFFF7ADFA23681A782C2A02D1013394
:1012F0002360BFE74D463B2A08D15A780A2A02D01C
:101300003A2A7FF496AC013323606CE00A2A02D0BB
:101310003A2A7FF48EACFFF749F964E06B4B18680A
:101320006B4B1B68C01AFFF78BFA6A48FFF7C4FAC9
:101330004FF40060FFF784FA6748FFF7BDFA3046C4
:1013400000F030FB012706E0384600F02BFB0137A8
:10135000B7F5006F01D00028F6D1C7F50060013065
:10136000FFF76EFA5D48FFF7A7FA3CE0B04601E0F0
:101370004FF001085A4F3E70FFF716FA81463B784E
:10138000002B7FF456ACFFF76DF823681A782C2AEF
:101390007FF44FAC01332360FFF764F85148FFF747
:1013A0006FF8514B1B78042B06D0012B8CBF4FF0EC
:1013B000000A4FF0010A08E0494F3E70FFF7F4F9C8
:1013C00082463B78002B7FF434AC5FFA89F73846CD
:1013D000012100F055FBB8F1000F09D038465FFA43
:1013E0008AF100F01BFB23681A783A2A67D03FE4A1
:1013F00038460FFA8AF100F093FBF4E701223B4BE9
:101400001A603B4B1A68324B1A6007E4344F3E7047
:10141000FFF7CAF93B78002B7FF40BAC01F05AFCC4
:10142000E1E7282001F02AFCDDE7012303932C4F9C
:101430003E70FFF7B9F980463B78002B7FF4F9AB9B
:10144000FFF710F823681A782C2A7FF4F2AB0133E7
:101450002360FFF707F83E70FFF7A6F981463B7857
:10146000002B7FF4E6ABB8F1000FDAD00028D8D01B
:1014700028201FFA88F14A4601F078FB03980028DB
:10148000B1D0484600F066FC0396ACE70F4B1B68F2
:1014900003F1FF3C98F8022003F8012CFFF719BB79
:1014A0000F4B1B78002B3FF496ADFFF7BBBB2368B7
:1014B0001B78222B7FF409AF4D46FFF7BABB0133EF
:1014C000FFF7D0BB05B0BDE8F08F00BFF47500207A
:1014D0007091FF1F1058000020580000985700001E
:1014E0007891FF1F2488FF1FE9750020EC7500200C
:1014F0005891FF1F38B51B4A1B491C4D1C4C1378D3
:1015000013F0FF0FFBD00B7813F0030FF7D0286810
:101510002368C31A182BF2D9164C23685B6820463F
:10152000154905229847204601F0B0FA1348FFF705
:10153000C3F90D20012100F0A3FA0D20012100F0D4
:101540006DFA4FF4FA7000F005FC0D20002100F058
:1015500065FA4FF4FA7000F0FDFB0D20012100F058
:101560005DFA38BDEC760020FC760020087600207D
:101570005879002028770020E0570000BC57000071
:1015800008B500F0D5F908BD30B4394A39491368B7
:1015900013F0800FFBD10B6813F0800FF7D172B6F8
:1015A000354B1B78002B5FD0344B1C6804331D680F
:1015B000043318680433196804331A6804331B6849
:1015C0002C44204401440A441A44C2F34E0242F41B
:1015D00000422B4B1A602C331C6804331D68043303
:1015E00018680433196804331A6804331B682C44E0
:1015F000204401440A441A44C2F34E0242F4004219
:10160000204B1A6003F108131C6804331D6804336F
:1016100018680433196804331A6804331B682C44AF
:10162000204401440A441A44C2F34E0242F40042E8
:10163000154B1A602C331C6804331D68043318687A
:101640000433196804331A6804331B682C4420449B
:1016500001440A441A44C2F34E0242F400420B4BC6
:101660001A600022044B1A7062B630BC704700BF8B
:1016700024B0034024B00B400176002038B0034072
:101680002CB0034030B003402CB00B4030B00B40C6
:1016900060223A4B1A70E12201331A70384B1B78E2
:1016A000082B10D1012203F1804303F56C331A603B
:1016B000132334490B6001F5FF2101F2FC710A602C
:1016C000314A13601FE00A2B0DD139222F4B1A60CB
:1016D00013232C490B6001F5FF2101F2FC710A6014
:1016E000294A13600FE00C2B0CBF35223D22274BFB
:1016F0001A60122323490B6001F5FF2101F2FC71EE
:101700000A60214A1360224B1B7833B10123214A1E
:10171000136002F50022136005E000231D4A1360E8
:1017200002F5002213601C4B1B78012B06D8802386
:101730001A4A136002F5002213601AE0042B06D83F
:101740008423164A136002F50022136011E0082B6F
:1017500006D88523114A136002F50022136008E0C1
:10176000102B94BF862387230C4A136002F50022B6
:10177000136001220A4B1A70704700BF00400740F7
:101780003C88FF1F0CB003400CB00B4008B0034076
:101790000476002020B003403D88FF1F24B00340A2
:1017A000017600202DE9F8430D2813D9172802D817
:1017B0000E38C0B20EE0A0F11A03DBB2052B02D83E
:1017C0000938C0B206E0A0F12203DBB2062B73D8C1
:1017D0001838C0B23A4B1E5C3A4B1B780BB1FFF77E
:1017E000D3FE16F0800F29D172B6374C374D4FF02B
:1017F000010726602F7062B672B6236813F0800F5F
:1018000004D12B7813F0FF0F0FD1F2E7304B18689B
:1018100000222E4B1A7062B62E4B1B781841BDE881
:10182000F8832B7813F0FF0FE3D062B601F0C8FA0B
:1018300072B6236813F0800FF3D0E7E772B606F0B4
:1018400040095FFA89F9244F244C06F03F06244DE5
:101850004FF00108B9F1000F04D03B6823F01003EA
:101860003B6003E03B6843F010033B60266085F873
:10187000008062B672B6236813F0800F04D12B7813
:1018800013F0FF0F0FD1E5E7164B18680022144B39
:101890001A7062B60F4B1B781841BDE8F8832B789D
:1018A00013F0FF0FD6D062B601F08AFA72B6236841
:1018B00013F0800FF3D0E7E70020BDE8F88300BF06
:1018C000385800000176002000B003400376002065
:1018D00010B00340007600200CB00B4000B00B406D
:1018E0000276002010B00B40094B1A6842F4805277
:1018F0001A60084B1B781BB18022074B1A7002E05C
:10190000C022054B1A7080F30C00044B18807047FE
:101910002C8004400476002021C00C4000C00C4004
:10192000024A137813F0010FFBD070470100024008
:1019300010B584B0174B6C46186859689A68DB6814
:101940000FC4154B1B7813F0020F19D08022134BD4
:101950001A70332204331A700322013B1A7072B6D4
:101960006B4643F001030E4C2046984762B623783D
:1019700013F0700304D0237009E0013B03D106E0AB
:1019800044F6216304490A7812F0010FF5D004B03F
:1019900010BD00BF50580000010002400700024087
:1019A0000000024010B50446B0F5006F0AD2064BA5
:1019B0001B7813F0010F01D1FFF7BAFF04F1A05417
:1019C000207810BD002010BD0100024038B504464B
:1019D0000D46B0F5006F0ED2074B1B7813F0010FC8
:1019E00001D1FFF7A5FF04F1A0542378AB4202D048
:1019F0002570FFF795FF38BD01000240044B00221F
:101A00001A6004490A60044A106010221A60704784
:101A100014D0034004D0034000D0034021281ED836
:101A20000F4B53F8303093F8802212F0FF0F08D09C
:101A300019B1012283F880207047012283F8002128
:101A40007047074B03EBC000436821B11A6842F0AE
:101A500003021A6070471A6822F002021A60704787
:101A600060580000212806D8044B53F8303093F812
:101A70000002C0B270470020704700BF60580000ED
:101A800021284AD8254B03EBC0035B68012911D0FC
:101A900004291DD0214A52F83020002082F880020B
:101AA00000292FD0022931D003291FD040F2031280
:101AB0001A607047194A52F83020012182F88012CA
:101AC0004FF4A2721A601A6822F020021A6070475E
:101AD000124A52F83020012182F880124FF4A2728B
:101AE0001A601A6842F020021A6070474FF4807240
:101AF0001A601A6842F002021A601A6822F00102A3
:101B00001A6070474FF480721A6070474FF4807209
:101B10001A601A6842F003021A60704760580000A9
:101B200010B5044628280FD15D4B1B780B2B03D82A
:101B3000C3F10C03994003E00C2B84BF0C3B19410B
:101B40000846FFF7D1FE10BD554B1B78012202FA63
:101B500003F0002908DC20460021FFF75FFF204644
:101B60000121FFF78DFF10BD0A46884208D82046A4
:101B70000121FFF753FF20460121FFF781FF10BD30
:101B8000E01EC0B2012806D84648006800FB0112DA
:101B900022FA03F310E0202C01D0192C06D1424880
:101BA000006800FB022222FA03F305E03F480068C8
:101BB00000FB011222FA03F3E01E1D2864D8DFE8BF
:101BC00000F0474E402B63631D24636363636363CC
:101BD00063636332390F16635C63636363636355E6
:101BE000334A136040F24442324B1A6010BD324A0D
:101BF000136040F24442314B1A6010BD304A13600A
:101C000040F244422F4B1A6010BD2F4A136040F23D
:101C100044422E4B1A6010BD2D4A136040F24442DC
:101C20002C4B1A6010BD2C4A136040F244422B4BDF
:101C30001A6010BD2A4A136040F24442294B1A60D0
:101C400010BD294A136040F24442284B1A6010BD6F
:101C5000274A13604FF45172264B1A6010BD264A72
:101C600013604FF45172254B1A6010BD244A136063
:101C70004FF45172234B1A6010BD234A13604FF486
:101C80005172224B1A6010BD20467F29D4BF00211B
:101C90000121FFF7C3FE20460121FFF7F1FE10BD31
:101CA0003E88FF1F0890034008800B4008800340D7
:101CB0001080034004B004401880034008B0044082
:101CC000208003400CB004402880034010B0044042
:101CD0003080034010C004403880034014C00440EA
:101CE0004080034018C00440488003401CC00440AA
:101CF000109003403090044018900340349004400A
:101D000010800B4048A0044018800B404CA00440B9
:101D100072B60C4B1B680C4A12680C49096862B613
:101D200011F0806F02D0322B88BF0132C3F5BB3374
:101D3000FF330749A1FB03039B094FF47A7000FBB3
:101D40000230704718E000E00876002004ED00E063
:101D5000ABAAAAAA38B50546FFF7DAFF044625B9AB
:101D600038BD013D0AD004F57A74FFF7D1FF001B9E
:101D7000B0F57A7FF5D201F023F8F6E738BD00BF61
:101D800010B5254B4FF400021A604FF080721A60B4
:101D90004FF000721A604FF080621A604FF00062DC
:101DA0001A6000201D4B18604BF6FF710433196058
:101DB00028231B4A1360083213600832136008326C
:101DC000136008321360083213600832136008325F
:101DD00013600922134C226004F5805404342060FF
:101DE000043421600434236008342360143C2260EE
:101DF00004F5FE24043420600B4801600B490B609D
:101E000008310B600A4B1A60FFF742FCFA20FFF71B
:101E1000A1FF00F073FC10BD08E100E00480034066
:101E20000C8003400080034008800B400C800B4076
:101E300000800B4030B40E4B1B7843F002020D4C77
:101E400004EBC20460600C48007800280CBF8824B2
:101E5000C82444EA0141074D45F8321080F00100E2
:101E6000054A107083F00103014A137030BC7047BB
:101E7000747600200080FF1FED76002010B4431E12
:101E8000032B11D872B60A4A52F8230050B14268A7
:101E9000074941F82320074A32F813400188611AA4
:101EA00022F8131062B600E000205DF8044B704782
:101EB0006476002048790020013803280DD872B6D6
:101EC000074B53F820302BB1002001305B68002B0A
:101ED000FBD100E0002062B670470020704700BFD1
:101EE000B876002038B572B601231B491B4C5A182E
:101EF00012F8012C12F0080F24D09A0054F8325036
:101F00006DB9164B03EBC20108304860144943F821
:101F10003210144B1A78013A1A7062B638BD42F08A
:101F2000010254F832506DB90C4B03EBC20108307A
:101F300048600D4943F832100A4B1A78013A1A707A
:101F400062B638BD0133052BD1D162B60022054BF4
:101F50001A7000F037FC38BD985900000080FF1F50
:101F600088004000E2760020C800400010B4431E04
:101F7000032B37D8400140F010001C4A104472B6C1
:101F80001B4AD25C032A09D8DFE802F019021B05BC
:101F90000830022216E00830042213E0154A52F8F5
:101FA00023201AB9134A42F8231003E0124A52F8C8
:101FB00023205160104A42F8231062B612E0032237
:101FC00000E005220A4CE25401F10803436000F0EE
:101FD0000803002B0CBF8823C8230A8843EA024366
:101FE000036062B65DF8044B704700BF0080FF1FBE
:101FF00020760020B8760020C87600202DE9F84F22
:10200000A34CDFF8E092DFF8E0A2DFF8E0B2257839
:10201000EDB215F0040F1DD09E4B1B7813F0FF0F8F
:1020200016D09D4B1B7803F0FF022BB1531EDBB281
:10203000994A137003B900BE984B1B7803F0FF0256
:1020400033B1531EDBB2954A13700BB900F0FAFCA2
:102050000423237015F0080F00F0E48299F8003093
:10206000DBB21D0940F021828D4D9E0805EBC603B1
:102070005A6855F83630C3F38303013B0C2B00F24A
:102080001082DFE813F0CB01CB010E020E020E022C
:102090000E020E020E02E8010E020E020E020D00EA
:1020A000804913680B6052684A607F4A45F83620C1
:1020B00000227E490A607A490A618A6101217C4ACC
:1020C00011709BB240F28162934218D8B3F5D06F81
:1020D0002ED2B3F5817F00F01E8106D8802B00F050
:1020E000C980822B00F0CC8066E140F2023293423C
:1020F00000F02681B3F5A06F00F062815CE142F24E
:102100002102934200F0868107D8B3F5086F00F0F2
:10211000AB80B3F5106F11D04EE142F22122934211
:1021200000F0418142F22132934200F0498143E1C3
:10213000604B5D68002D40F0188130E1594B9A7872
:10214000544B1A70564D05F180062B6A13F0800F20
:1021500003D0686A083800F035FB0835B542F4D181
:10216000DFF88C8100263746534AB05828B14568BD
:1021700000F028FB0DB12846F9E700234E497350C3
:102180004E4AB3504E4BF05828B1456800F01AFB48
:102190000DB12846F9E7002349497350494AB35025
:1021A00028F8023F484BFB5C023B032B0AD8DFE8D0
:1021B00003F0020602060022434BDA5502E0012238
:1021C000414BDA5501370436102ECDD100223F4B5A
:1021D0001A7001253E4EDFF81C81314F05EB0803D4
:1021E00013F8013C06F8043B13F0080F2DD000F063
:1021F000C9FA48B1A90007EB451200F10803536082
:10220000344A47F8312007E0AB00002247F833207A
:102210002E4B1A7801321A7000F0B4FA58B1AB00A4
:1022200043F0010307EBC30100F108024A601E4AB4
:1022300047F8332009E0AB0043F00103002247F8E0
:102240003320224B1A7801321A70AA0042F00201A0
:10225000002347F8313042F0030247F832300135AD
:102260001D4B9E42BAD11EE20A4B1B781B4D2B70B0
:102270000127AAE0194D00232B706B700227A4E000
:10228000084B9B88042B37D90F22154B1A70C1E0DD
:1022900080200740EC76002075760020EE76002046
:1022A0000080FF1FD8760020C80040000C76002078
:1022B000ED7600209C590000647600201076002006
:1022C000B8760020C876002020760020E276002034
:1022D000C420074088004000D4200740E476002056
:1022E000C0200740902007409420074098200740D6
:1022F0004679002098590000A04A002111705170C1
:102300009F4A12F8233013F0020F5CD09B4D01233B
:102310002B70022759E09B4B9B8803F07F03042B13
:1023200002DC984A52881AB10F22954B1A7071E05C
:10233000934A12F8231021F0020102F82310B2E1AF
:10234000904B9B8803F07F03042B02DC8D4A52885C
:102350001AB10F228A4B1A705CE0894A12F82310D6
:1023600041F0020102F823109DE1864B5E889F88B0
:10237000854BA3F10C02114633F80C0CB04209D185
:1023800033F80A0CB84205D1360A032E0CBF2F7859
:1023900017891AE00D690C330C32002DEBD10F2296
:1023A000774B1A7036E0794B1A68794B1A60754B87
:1023B0009A78784B1A7076E10F22714B1A7029E0E7
:1023C00000273D4601E002276C4D6E4BDB889F42A3
:1023D00028BF1F46402F34BF3E4640262846314680
:1023E000FFF728FD3544BF1B03D13F2E00F260816B
:1023F00010E0402F34BF3E46402628463146FFF7C6
:1024000019FD3544BF1B01D13F2E03D9624B1D601E
:10241000624B1F8001238AF8003042E0594B198833
:1024200042F22103994212D15D4BD81D12F8011BD3
:1024300003F8011F8342F9D15A4B1B68862B02D146
:102440000F22594B1A7000200146FFF7F3FC574B3F
:1024500045F8363025E0504B1E68BEB14F4FB7F8F7
:102460000080B8F1400F34BF45464025304629462C
:10247000FFF7E0FCC5EB08039BB23B800BB9402D96
:1024800001D1354400E00025434B1D603D4B1B88C6
:10249000B3F5A06F05D13B4B00225A709B788BF8A7
:1024A000003001238AF80030B9E0414E9F0806EB66
:1024B000C708D8F80420A2F10800013DEDB213F0DE
:1024C000080F47D000F07EF93A4B53F825304BB354
:1024D0005A68384941F8252003F10802C8F8042059
:1024E000354A525D032A12D8DFE802F002060A0ECE
:1024F0000321314A51550AE002212F4A515506E085
:1025000005212D4A515502E004212B4A515518F05E
:10251000080F0CBF8822C8221B8842EA034346F8F2
:1025200037307CE0244B5B5D032B0BD8DFE803F0F6
:10253000777702060022204B5A5570E001221E4B8D
:102540005A556CE018F0080F0CBF022203221A4BF8
:102550005A5564E056F837301B0C22F8083C002B23
:1025600055D0002322F8063C42F8043C134B53F8A4
:1025700025302BBB114B43F8250025E0E4760020E5
:10258000C0200740D8760020A85900000876002017
:1025900058790020FC7600200C760020E0760020A0
:1025A0004F7900205079002075760020C800400047
:1025B0000080FF1FB876002020760020647600207F
:1025C0003F4B53F8253058603D4B43F825003D4BB9
:1025D00033F8151032F8082C0A4423F8152000F0BF
:1025E000D1F860B100F10803C8F8043018F0080F02
:1025F000354B364A08BF134646F837300FE0002304
:1026000046F83730324B1A7801321A7007E018F06A
:10261000080F2D4B2D4A08BF134646F837300823C4
:102620002370F4E415F0010F22D02A4902230B7025
:102630000022294B1A70294B24481860284C5C60F2
:1026400098602848D8601A619A610D20264B18704E
:10265000FF23264803700838037018300270244A9C
:1026600013709F22234B1A7001230B70BDE8F88F63
:1026700015F0800F05D00D221B4B1A708022403BB5
:102680001A7015F0020F06D0184B1A78D2B21A70D1
:102690000222083B1A7015F0100F0ED01022164BB4
:1026A0001A70BDE8F88F00200146FFF7C3FBB1E6C2
:1026B00028460021FFF7BEFBACE6BDE8F88F00BF5F
:1026C0001076002048790020C800400088004000B3
:1026D000E276002094200740747600200080FF1FDF
:1026E0002476002078760020C0200740882007400C
:1026F0008C200740842007408020074008B501F067
:1027000075FD00231B491A465A50C8184260083309
:10271000882BF9D1184B1A6842F480221A60154BA5
:10272000C3F30721154A1170C3F307411432117026
:102730001B0E04321370FF23343A137008321370E7
:10274000783A137001238432137000216C321170B7
:102750007C3A137070220A4B1A704FF40072A3F285
:1027600041331A60102203F1C04303F5C8231A70E5
:1027700008BD00BF0080FF1F348004409C2007403C
:1027800049E400E072B60D4B1A68B2FA82F30B2BE3
:1027900002D962B6002070474FF00041D94022EACA
:1027A000010206490A6062B6054903EBC303DB0078
:1027B000C8180022CA504260704700BF4088FF1FFF
:1027C0000084FF1F08B50F4BC31A0F4AA2FB031367
:1027D0001B090B2B14D80D4A12783AB10C4A127807
:1027E00012F0FF0F02D0FFF77DFB08BD72B6094A59
:1027F0004FF0004121FA03F311681943116062B6EA
:1028000008BD00BF0084FF1F398EE338E276002048
:10281000EC7600204088FF1F10B5134B1B6853B99E
:10282000124B1B7813F0FF0F18D00320FFF726FB85
:102830000D4B1860A8B10C4B186843885A1C034410
:102840001C7A03889A4206D3FFF7BCFF0022064B8E
:102850001A60204610BD4280204610BD4FF0FF3068
:1028600010BD4FF0FF3010BDF8760020EC76002050
:1028700008B50D4B1B6883B90C4B1B7813F0FF0F89
:1028800008D00320FFF7FAFA074B186028B94FF079
:10289000FF3008BD4FF0FF3008BD034B1B685A885E
:1028A0001344187A08BD00BFF8760020EC760020AB
:1028B000044B9888044B1B681BB11A885B88D31A99
:1028C0001844704748790020F87600202DE9F04739
:1028D00004460122374B1A700E46002964D0DFF8F7
:1028E000E080DFF8E0909A46334FD8F8003083BBA1
:1028F00099F8003013F0FF0F06D100222D4B1A700B
:102900004FF0FF30BDE8F0874AF2F9250420FFF7C9
:10291000D3FA07280AD801238AF80030FFF732FFDC
:10292000C8F80000A8B900238AF80030013D01D0A2
:102930003B7833B10122204B1A704FF0FF30BDE8D5
:10294000F08700F03DFA99F8003013F0FF0FDDD169
:10295000D3E700233B70D8F800104A88C2F1400545
:10296000AE4238BF354602F108030B442A444A8080
:10297000761B3DB1254414F8012B03F8012BAC4222
:10298000F9D100E025464B883F2B07D940230B8027
:102990000420FFF7EBFA0023C8F800300522074BAC
:1029A0001A700EB12C46A0E70020024B1870BDE84B
:1029B000F08700BFEF760020F4760020EE7600204E
:1029C000F0760020EC76002000B583B002AB03F86F
:1029D000010D18460121FFF779FF03B05DF804FBF4
:1029E00010B5144B1B7813F0FF0F21D00122124BAE
:1029F0001A70124B196851B10024114B1C704B888E
:102A00000B800420FFF7B2FA0C4B1C600DE0FFF7BF
:102A1000B9FE014630B10022094B1A700420FFF7BD
:102A2000A5FA02E00122064B1A700022024B1A702E
:102A300010BD00BFEC760020EF760020F07600207D
:102A4000EE76002008B50E4B1B7813F0FF0F16D161
:102A50000C4B196841B14B880B800420FFF786FAB4
:102A60000022084B1A6008BDFFF78CFE014618B122
:102A70000420FFF77BFA08BD0122034B1A7008BD42
:102A8000EF760020F0760020EE76002000B583B0CF
:102A9000054B1B88ADF8043003685B6801A902226E
:102AA000984703B05DF804FB7059000010B5044668
:102AB00001F0BAFE204610BD10B5234B1B6883B150
:102AC000224A1268012182F88010013B13F1050FA0
:102AD00002D01D4A136010BD6FF002021A4B1A603B
:102AE00010BD1A4B1B6801221A70194B1B681BB3CF
:102AF000184B1C682046002102F056F9A8B9204660
:102B0000154902F065F980B92046144901F0A4FF87
:102B10004FF07C5101F096FE02F064F9024627283E
:102B200003D90F480F4901F067FE094B1A6806499F
:102B30000A6000221A6010BD094801F075FEFF22EC
:102B4000094B1A7010BD00BF1C77002014770020BD
:102B50001877002020770020ABAAAA4C0000404242
:102B600000770020B92A00004488FF1F70B5044692
:102B700021286AD842B102FB01F6344BA3FB06269A
:102B8000B6097600013601E06FF00206084601F052
:102B90000BFF01462E4802F013F805462D4B03EBC0
:102BA000C403596872B62C4B1B789C4216D12B4B30
:102BB000196802F0E5F838B1294B1A6802F00102F1
:102BC000013A16441E603FE0244B1D60254B1E60F9
:102BD000234B1A6802F001021A6035E0212B03D85A
:102BE000214B1B6801221A701B4B1C70194B53F8A8
:102BF000343003F580701C4A1060012283F80021F4
:102C000083F880224FF4A2730B60154B1E60134BA8
:102C10001D602846002102F0C7F8A8B928461349CC
:102C200002F0D6F880B92846114901F015FF4FF09F
:102C30007C5101F007FE02F0D5F80246272803D99F
:102C40000C480D4901F0D8FD62B670BDD34D62103D
:102C50000024F448605800004488FF1F20770020BB
:102C60001C7700201877002014770020ABAAAA4C0C
:102C70000000404200770020B92A000008B5212852
:102C80000FD872B6074B1B78834209D1064801F072
:102C9000CBFD064B1B6801221A70FF22014B1A70F4
:102CA00062B608BD4488FF1F00770020147700201B
:102CB00008B5054800230370802343730349044A81
:102CC00002F0B0F808BD00BF00770020AD2A000078
:102CD0006087FF1F08B1014A106070472477002009
:102CE00010B4124B1968D9B1114C81FB0423CA18D6
:102CF000CB17C3EB22420F4800FB121284FB0104E6
:102D00002144C3EB21430C4800FB03F344F2A7101A
:102D100000FB0230002804DA00F10040013800E036
:102D20000648024B18605DF8044B7047247700207A
:102D30005F0B4E831DF30100ECF4FFFF42CE0C1F2E
:102D400010B5044630B1FFF7CBFFB0FBF4F303FB43
:102D5000140010BD002010BD08B5FEF7CBFBFDF739
:102D6000D1FD00F02DF8FAE708B5FFF7A1FD08BD89
:102D700008B5FFF751FD08BD08B5FFF779FD08BD9F
:102D800008B5FFF72DFE08BD08B50846FFF71CFE85
:102D900008BD00BF08B508461146FFF797FD08BDFE
:102DA000704700BF044B00221A714FF47A7199608A
:102DB0001A73024A1A607047287700208059000071
:102DC00008B50F4B1B78CBB901220D4B1A70FFF7DA
:102DD0006FFD08B1FFF7E4FF00F0FAFA08B101F067
:102DE000DBFA00F071FE08B101F078FB01F014F994
:102DF00008B101F015FC0022014B1A7008BD00BF9C
:102E000038770020024B1A6801321A60704700BF01
:102E10000876002008B50D4C236813F4802F01D0EC
:102E2000FFF7ECF8236813F4806F01D000F05AFB31
:102E3000236813F4006F01D000F0D0FE236813F470
:102E4000805FE9D001F05EF9E6E700BF348004401E
:102E500008B5FFF7DFFF00BF1022014B1A80704753
:102E600000200540704700BF024A136818441060F4
:102E7000184670474888FF1FEFF31383ABB9EFF391
:102E80001083ABB9EFF3058323B10F2B05D9094AA2
:102E9000985C03E04FF4807000E00020EFF31183B2
:102EA0003BB1834238BF184670474FF0FF30704740
:102EB00000207047F0E300E030B40023B0FBF2F4F0
:102EC00002FB14041D46092C94BF30343734E4B29D
:102ED000CC54B0FBF2F008B10133EFE70D4400220F
:102EE0006A70934207DD885CCC5C8C54C854013214
:102EF000013B9A42F7DB084630BC7047254B1A6805
:102F000042F480621A600023234A1370234A13702C
:102F1000234A1370234A1370234A1370234B1B78E0
:102F200013B1152B05D008E040F21332204B1A6084
:102F300003E040F213321F4B1A601F4B1B78012B2A
:102F400002D0052B05D008E04FF451721B4B1A60DC
:102F500003E04FF451721A4B1A60C0F34432194B1C
:102F60001A70C0F347125A7000F01F0098720422C2
:102F70009A700221D9745A7588221A743C22DA7028
:102F80004022114B1A704FF40052A3F229331A60F9
:102F9000704700BF34800440C8770020417700208C
:102FA000D0770020C9770020407700208477002068
:102FB00040A0044018C004404C88FF1F44A00440B7
:102FC0001CC0044000A006402DE400E0164B9B7896
:102FD00003F0EC0300F00302134310F0040F18BFDA
:102FE00043F01003104A937000F00F03042B04D138
:102FF0001346927942F040029A710B4B5A7902F0D3
:10300000EF0210F0100F18BF42F01002064B5A7179
:103010009B7903F0EF0310F0200F18BF43F010036B
:10302000014A9371704700BF00A0064010B5144BD1
:103030001B6813F4806F21D0124B1B7813F0FF0F25
:1030400006D0104CFFF7BCFE237813F0FF0FF9D128
:103050004FF400520C4B1A6000230C4AD37040F21C
:1030600003120B490A6004310A600A4A13700A4AC3
:1030700013700A4B1B680BB101221A7010BD00BF00
:10308000348004404077002084E100E000A0064046
:1030900040A00440C8770020417700203C77002002
:1030A00010B50446094A137813F0FF0FFBD12046F0
:1030B0000121FEF7E5FC20460021FEF7AFFC044BA2
:1030C00053F83420034B1A6010BD00BF4077002036
:1030D00060580000CC770020124B1B78984220D01B
:1030E000114A126812F4806F19D0012B02D0052BFF
:1030F00004D006E000220D4B1A6002E000220C4BC7
:103100001A60012802D0052805D008E04FF451725A
:10311000064B1A6003E04FF45172054B1A60014BE5
:10312000187070474C88FF1F3480044044A004404E
:103130001CC00440114B1B7898421ED0104A1268E4
:1031400012F4806F17D013B1152B04D006E00022C3
:103150000C4B1A6002E000220B4B1A6010B11528CC
:1031600005D008E040F21332064B1A6003E040F24B
:103170001332054B1A60014B18707047847700209A
:103180003480044040A0044018C0044010B50D4BEA
:103190001B6813F4806F12D021280CD80A4C0B4BFB
:1031A00053F8303023600121FEF76AFC23680022C7
:1031B0001A70012010BD0020034B186010BD0020C4
:1031C00010BD00BF348004403C77002060580000F0
:1031D000114B1B6813F4806F1BD0122804D140F2EE
:1031E00002320E4B1A600DE0142804D140F2023274
:1031F0000B4B1A6006E00B4B5A7B02F0FE025A732F
:1032000000207047074B5A7B42F001025A7301209D
:1032100070470020704700BF348004400CA0044079
:1032200014C0044000A006402DE9F04107461F4BA2
:103230001B6813F4806F37D01D4B1B680BB1012244
:103240001A701C4B1C780134402C28BF00241A4DE6
:103250001A4EDFF86C8017E0FFF70EFE40280FDCF7
:10326000337913F0800F0FD02B780133402B28BF18
:10327000002318F80320D2B2F271DBB22B7003E006
:10328000FF2801DDFFF79CFD2B78DBB29C42E3D0E9
:10329000FFB20B4B1F5501220A4B1A70E4B2054BCB
:1032A0001C70BC22054BDA70BDE8F081348004400C
:1032B000CC770020D0770020C977002000A00640FE
:1032C00044770020407700202DE9F84F0746284B2F
:1032D0001B6813F4806F49D0264B1B680BB1012289
:1032E0001A7007EB010B5F453DD2DFF89890224E34
:1032F000DFF88C80DFF890A099F800400134402C72
:1033000028BF00243578EDB2A54220D1BC2388F82F
:103310000330FFF7B1FD402811DC98F8043013F0BA
:10332000800F10D033780133402B28BF00231AF8C8
:103330000320D2B288F80720DBB2337003E0FF2805
:1033400001DDFFF73DFD3378DBB29D42E1D017F898
:10335000013B0AF804300122084B1A70E4B289F8E4
:1033600000405F45C8D1BC22054BDA70BDE8F88F3C
:1033700034800440CC770020C977002040770020BB
:1033800000A00640D07700204477002010B5064BFF
:103390001B7813F0FF0F06D0034CFFF711FD2378C5
:1033A00013F0FF0FF9D110BD40770020064B1B78BA
:1033B000DBB2064A1278D2B293422CBF3F3202F1FE
:1033C000FF32D01A704700BFD0770020C9770020A5
:1033D000054B1878C0B2054B1B78DBB2984238BF5A
:1033E0004030C01A704700BFC877002041770020E6
:1033F00010B4184B1A78D2B2174B1B78DBB29A4232
:1034000018D001333F2B18D81449C85CC0B2DCB2C5
:1034100011490C7012490968C9B19A4203D300E0FE
:103420000023D31A01E04032D31A1A2B0FDC0023F9
:103430000B700CE04FF0FF3009E0084B1878C0B279
:103440000021054B1970064B19680029E8D15DF879
:10345000044B7047C8770020417700208877002010
:103460003C770020094B1A78D2B2094B1B78DBB2AB
:103470009A4207D00133402B28BF0023054AD05C75
:10348000C0B270474FF0FF30704700BFC8770020D0
:1034900041770020887700200D4B1B6813F4806F64
:1034A00014D00C4BDA7802F0CB02DA7040225A7456
:1034B000DA7842F03402DA70074B1A78D2B2074B4E
:1034C0001A70074B1B680BB100221A70704700BFBF
:1034D0003480044000A0064041770020C8770020D7
:1034E0003C77002070B43D4B1B7913F0300F33D084
:1034F00072B63A4B9B7D03F0FF022BB9374BDA795A
:1035000040225A7462B627E062B6354B1978C9B2C8
:10351000344B1C78E4B2314D334EEB79D8B24B1CAE
:10352000402B28BF0023A3421CBFF0541946531E52
:1035300013F0FF02F1D1CAB2294B1A702B4B1B6852
:1035400053B1A1422EBFC4EB0101C4F140040919DB
:103550002729C4BF01221A70204BDA78D2B212F0A8
:10356000800F27D01B7913F0800F23D0204B1C78BD
:10357000E4B2204B1B78DBB29C4210D017491E4DA1
:1035800001E0A3420BD00133402B28BF0023087970
:10359000E85CC0B2C871087DC0B20728F1D9DBB2BF
:1035A00014490B700D4B1B7913F0800F02D07C2156
:1035B0000A4BD97012F0400F0ED0084B1B7913F054
:1035C000400F09D000220D4B1A700D4B1B6803B140
:1035D0001A703C22014BDA7070BC704700A00640A4
:1035E000C877002041770020887700203C770020B2
:1035F000D0770020C9770020447700204077002052
:10360000CC770020254B1A6842F400621A60002330
:10361000234A1370234A1370234A1370234A1370EA
:10362000234A1370234B1B78092B02D01A2B05D089
:1036300008E040F21332204B1A6003E040F21332EC
:103640001E4B1A601E4B1B780A2B02D01F2B05D075
:1036500008E04FF451721B4B1A6003E04FF45172B3
:10366000194B1A60C0F34432184B1A70C0F347125A
:103670005A7000F01F00987204229A700221D974C7
:103680005A7588221A743C22DA704022104B1A7044
:103690004FF40042A3F22B331A6070473480044089
:1036A00044780020D97700204C780020457800200D
:1036B000D87700204D88FF1F0CB0044004D0044090
:1036C0004E88FF1F10B0044000D0044000B00640F8
:1036D0002FE400E0164B9B7803F0EC0300F00302AC
:1036E000134310F0040F18BF43F01003104A9370F7
:1036F00000F00F03042B04D11346927942F04002EC
:103700009A710B4B5A7902F0EF0210F0100F18BFAC
:1037100042F01002064B5A719B7903F0EF0310F050
:10372000200F18BF43F01003014A9371704700BF88
:1037300000B0064010B5144B1B6813F4006F21D085
:10374000124B1B7813F0FF0F06D0104CFFF738FB1D
:10375000237813F0FF0FF9D14FF400420C4B1A609D
:1037600000230C4AD37040F203120B490A60043163
:103770000A600A4A13700A4A13700A4B1B680BB19D
:1037800001221A7010BD00BF34800440D877002099
:1037900084E100E000B006400CB004404478002012
:1037A000D9770020D477002010B50446094A137851
:1037B00013F0FF0FFBD120460121FEF761F92046EF
:1037C0000021FEF72BF9044B53F83420034B1A6009
:1037D00010BD00BFD8770020605800004878002056
:1037E000124B1B78984220D0114A126812F4805F65
:1037F00019D00A2B02D01F2B04D006E000220D4B5B
:103800001A6002E000220C4B1A600A2802D01F281E
:1038100005D008E04FF45172064B1A6003E04FF4F4
:103820005172054B1A60014B187070474E88FF1F8C
:103830003480044010B0044000D00440124B1B7888
:10384000984220D0114A126812F4805F19D0092BD7
:1038500002D01A2B04D006E000220D4B1A6002E0C1
:1038600000220C4B1A60092802D01A2805D008E063
:1038700040F21332064B1A6003E040F21332054B5C
:103880001A60014B187070474D88FF1F3480044048
:103890000CB0044004D0044010B50D4B1B6813F469
:1038A000006F12D021280CD80A4C0B4B53F8303043
:1038B00023600121FEF7E4F8236800221A7001203A
:1038C00010BD0020034B186010BD002010BD00BFCC
:1038D00034800440D4770020605800000D4B1B68F2
:1038E00013F4006F13D017280AD140F202320A4BAA
:1038F0001A600A4B5A7B42F001025A73012070474A
:10390000064B5A7B02F0FE025A73002070470020DB
:10391000704700BF3480044008B0044000B0064047
:103920002DE9F04107461F4B1B6813F4006F37D099
:103930001D4B1B680BB101221A701C4B1C78013403
:10394000282C28BF00241A4D1A4EDFF86C8017E08F
:10395000FFF792FA40280FDC337913F0800F0FD075
:103960002B780133282B28BF002318F80320D2B26C
:10397000F271DBB22B7003E0FF2801DDFFF720FAC4
:103980002B78DBB29C42E3D0FFB20B4B1F550122D8
:103990000A4B1A70E4B2054B1C70BC22054BDA705E
:1039A000BDE8F08134800440487800204C78002045
:1039B0004578002000B00640DC770020D877002052
:1039C0002DE9F84F0746284B1B6813F4006F49D0C8
:1039D000264B1B680BB101221A7007EB010B5F45E8
:1039E0003DD2DFF89890224EDFF88C80DFF890A06F
:1039F00099F800400134282C28BF00243578EDB216
:103A0000A54220D1BC2388F80330FFF735FA4028BF
:103A100011DC98F8043013F0800F10D033780133A4
:103A2000282B28BF00231AF80320D2B288F80720D9
:103A3000DBB2337003E0FF2801DDFFF7C1F9337813
:103A4000DBB29D42E1D017F8013B0AF804300122B5
:103A5000084B1A70E4B289F800405F45C8D1BC2217
:103A6000054BDA70BDE8F88F3480044048780020B8
:103A700045780020D877002000B006404C78002020
:103A8000DC77002010B5064B1B7813F0FF0F06D033
:103A9000034CFFF795F9237813F0FF0FF9D110BD10
:103AA000D8770020064B1B78DBB2064A1278D2B2D8
:103AB00093422CBF273202F1FF32D01A704700BF69
:103AC0004C78002045780020054B1878C0B2054B93
:103AD0001B78DBB2984238BF4030C01A704700BF35
:103AE00044780020D977002010B4184B1A78D2B24D
:103AF000174B1B78DBB29A4218D001333F2B18D8F2
:103B00001449C85CC0B2DCB211490C701249096892
:103B1000C9B19A4203D300E00023D31A01E0403236
:103B2000D31A1A2B0FDC00230B700CE04FF0FF3080
:103B300009E0084B1878C0B20021054B1970064BFC
:103B400019680029E8D15DF8044B704744780020DB
:103B5000D977002004780020D4770020094B1A7808
:103B6000D2B2094B1B78DBB29A4207D00133402B0B
:103B700028BF0023054AD05CC0B270474FF0FF3029
:103B8000704700BF44780020D977002004780020D7
:103B90000D4B1B6813F4006F14D00C4BDA7802F055
:103BA000CB02DA7040225A74DA7842F03402DA70CA
:103BB000074B1A78D2B2074B1A70074B1B680BB130
:103BC00000221A70704700BF3480044000B00640E5
:103BD000D977002044780020D477002070B43D4B82
:103BE0001B7913F0300F33D072B63A4B9B7D03F044
:103BF000FF022BB9374BDA7940225A7462B627E0BC
:103C000062B6354B1978C9B2344B1C78E4B2314DE9
:103C1000334EEB79D8B24B1C402B28BF0023A34274
:103C20001CBFF0541946531E13F0FF02F1D1CAB263
:103C3000294B1A702B4B1B6853B1A1422EBFC4EB0A
:103C40000101C4F1400409192729C4BF01221A70D7
:103C5000204BDA78D2B212F0800F27D01B7913F004
:103C6000800F23D0204B1C78E4B2204B1B78DBB2B2
:103C70009C4210D017491E4D01E0A3420BD00133E6
:103C8000282B28BF00230879E85CC0B2C871087DE2
:103C9000C0B20728F1D9DBB214490B700D4B1B7968
:103CA00013F0800F02D07C210A4BD97012F0400F24
:103CB0000ED0084B1B7913F0400F09D000220D4B9A
:103CC0001A700D4B1B6803B11A703C22014BDA705D
:103CD00070BC704700B0064044780020D9770020BF
:103CE00004780020D47700204C780020457800200C
:103CF000DC770020D877002048780020174B1A681E
:103D000042F480521A600023154A1370154A13704A
:103D1000154A1370154A1370154A137040F2133187
:103D2000144A11604FF4517104321160C0F34431F0
:103D3000114A1170C0F34711517000F01F009072CA
:103D4000937013742C23D37040220C4B1A704FF4D1
:103D50000032A3F22D331A60704700BF3480044054
:103D6000C078002055780020C8780020C178002055
:103D70005478002008C0044000C0064031E400E050
:103D8000164B9B7803F0EC0300F00302134310F092
:103D9000040F18BF43F01003104A937000F00F0394
:103DA000042B04D11346927942F040029A710B4BD6
:103DB0005A7902F0EF0210F0100F18BF42F0100213
:103DC000064B5A719B7903F0EF0310F0200F18BFD8
:103DD00043F01003014A9371704700BF00C00640D2
:103DE00010B5144B1B6813F4805F21D0124B1B7865
:103DF00013F0FF0F06D0104CFEF7E2FF237813F00C
:103E0000FF0FF9D14FF400320C4B1A6000230C4A1B
:103E1000D37040F203120B490A6004310A600A4A67
:103E200013700A4A13700A4B1B680BB101221A70F7
:103E300010BD00BF348004405478002084E100E0CD
:103E400000C0064008C00440C0780020557800201B
:103E50005078002010B50446094A137813F0FF0F7C
:103E6000FBD120460121FDF70BFE20460021FDF786
:103E7000D5FD044B53F83420034B1A6010BD00BF2E
:103E80005478002060580000C4780020704700BFBC
:103E9000704700BF10B50D4B1B6813F4805F12D044
:103EA00021280CD80A4C0B4B53F8303023600121E9
:103EB000FDF7E6FD236800221A70012010BD0020E6
:103EC000034B186010BD002010BD00BF34800440BB
:103ED00050780020605800000D4B1B6813F4805F81
:103EE00013D00E280AD140F202320A4B1A600A4B54
:103EF0005A7B42F001025A7301207047064B5A7BED
:103F000002F0FE025A73002070470020704700BF85
:103F10003480044004C0044000C006402DE9F04154
:103F200007461F4B1B6813F4805F37D01D4B1B687F
:103F30000BB101221A701C4B1C780134282C28BFAD
:103F400000241A4D1A4EDFF86C8017E0FEF794FF3C
:103F500040280FDC337913F0800F0FD02B7801331A
:103F6000282B28BF002318F80320D2B2F271DBB24D
:103F70002B7003E0FF2801DDFEF722FF2B78DBB278
:103F80009C42E3D0FFB20B4B1F5501220A4B1A7023
:103F9000E4B2054B1C70AC22054BDA70BDE8F08131
:103FA00034800440C4780020C8780020C178002004
:103FB00000C00640587800205478002038B50546E7
:103FC0000C4629B115F8010BFFF7A8FF013CF9D108
:103FD00038BD00BF10B5064B1B7813F0FF0F06D09D
:103FE000034CFEF7EDFE237813F0FF0FF9D110BD5F
:103FF00054780020064B1B78DBB2064A1278D2B206
:1040000093422CBF273202F1FF32D01A704700BF13
:10401000C8780020C1780020054B1878C0B2054B45
:104020001B78DBB2984238BF4030C01A704700BFDF
:10403000C07800205578002010B4184B1A78D2B2FE
:10404000174B1B78DBB29A4218D001333F2B18D89C
:104050001449C85CC0B2DCB211490C70124909683D
:10406000C9B19A4203D300E00023D31A01E04032E1
:10407000D31A1A2B0FDC00230B700CE04FF0FF302B
:1040800009E0084B1878C0B20021054B1970064BA7
:1040900019680029E8D15DF8044B7047C07800200A
:1040A000557800208078002050780020094B1A783D
:1040B000D2B2094B1B78DBB29A4207D00133402BB6
:1040C00028BF0023054AD05CC0B270474FF0FF30D4
:1040D000704700BFC078002055780020807800200D
:1040E000054B1A78D2B2054B1A70054B1B680BB101
:1040F00000221A70704700BF55780020C078002059
:10410000507800202F4B1B7913F0200F23D02D4B1C
:10411000DB79D9B22C4B1B780133402B28BF00230D
:104120002A4A1278D2B29A4204D0294AD154D9B23A
:10413000254A1170274A116869B1274A1278D2B20C
:1041400093422EBFC2EB0303C2F140029B18272B00
:10415000C4BF01230B701B4BDB78DBB213F0800F65
:104160001CD0184A127912F0800F17D01B4A117810
:10417000C9B2194A1278D2B2914203D16C21114AC4
:10418000D1700BE00132282A28BF00221449885C34
:10419000C0B20C49C871D2B20F490A7013F0400F77
:1041A0000ED0084B1B7913F0400F09D000220D4BA5
:1041B0001A700D4B1B6803B11A702C22014BDA7078
:1041C000704700BF00C00640C0780020557800202E
:1041D0008078002050780020C1780020C878002026
:1041E0005878002054780020C478002000B585B0AD
:1041F00072B61B4B70221A7041211A4A11700F219E
:10420000013A117080221A701A46137813F0800F49
:10421000FBD0154B186862B6144B98429CBF00EB5C
:104220008000400001A90A22FEF746FE9DF80430F6
:104230007BB908E001A9595C31B1918002320133A8
:104240000A2BF7D100E0002301335B00084A13700A
:1042500003E0074A53800123ECE705B05DF804FB57
:104260000000024007000240080002407F969800CC
:10427000DC88FF1F08B503681B68C9B2984708BDF2
:1042800008B503681B68C9B2984708BD08B503683C
:104290001B68C9B2984708BD08B503681B68C9B256
:1042A000984708BD08B54B0803F1376000F5D830D2
:1042B000B0FBF1F0FEF722FE08BD00BF10B51446BA
:1042C0004B0803F1376000F5D830B0FBF1F0FEF792
:1042D00015FE2046FEF77AFE10BD00BF08B5FEF7BA
:1042E000A5FE08BD08B50846FEF7DAFE08BD00BF0A
:1042F00008B50846FEF71EFF08BD00BF08B5084612
:10430000FEF7EAFE08BD00BF08B50846FEF73EFF0F
:10431000003018BF012008BD08B50846FEF758FF59
:10432000003018BF012008BD08B5FFF751F808BDDF
:1043300008B5FFF797F808BD08B5FFF759F808BDAD
:1043400008B5FFF723F808BD08B5FFF7A5F808BDC5
:1043500008B5FFF72BF808BD08B50846FEF764FF5F
:10436000012008BD08B50846FEF75EFF012008BD24
:1043700010B5144608461146FEF7A6FF204610BDAC
:1043800038B50D46084601F03FF804462846214658
:10439000FEF79AFF204638BD704700BF044B00224D
:1043A0001A714FF47A7199601A73024A1A60704751
:1043B000CC780020F859000008B503681B68C9B222
:1043C000984708BD08B503681B68C9B2984708BD7F
:1043D00008B503681B68C9B2984708BD08B50368EB
:1043E0001B68C9B2984708BD08B54B0803F1376090
:1043F00000F5D830B0FBF1F0FFF704F908BD00BFBD
:1044000010B514464B0803F1376000F5D830B0FB07
:10441000F1F0FFF7F7F82046FFF75CF910BD00BF99
:1044200008B5FFF787F908BD08B50846FFF7BCF9DE
:1044300008BD00BF08B50846FFF700FA08BD00BF79
:1044400008B50846FFF7CCF908BD00BF08B5084617
:10445000FFF722FA003018BF012008BD08B5084652
:10446000FFF73CFA003018BF012008BD08B5FFF780
:104470002BFB08BD08B5FFF771FB08BD08B5FFF7BA
:1044800033FB08BD08B5FFF7FDFA08BD08B5FFF717
:104490007FFB08BD08B5FFF705FB08BD08B508465A
:1044A000FFF73EFA012008BD08B50846FFF738FAC5
:1044B000012008BD10B5144608461146FFF780FAE2
:1044C000204610BD38B50D46084600F09DFF044655
:1044D00028462146FFF774FA204638BD704700BFD2
:1044E000044B00221A714FF47A7199601A73024AD0
:1044F0001A607047DC780020585A000008B503683D
:104500001B68C9B2984708BD08B503681B68C9B2E3
:10451000984708BD08B503681B68C9B2984708BD2D
:1045200008B503681B68C9B2984708BD08B54B08B1
:1045300003F1B76000F55840B0FBF1F0FFF7DEFB88
:1045400008BD00BF10B514464B0803F1B76000F575
:104550005840B0FBF1F0FFF7D1FB2046FFF710FC0D
:1045600010BD00BF08B5FFF73BFC08BD08B5084605
:10457000FFF770FC08BD00BF08B50846FFF788FCD0
:1045800008BD00BF08B50846FFF780FC08BD00BFA6
:1045900008B50846FFF77EFC003018BF012008BDB3
:1045A00008B50846FFF798FC003018BF012008BD89
:1045B00008B5FFF731FD08BD08B5FFF777FD08BD69
:1045C00008B5FFF739FD08BD08B5FFF703FD08BDC5
:1045D00008B5FFF785FD08BD08B5FFF70BFD08BD61
:1045E00008B50846FFF79AFC012008BD08B5084643
:1045F000FFF794FC012008BD10B51446084611468B
:10460000FFF7DCFC204610BD38B50D46084600F02B
:10461000FBFE044628462146FFF7D0FC204638BD65
:10462000704700BF044B00221A714FF47A719960F1
:104630001A73024A1A607047EC780020B85A0000DA
:1046400008B50122024B1A60024B1B68984708BD4F
:104650000C7103400479002008B50122024B1A6056
:10466000024B5B68984708BD1C7103400479002029
:1046700008B50122024B1A60024B9B68984708BD9F
:104680002C7103400479002008B50122024B1A6006
:10469000024BDB68984708BD3C7103400479002059
:1046A000054B1A6842F400021A600022034B1A609C
:1046B0000122034B1A7070473C8004400070034095
:1046C000007900200122064B1A6003F588333C3341
:1046D0001A6822F400021A600022024B1A70704716
:1046E000007003400079002010B442781401164B8A
:1046F00023444360154B234483600369144C44F8FE
:104700002230836800221A6043681960836803229C
:104710001A6043784433DBB2037303F1604303F55B
:104720006443427B1A70027B53119B0003F1604388
:1047300003F5614302F01F02012101FA02F21A603F
:104740005DF8044B704700BF0071034008710340DF
:104750000479002070B504460D46134B1B780BB945
:10476000FFF79EFF114B1B788BB1104B5B7843B169
:104770000E4B9B7843B10D4BDB789BB903231E4650
:1047800007E001231E4604E002231E4601E0002646
:104790003346637020462946FFF7A6FF0120034BEE
:1047A000985570BD002070BD00790020FC78002075
:1047B00010B5836800221A60037B5C1103F01F03AD
:1047C000012101FA03F30A4941F82430094B4178E9
:1047D0005A541B7853B9074B5B783BB9054B9B7810
:1047E00023B9044BDB780BB9FFF76CFF10BD00BF9A
:1047F00080E100E0FC78002070B504460E461546C6
:1048000003781BB1FFF7D4FF0023237026612046F5
:104810002946FFF79FFF10B10123237001E0002319
:104820002370207870BD00BF10B5044603780BB12B
:10483000FFF7BEFF0023237010BD00BF80F00040D3
:1048400002E000BF81F0004142001FBF5FEA410368
:1048500092EA030F7FEA226C7FEA236C6AD04FEA68
:104860001262D2EB1363C1BFD218414048404140AD
:10487000B8BF5B42192B88BF704710F0004F40F45F
:10488000000020F07F4018BF404211F0004F41F47B
:10489000000121F07F4118BF494292EA030F3FD047
:1048A000A2F1010241FA03FC10EB0C00C3F120035A
:1048B00001FA03F100F0004302D5494260EB4000E9
:1048C000B0F5000F13D3B0F1807F06D340084FEA54
:1048D000310102F10102FE2A51D2B1F1004F40EB49
:1048E000C25008BF20F0010040EA030070474900B1
:1048F00040EB000010F4000FA2F10102EDD1B0FA7C
:1049000080FCACF1080CB2EB0C0200FA0CF0AABF70
:1049100000EBC25052421843BCBFD040184370470E
:1049200092F0000F81F4000106BF80F40000013214
:10493000013BB5E74FEA41037FEA226C18BF7FEAEB
:10494000236C21D092EA030F04D092F0000F08BF2D
:104950000846704790EA010F1CBF0020704712F014
:104960007F4F04D1400028BF40F00040704712F153
:1049700000723CBF00F50000704700F0004343F0B8
:10498000FE4040F4000070477FEA226216BF0846EE
:104990007FEA23630146420206BF5FEA412390EAB1
:1049A000010F40F4800070474FF0000304E000BFA7
:1049B00010F0004348BF40425FEA000C08BF704758
:1049C00043F0964301464FF000001CE050EA01021C
:1049D00008BF70474FF000030AE000BF50EA010231
:1049E00008BF704711F0004302D5404261EB41011E
:1049F0005FEA010C02BF84460146002043F0B64343
:104A000008BFA3F18053A3F50003BCFA8CF2083A67
:104A1000A3EBC25310DB01FA02FC634400FA02FC70
:104A2000C2F12002BCF1004F20FA02F243EB020077
:104A300008BF20F00100704702F1200201FA02FCD9
:104A4000C2F1200250EA4C0021FA02F243EB0200CC
:104A500008BF20EADC7070474FF0FF0C1CEAD05210
:104A60001EBF1CEAD15392EA0C0F93EA0C0F6FD0D1
:104A70001A4480EA010C400218BF5FEA41211ED0AF
:104A80004FF0006343EA501043EA5111A0FB01319B
:104A90000CF00040B1F5000F3EBF490041EAD37170
:104AA0005B0040EA010062F17F02FD2A1DD8B3F1EC
:104AB000004F40EBC25008BF20F00100704790F05B
:104AC000000F0CF0004C08BF49024CEA502040EAAD
:104AD00051207F3AC2BFD2F1FF0340EAC250704773
:104AE00040F400004FF00003013A5DDC12F1190FB1
:104AF000DCBF00F000407047C2F10002410021FA23
:104B000002F1C2F1200200FA02FC5FEA310040F13A
:104B1000000053EA4C0308BF20EADC70704792F0B3
:104B2000000F00F0004C02BF400010F4000F013AEB
:104B3000F9D040EA0C0093F0000F01F0004C02BFE6
:104B4000490011F4000F013BF9D041EA0C018FE755
:104B50000CEAD15392EA0C0F18BF93EA0C0F0AD05B
:104B600030F0004C18BF31F0004CD8D180EA010081
:104B700000F00040704790F0000F17BF90F0004F1A
:104B8000084691F0000F91F0004F14D092EA0C0FFC
:104B900001D142020FD193EA0C0F03D14B0218BF8F
:104BA000084608D180EA010000F0004040F0FE40D5
:104BB00040F40000704740F0FE4040F44000704771
:104BC0004FF0FF0C1CEAD0521EBF1CEAD15392EAF0
:104BD0000C0F93EA0C0F69D0A2EB030280EA010CE0
:104BE00049024FEA402037D04FF0805343EA111179
:104BF00043EA10130CF000408B4238BF5B0042F1D7
:104C00007D024FF4000C8B4224BF5B1A40EA0C007B
:104C1000B3EB510F24BFA3EB510340EA5C00B3EBAD
:104C2000910F24BFA3EB910340EA9C00B3EBD10F9B
:104C300024BFA3EBD10340EADC001B0118BF5FEAED
:104C40001C1CE0D1FD2A3FF650AF8B4240EBC25016
:104C500008BF20F0010070470CF0004C4CEA5020D7
:104C60007F32C2BFD2F1FF0340EAC250704740F426
:104C700000004FF00003013A37E792F0000F00F018
:104C8000004C02BF400010F4000F013AF9D040EA96
:104C90000C0093F0000F01F0004C02BF490011F42A
:104CA000000F013BF9D041EA0C0195E70CEAD15322
:104CB00092EA0C0F08D142027FF47DAF93EA0C0F09
:104CC0007FF470AF084676E793EA0C0F04D14B02ED
:104CD0003FF44CAF08466EE730F0004C18BF31F09F
:104CE000004CCAD130F000427FF45CAF31F0004399
:104CF0007FF43CAF5FE700BF4FF0FF3C06E000BF32
:104D00004FF0010C02E000BF4FF0010C4DF804CD54
:104D10004FEA40024FEA41037FEA226C18BF7FEA64
:104D2000236C11D001B052EA530C18BF90EA010F66
:104D300058BFB2EB030088BFC81738BF6FEAE170F5
:104D400018BF40F0010070477FEA226C02D15FEA91
:104D5000402C05D17FEA236CE4D15FEA412CE1D0FD
:104D60005DF8040B704700BF844608466146FFE7C4
:104D70000FB5FFF7C9FF002848BF10F1000F0FBDA6
:104D80004DF808EDFFF7F4FF0CBF012000205DF89F
:104D900008FB00BF4DF808EDFFF7EAFF34BF012024
:104DA00000205DF808FB00BF4DF808EDFFF7E0FFBD
:104DB00094BF012000205DF808FB00BF4DF808ED0E
:104DC000FFF7D2FF94BF012000205DF808FB00BF71
:104DD0004DF808EDFFF7C8FF34BF012000205DF853
:104DE00008FB00BF42000ED2B2F1FE4F0BD34FF0D2
:104DF0009E03B3EB126209D44FEA002343F0004351
:104E000023FA02F070474FF00000704712F1610F73
:104E100001D1420202D14FF0FF3070474FF0000045
:104E2000704700BF03460846194600F001B800BFAE
:104E300010B40C4613460146224602205DF8044B8E
:104E400000F012BB70B50F4E0F4D761BB61007D099
:104E5000043D0024013455F8043F9847A642F9D197
:104E60000A4E0B4D761B00F057FEB61008D0043DDD
:104E70000024013455F8043F9847A642F9D170BD8B
:104E800070BD00BF245B0000245B0000445B000099
:104E9000245B0000024B0146186800F003B800BF15
:104EA000208DFF1F2DE9F04F01F10B05162D83B06A
:104EB000064627D935F0070527D4A94225D830461C
:104EC00000F08CFAB5F5FC7F26D2C14F4FEAD50C25
:104ED00007EBCC03DC689C4200F0D2816368E26897
:104EE000A16823F00303234430465D68CA6045F09F
:104EF000010591605D6000F073FA0834204603B04C
:104F0000BDE8F08F1025A942D9D900240C232046F2
:104F1000336003B0BDE8F08F5FEA552C00F08A8063
:104F2000BCF1040F00F260814FEA951C0CF1380CC3
:104F30004FEA4C01A64F07EB8101CC68A14205D195
:104F40000CE0002B7ADAE468A14207D0626822F014
:104F50000302531B0F2BF4DD0CF1FF3C0CF1010C91
:104F60009B4B3C6903F1080E744500F07E8161683B
:104F700021F003014A1B0F2A00F36481002AC3F8C1
:104F800014E0C3F810E06ADAB1F5007F80F03A81EE
:104F9000C90803EBC1004FEAA1085A688168A16003
:104FA0004FF0010909FA08F848EA0202E0605A6085
:104FB0008460CC604FEAAC030120984090425BD8FB
:104FC000024206D12CF0030C400002420CF1040C0A
:104FD000FAD007EBCC084446E146E3689C4207D18F
:104FE00045E1002A80F25681DB689C4200F03F8157
:104FF000596821F003014A1B0F2AF2DD1C46D3F841
:105000000CC054F8088F591945F0010942F0010508
:10501000C3F804903046C8F80CC0CCF80880796119
:105020003961C1F80CE0C1F808E04D608A5000F029
:10503000D7F963E77E214FF03F0C7BE72244E3681A
:105040005068A16840F00105CB603046996055601A
:1050500000F0C6F90834204603B0BDE8F08F2144C3
:1050600030464B6843F001034B6000F0B9F9083457
:10507000204603B0BDE8F08FBC68636823F00309E5
:10508000A94504D3C5EB09030F2B00F39180514BC5
:10509000514A19681368013305EB010A04EB090B47
:1050A00000F061810AF5805A0AF10F0A2AF47F6A3A
:1050B0002AF00F0A30465146019200F093F9B0F100
:1050C000FF3F8046019A00F00081834500F2FA809C
:1050D000DFF810C1DCF80030C3455344CCF8003091
:1050E00000F04A8112683C4901321BBFCBEB080B30
:1050F0005B44C1F80080CCF8003018F0070300F0E2
:105100001381C3F10802C3F5805390440833C244AD
:10511000CAF30B0ACAEB030A51463046CDF804C065
:1051200000F060F9431CDDF804C000F03581C8EBE5
:105130000002524442F00102DCF80030C7F8088057
:105140005344BC42C8F80420CCF80030DFF894A0E7
:1051500015D0B9F10F0F40F2EA806168A9F10C0295
:1051600022F0070201F0010EA118052042EA0E0EFE
:105170000F2AC4F804E04860886000F21181174AE1
:10518000BC6811688B4288BF1360154A11688B4256
:1051900088BF1360626822F003029542C5EB0203E8
:1051A00001D80F2B04DC304600F01AF90024A5E6E4
:1051B000621943F0010345F0010565603046BA60AD
:1051C000536000F00DF90834204603B0BDE8F08FBD
:1051D000248DFF1F1C7900203091FF1F18790020BB
:1051E0001479002020790020BCF1140F61D9BCF1A2
:1051F000540F00F28F804FEA153C0CF16E0C4FEA11
:105200004C0197E64B0A042B58D9142B00F2AE80C0
:1052100003F15B02500007EB8000DFF8BC8183687C
:10522000834200F08A805A6822F00302914202D23F
:105230009B689842F7D1D9687A68E160A3608C6076
:10524000DC60B7E6611942F0010745F001056560D1
:10525000304659611961C1F80CE0C1F808E04F60AF
:105260008A50083400F0BCF848E65A68A2E609F112
:10527000010919F0030F04F108047FF4AEAE2DE02C
:1052800004F108036469A34208BF0CF1020C3FF467
:1052900067AE23E619441C464868DB6854F8082FBB
:1052A00040F001054D603046D3609A6000F098F8F8
:1052B00024E60CF15B0C4FEA4C013BE68A093832DC
:1052C0005000A8E7BC423FF403AFBC68626822F01C
:1052D000030262E7D8F8008098457BD11CF0030FE9
:1052E000A8F108030CF1FF3CF4D17B6823EA00032A
:1052F0007B60400098423FF6BFAE00283FF4BCAE52
:105300000342CC467FF465AE400003420CF1040C2E
:10531000FAD05EE6BCF5AA7F1AD84FEAD53C0CF16C
:10532000770C4FEA4C0105E64FF48053EFE601237A
:10533000C8F80430444600222FE791100120D8F825
:10534000042000FA01F10A43C8F80420194674E762
:1053500040F254539C451BD84FEA954C0CF17C0C01
:105360004FEA4C01E6E50AF1100AA3E6542B1FD8D8
:105370000A0B6E3250004EE7CBF30B0100297FF48D
:10538000B1AE0AEB0901BA6841F001015160F6E6DD
:10539000FC214FF07E0CCDE501224FF0000ACBE658
:1053A00004F10801304600F029F9DAF80030E6E6A9
:1053B000B3F5AA7F03D8CA0B773250002BE740F22F
:1053C0005452934203D88A0C7C32500023E7FC20CD
:1053D0007E2220E77B688CE7248DFF1F704700BF8B
:1053E000704700BF38B5074C0023054608462360C8
:1053F000FDF73AFD431C00D038BD2368002BFBD0DD
:105400002B6038BD5C79002020F0030110F0030010
:10541000C0F1000051F8043B00F1040C4FEACC0C41
:105420006FF000021CBF22FA0CF213434FF0010C84
:105430004CEA0C2C4CEA0C4CA3EB0C0222EA0302C3
:1054400012EACC1204BF51F8043B0430F4D013F03C
:10545000FF0F1FBF013013F47F4F013013F47F0F94
:1054600018BF0130704700BFF0B5274C2668D6F84A
:10547000484185B00746002C41D065681F2D1EDDD0
:10548000224818B94FF0FF3005B0F0BD4FF4C87096
:10549000039102920193FFF7FDFC0399029A019B8D
:1054A00004460028EED0D6F8485125600020606000
:1054B0000546C6F84841C4F88801C4F88C013FB9D4
:1054C000AB1C00200135656044F8231005B0F0BD29
:1054D00004EB85004FF0010CC0F88820D4F88861F7
:1054E0000CFA05F21643022FC4F88861C0F808319F
:1054F000E6D1D4F88C311A43C4F88C21E0E706F5E4
:10550000A674C6F84841B8E7145B0000954E000049
:10551000024B13B1024800F005B8704700000000CC
:10552000315500000146002002460346FFF79CBFAC
:1055300038B5094D094C641BA41018BF05EB840550
:1055400005D0013C55F8043D9847002CF9D1BDE841
:10555000384000F0F7BA00BF000000000000000073
:10556000F8B5234D0F460446FFF738FFAB685E6879
:1055700026F00306F11B01F6EF7121F47F6121F0A3
:105580000F01A1F58057B7F5805F07DB20460021AA
:10559000FFF728FFAB683344984204D02046FFF75A
:1055A0001FFF0020F8BD20467942FFF71BFF0130A6
:1055B0000DD0104BAA681968F61B46F0010620466C
:1055C000C91B56601960FFF70BFF0120F8BD20468C
:1055D0000021FFF707FFAB68C21A0F2ADEDD064D78
:1055E00004492D6842F00102401B5A600860D5E76B
:1055F000248DFF1F207900203091FF1F2DE9F041FD
:105600000D460646002955D0FFF7E8FE55F8041C64
:10561000DFF874C121F00103A5F10804E218DCF8F9
:1056200008005768904227F0030769D011F0010184
:10563000576032D00021D0194068C00706D43B44DF
:10564000906800294ED0D268C260906043F0010299
:105650006260E350E1B9B3F5007F2DD35A0A042A02
:105660006AD89809383041000CEB810C4649DCF8C7
:105670000820624566D0516821F003018B4202D2B6
:1056800092689445F7D1D368E360A2609C60D460CF
:105690003046BDE8F041FFF7A3BE55F8085C641B37
:1056A0000CF10808A06840452B4443D0E568C5606C
:1056B000A860C0E7BDE8F081DB080CEBC302012560
:1056C000DCF804009168A1609B1005FA03F318430D
:1056D000E260CCF8040094603046CC60BDE8F04154
:1056E000FFF77EBE294DA842ADD143F00102CCF8B0
:1056F0001440CCF81040E060A0606260E350C7E75F
:105700001F44CB0707D455F8083CE41A1F44A2688D
:10571000E368D3609A601E4B1B6847F001029F420A
:105720006260CCF80840B3D31A4B30461968FFF7D3
:1057300017FFADE701217EE7142A0CD802F15B00C8
:10574000410091E74B688010012505FA00F0034302
:105750004B60134698E7542A03D8180B6E3041006B
:1057600082E7B2F5AA7F03D8D80B773041007BE7F8
:1057700040F254518A4203D8980C7C30410073E7C0
:10578000FC217E2070E700BF248DFF1F2C8DFF1FA2
:105790002C91FF1F1C79002020454550726F6D2011
:1057A000627974657320617661696C61626C652EE3
:1057B00000000000536F7272792100005465656E1D
:1057C00073792054696E794241534943506C757323
:1057D0002076312E31000000082008004F4B0000D9
:1057E00048454C4C4F00FFFF576861743F20000054
:1057F000556E696D706C656D656E74656400000052
:10580000627265616B210000486F773F0000000005
:1058100020627974657320667265652E0000000051
:1058200020454550726F6D20627974657320746FE6
:1058300074616C2E00000000050E08090D0C0607AF
:105840000F04001303931A9217C585848687C4003A
:105850006FF07F030370037813F0800FFBD0704765
:105860004008FE4340A004404408FE4344A00440D6
:105870000018FE4300C004403000FE433090044056
:105880003400FE43349004401C18FE431CC0044006
:105890001018FE4310C004400818FE4308C004401E
:1058A0000C18FE430CC004400C10FE430CB0044026
:1058B0001010FE4310B004401810FE4318B004400E
:1058C0001C10FE431CB004401410FE4314B00440EE
:1058D0000418FE4304C004400010FE4300B004401E
:1058E0000008FE4300A004400408FE4304A0044056
:1058F0000C08FE430CA004400808FE4308A0044026
:105900001418FE4314C004401818FE4318C0044085
:105910000410FE4304B004400810FE4308B00440E5
:105920001400FE43149004404C08FE434CA0044075
:105930000420FE4304D004402410FE4324B004405D
:105940002010FE4320B004402810FE4328B004403D
:105950002C10FE432CB004400020FE4300D0044035
:105960004808FE4348A004401000FE431090044045
:105970000D0A0000FFFFFFFF000000000000000014
:10598000892D0000952D0000692D0000712D00006B
:10599000792D0000812D000000151915000100006F
:1059A0005088FF1F12000000000200007C88FF1FCB
:1059B0004300000000030000D888FF1F0000000023
:1059C000010309046488FF1F0000000002030904AA
:1059D000C088FF1F0000000003030904DC88FF1FCC
:1059E00000000000000000000000000000000000B7
:1059F0000000000000000000594300007143000057
:105A000029430000394300003143000041430000B6
:105A1000A5420000BD420000DD420000E54200005A
:105A2000F1420000FD42000009430000194300005C
:105A300049430000514300007542000081420000CC
:105A40008D42000099420000814300006543000040
:105A500000000000000000009D440000B54400006C
:105A60006D4400007D440000754400008544000042
:105A7000E9430000014400002144000029440000E3
:105A800035440000414400004D4400005D440000E6
:105A90008D44000095440000B9430000C543000058
:105AA000D1430000DD430000C5440000A9440000CC
:105AB0000000000000000000E1450000F945000082
:105AC000B1450000C1450000B9450000C9450000CE
:105AD0002D45000045450000654500006D4500006E
